:020000040800F2
:1000000000500020F9290008A9220008AB220008AE
:10001000AD220008AF220008B12200080000000055
:10002000000000000000000000000000B3220008F3
:10003000B522000800000000B7220008B92200081D
:10004000412A0008412A0008412A0008412A0008E4
:10005000412A0008412A0008412A0008412A0008D4
:10006000412A0008412A0008412A0008412A0008C4
:10007000C1220008D1220008412A0008412A0008B4
:10008000E1220008F1220008412A0008412A000864
:10009000412A0008412A0008412A0008412A000894
:1000A000412A0008412A0008412A0008412A000884
:1000B000012300081123000821230008412A000819
:1000C000412A0008412A0008412A0008412A000864
:1000D000412A0008412A0008312300084123000872
:1000E000412A0008412A0008412A000800000000B7
:1000F0000000000000000000000000000000000000
:0C01000000000000000000005FF808F1A3
:1001100010B5054C237833B9044B13B10448AFF341
:1001200000800123237010BDBC09002000000000E6
:1001300090C4000808B5034B1BB103490348AFF353
:10014000008008BD00000000C009002090C4000825
:1001500081F0004102E000BF83F0004330B54FEA78
:1001600041044FEA430594EA050F08BF90EA020FE5
:100170001FBF54EA000C55EA020C7FEA645C7FEA78
:10018000655C00F0E2804FEA5454D4EB5555B8BF9B
:100190006D420CDD2C4480EA020281EA030382EA0C
:1001A000000083EA010180EA020281EA0303362D9E
:1001B00088BF30BD11F0004F4FEA01314FF4801C71
:1001C0004CEA113102D0404261EB410113F0004F83
:1001D0004FEA03334CEA133302D0524263EB43033A
:1001E00094EA050F00F0A780A4F10104D5F1200ED8
:1001F0000DDB02FA0EFC22FA05F2801841F1000133
:1002000003FA0EF2801843FA05F359410EE0A5F106
:1002100020050EF1200E012A03FA0EFC28BF4CF037
:10022000020C43FA05F3C01851EBE37101F00045ED
:1002300007D54FF0000EDCF1000C7EEB00006EEBFA
:100240000101B1F5801F1BD3B1F5001F0CD3490884
:100250005FEA30004FEA3C0C04F101044FEA4452DB
:1002600012F5800F80F09A80BCF1004F08BF5FEA62
:10027000500C50F1000041EB045141EA050130BD42
:100280005FEA4C0C404141EB0101013C28BFB1F554
:10029000801FE9D291F0000F04BF01460020B1FA9F
:1002A00081F308BF2033A3F10B03B3F120020CDA72
:1002B0000C3208DD02F1140CC2F10C0201FA0CF050
:1002C00021FA02F10CE002F11402D8BFC2F1200CB5
:1002D00001FA02F120FA0CFCDCBF41EA0C0190406B
:1002E000E41AA2BF01EB0451294330BD6FEA0404B4
:1002F0001F3C1CDA0C340EDC04F11404C4F120029F
:1003000020FA04F001FA02F340EA030021FA04F3B0
:1003100045EA030130BDC4F10C04C4F1200220FA07
:1003200002F001FA04F340EA0300294630BD21FA45
:1003300004F0294630BD94F0000F83F4801306BF0B
:1003400081F480110134013D4EE77FEA645C18BFFF
:100350007FEA655C29D094EA050F08BF90EA020F96
:1003600005D054EA000C04BF1946104630BD91EA8E
:10037000030F1EBF0021002030BD5FEA545C05D191
:100380004000494128BF41F0004130BD14F58004D0
:100390003CBF01F5801130BD01F0004545F0FE4144
:1003A00041F470014FF0000030BD7FEA645C1ABF79
:1003B000194610467FEA655C1CBF0B46024650EAB0
:1003C000013406BF52EA033591EA030F41F40021DC
:1003D00030BD00BF90F0000F04BF0021704730B562
:1003E0004FF4806404F132044FF000054FF0000137
:1003F00050E700BF90F0000F04BF0021704730B5F8
:100400004FF4806404F1320410F0004548BF4042CC
:100410004FF000013EE700BF42004FEAE2014FEA21
:1004200031014FEA02701FBF12F07F4393F07F4FFC
:1004300081F06051704732F07F4208BF704793F0FF
:100440007F4F04BF41F40021704730B54FF4607412
:1004500001F0004521F000411CE700BF50EA010215
:1004600008BF704730B54FF000050AE050EA0102BE
:1004700008BF704730B511F0004502D5404261EB2E
:1004800041014FF4806404F132045FEA915C3FF46F
:10049000D8AE4FF003025FEADC0C18BF03325FEA0C
:1004A000DC0C18BF033202EBDC02C2F1200300FABD
:1004B00003FC20FA02F001FA03FE40EA0E0021FAE2
:1004C00002F11444BDE600BF70B54FF0FF0C4CF4D0
:1004D000E06C1CEA11541DBF1CEA135594EA0C0F82
:1004E00095EA0C0F00F0DEF82C4481EA030621EABD
:1004F0004C5123EA4C5350EA013518BF52EA0335F8
:1005000041F4801143F4801338D0A0FB02CE4FF0A9
:100510000005E1FB02E506F00042E0FB03E54FF0D9
:100520000006E1FB03569CF0000F18BF4EF0010ED1
:10053000A4F1FF04B6F5007F64F5407404D25FEACD
:100540004E0E6D4146EB060642EAC62141EA555180
:100550004FEAC52040EA5E504FEACE2EB4F1FD0CC2
:1005600088BFBCF5E06F1ED8BEF1004F08BF5FEA40
:10057000500E50F1000041EB045170BD06F00046F2
:1005800046EA010140EA020081EA0301B4EB5C049F
:10059000C2BFD4EB0C0541EA045170BD41F4801197
:1005A0004FF0000E013C00F3AB8014F1360FDEBFBC
:1005B000002001F0004170BDC4F10004203C35DA98
:1005C0000C341BDC04F11404C4F1200500FA05F31B
:1005D00020FA04F001FA05F240EA020001F00042BC
:1005E00021F0004110EBD37021FA04F642EB060132
:1005F0005EEA430E08BF20EAD37070BDC4F10C045C
:10060000C4F1200500FA04F320FA05F001FA04F21F
:1006100040EA020001F0004110EBD37041F100010B
:100620005EEA430E08BF20EAD37070BDC4F1200516
:1006300000FA05F24EEA020E20FA04F301FA05F27E
:1006400043EA020321FA04F001F0004121FA04F226
:1006500020EA020000EBD3705EEA430E08BF20EAF6
:10066000D37070BD94F0000F0FD101F00046400030
:1006700041EB010111F4801F08BF013CF7D041EAB2
:10068000060195F0000F18BF704703F000465200B6
:1006900043EB030313F4801F08BF013DF7D043EA87
:1006A0000603704794EA0C0F0CEA135518BF95EA3D
:1006B0000C0F0CD050EA410618BF52EA4306D1D1C4
:1006C00081EA030101F000414FF0000070BD50EAE3
:1006D000410606BF1046194652EA430619D094EA6D
:1006E0000C0F02D150EA013613D195EA0C0F05D157
:1006F00052EA03361CBF104619460AD181EA0301AB
:1007000001F0004141F0FE4141F470014FF0000062
:1007100070BD41F0FE4141F4780170BD70B54FF0FD
:10072000FF0C4CF4E06C1CEA11541DBF1CEA13557D
:1007300094EA0C0F95EA0C0F00F0A7F8A4EB05045F
:1007400081EA030E52EA03354FEA013100F0888056
:100750004FEA03334FF0805545EA131343EA12631F
:100760004FEA022245EA111545EA10654FEA0026D4
:100770000EF000419D4208BF964244F1FD0404F58D
:10078000407402D25B084FEA3202B61A65EB0305E9
:100790005B084FEA32024FF480104FF4002CB6EBA6
:1007A000020E75EB030E22BFB61A754640EA0C0026
:1007B0005B084FEA3202B6EB020E75EB030E22BF66
:1007C000B61A754640EA5C005B084FEA3202B6EBA7
:1007D000020E75EB030E22BFB61A754640EA9C0066
:1007E0005B084FEA3202B6EB020E75EB030E22BF36
:1007F000B61A754640EADC0055EA060E18D04FEAF4
:10080000051545EA16754FEA06164FEAC30343EA93
:1008100052734FEAC2025FEA1C1CC0D111F4801F60
:100820000BD141EA00014FF000004FF0004CB6E759
:1008300011F4801F04BF01430020B4F1FD0C88BFF8
:10084000BCF5E06F3FF6AFAEB5EB030C04BFB6EB03
:10085000020C5FEA500C50F1000041EB045170BDF6
:100860000EF0004E4EEA113114EB5C04C2BFD4EB23
:100870000C0541EA045170BD41F480114FF0000EA7
:10088000013C90E645EA060E8DE60CEA135594EA23
:100890000C0F08BF95EA0C0F3FF43BAF94EA0C0F26
:1008A0000AD150EA01347FF434AF95EA0C0F7FF49B
:1008B00025AF104619462CE795EA0C0F06D152EAEF
:1008C00003353FF4FDAE1046194622E750EA4106D3
:1008D00018BF52EA43067FF4C5AE50EA41047FF4E4
:1008E0000DAF52EA43057FF4EBAE12E74FEA410247
:1008F000B2F1E04324BFB3F5001CDCF1FE5C0DD97E
:1009000001F0004C4FEAC0024CEA5070B2F1004FC7
:1009100040EB830008BF20F00100704711F0804FCA
:1009200021D113F13872BCBF01F00040704741F48F
:1009300080114FEA5252C2F11802C2F1200C10FA93
:100940000CF320FA02F018BF40F001004FEAC12377
:100950004FEAD32303FA0CFC40EA0C0023FA02F31B
:100960004FEA4303CCE77FEA625307D150EA0133F1
:100970001EBF4FF0FE4040F44000704701F00040C1
:1009800040F0FE4040F40000704700BF80F000409F
:1009900002E000BF81F0004142001FBF5FEA410357
:1009A00092EA030F7FEA226C7FEA236C6AD04FEA57
:1009B0001262D2EB1363C1BFD2184140484041409C
:1009C000B8BF5B42192B88BF704710F0004F40F44E
:1009D000000020F07F4018BF404211F0004F41F46A
:1009E000000121F07F4118BF494292EA030F3FD036
:1009F000A2F1010241FA03FC10EB0C00C3F1200349
:100A000001FA03F100F0004302D5494260EB4000D7
:100A1000B0F5000F13D3B0F1807F06D340084FEA42
:100A2000310102F10102FE2A51D2B1F1004F40EB37
:100A3000C25008BF20F0010040EA0300704749009F
:100A400040EB0000013A28BFB0F5000FEDD2B0FA3C
:100A500080FCACF1080CB2EB0C0200FA0CF0AABF5F
:100A600000EBC25052421843BCBFD04018437047FD
:100A700092F0000F81F4000106BF80F40000013203
:100A8000013BB5E74FEA41037FEA226C18BF7FEADA
:100A9000236C21D092EA030F04D092F0000F08BF1C
:100AA0000846704790EA010F1CBF0020704712F003
:100AB0007F4F04D1400028BF40F00040704712F142
:100AC00000723CBF00F50000704700F0004343F0A7
:100AD000FE4040F4000070477FEA226216BF0846DD
:100AE0007FEA23630146420206BF5FEA412390EAA0
:100AF000010F40F4800070474FF0000304E000BF96
:100B000010F0004348BF40425FEA000C08BF704746
:100B100043F0964301464FF000001CE050EA01020A
:100B200008BF70474FF000030AE000BF50EA01021F
:100B300008BF704711F0004302D5404261EB41010C
:100B40005FEA010C02BF84460146002043F0B64331
:100B500008BFA3F18053A3F50003BCFA8CF2083A56
:100B6000A3EBC25310DB01FA02FC634400FA02FC5F
:100B7000C2F12002BCF1004F20FA02F243EB020066
:100B800008BF20F00100704702F1200201FA02FCC8
:100B9000C2F1200250EA4C0021FA02F243EB0200BB
:100BA00008BF20EADC7070474FF0FF0C1CEAD052FF
:100BB0001EBF1CEAD15392EA0C0F93EA0C0F6FD0C0
:100BC0001A4480EA010C400218BF5FEA41211ED09E
:100BD0004FF0006343EA501043EA5111A0FB01318A
:100BE0000CF00040B1F5000F3EBF490041EAD3715F
:100BF0005B0040EA010062F17F02FD2A1DD8B3F1DB
:100C0000004F40EBC25008BF20F00100704790F049
:100C1000000F0CF0004C08BF49024CEA502040EA9B
:100C200051207F3AC2BFD2F1FF0340EAC250704761
:100C300040F400004FF00003013A5DDC12F1190F9F
:100C4000DCBF00F000407047C2F10002410021FA11
:100C500002F1C2F1200200FA02FC5FEA310040F129
:100C6000000053EA4C0308BF20EADC70704792F0A2
:100C7000000F00F0004C02BF400010F4000F013ADA
:100C8000F9D040EA0C0093F0000F01F0004C02BFD5
:100C9000490011F4000F013BF9D041EA0C018FE744
:100CA0000CEAD15392EA0C0F18BF93EA0C0F0AD04A
:100CB00030F0004C18BF31F0004CD8D180EA010070
:100CC00000F00040704790F0000F17BF90F0004F09
:100CD000084691F0000F91F0004F14D092EA0C0FEB
:100CE00001D142020FD193EA0C0F03D14B0218BF7E
:100CF000084608D180EA010000F0004040F0FE40C4
:100D000040F40000704740F0FE4040F4400070475F
:100D10004FF0FF0C1CEAD0521EBF1CEAD15392EADE
:100D20000C0F93EA0C0F69D0A2EB030280EA010CCE
:100D300049024FEA402037D04FF0805343EA111167
:100D400043EA10130CF000408B4238BF5B0042F1C5
:100D50007D024FF4000C8B4224BF5B1A40EA0C006A
:100D6000B3EB510F24BFA3EB510340EA5C00B3EB9C
:100D7000910F24BFA3EB910340EA9C00B3EBD10F8A
:100D800024BFA3EBD10340EADC001B0118BF5FEADC
:100D90001C1CE0D1FD2A3FF650AF8B4240EBC25005
:100DA00008BF20F0010070470CF0004C4CEA5020C6
:100DB0007F32C2BFD2F1FF0340EAC250704740F415
:100DC00000004FF00003013A37E792F0000F00F007
:100DD000004C02BF400010F4000F013AF9D040EA85
:100DE0000C0093F0000F01F0004C02BF490011F419
:100DF000000F013BF9D041EA0C0195E70CEAD15311
:100E000092EA0C0F08D142027FF47DAF93EA0C0FF7
:100E10007FF470AF084676E793EA0C0F04D14B02DB
:100E20003FF44CAF08466EE730F0004C18BF31F08D
:100E3000004CCAD130F000427FF45CAF31F0004387
:100E40007FF43CAF5FE700BF4FF0FF3C06E000BF20
:100E50004FF0010C02E000BF4FF0010C4DF804CD43
:100E60004FEA40024FEA41037FEA226C18BF7FEA53
:100E7000236C11D001B052EA530C18BF90EA010F55
:100E800058BFB2EB030088BFC81738BF6FEAE170E4
:100E900018BF40F0010070477FEA226C02D15FEA80
:100EA000402C05D17FEA236CE4D15FEA412CE1D0EC
:100EB0005DF8040B704700BF844608466146FFE7B3
:100EC0000FB5FFF7C9FF002848BF10F1000F0FBD95
:100ED0004DF808EDFFF7F4FF0CBF012000205DF88E
:100EE00008FB00BF4DF808EDFFF7EAFF34BF012013
:100EF00000205DF808FB00BF4DF808EDFFF7E0FFAC
:100F000094BF012000205DF808FB00BF4DF808EDFC
:100F1000FFF7D2FF94BF012000205DF808FB00BF5F
:100F20004DF808EDFFF7C8FF34BF012000205DF841
:100F300008FB00BF4FEA4002B2F1FE4F0FD34FF063
:100F40009E03B3EB12620DD94FEA002343F0004336
:100F500010F0004F23FA02F018BF404270474FF0E4
:100F60000000704712F1610F01D1420205D110F06B
:100F7000004008BF6FF0004070474FF0000070471E
:100F800042000ED2B2F1FE4F0BD34FF09E03B3EBF3
:100F9000126209D44FEA002343F0004323FA02F01F
:100FA00070474FF00000704712F1610F01D142020B
:100FB00002D14FF0FF3070474FF00000704700BF84
:100FC000844641EA000313F0030349D1403A23D396
:100FD0000B6803604B6843608B688360CB68C360B9
:100FE0000B6903614B6943618B698361CB69C361A1
:100FF0000B6A03624B6A43628B6A8362CB6AC36289
:101000000B6B03634B6B43638B6B8363CB6BC36370
:1010100040304031403ADBD230320BD30B680360B2
:101020004B6843608B688360CB68C36010301031BD
:10103000103AF3D20C3205D351F8043B40F8043B8C
:10104000043AF9D2043208D0D2071CBF11F8013B90
:1010500000F8013B01D30B8803806046704700BF56
:10106000082A13D38B07B1D010F00303AED0C3F11D
:101070000403D21ADB071CBF11F8013B00F8013B47
:10108000A4D331F8023B20F8023B9FE7043AD9D3BE
:10109000013A11F8013B00F8013BF9D20B780370DB
:1010A0004B7843708B788370604670474FF0FF3CFD
:1010B00006E000BF4FF0010C02E000BF4FF0010C52
:1010C0004DF804CD4FEA410C7FEA6C5C4FEA430CCB
:1010D00018BF7FEA6C5C1BD001B050EA410C0CBF1A
:1010E00052EA430C91EA030F02BF90EA020F00207C
:1010F000704710F1000F91EA030F58BF994208BFE3
:1011000090422CBFD8176FEAE37040F0010070479F
:101110004FEA410C7FEA6C5C02D150EA013C07D1F6
:101120004FEA430C7FEA6C5CD6D152EA033CD3D041
:101130005DF8040B704700BF8446104662468C463B
:101140001946634600E000BF01B5FFF7B7FF00286E
:1011500048BF10F1000F01BD4DF808EDFFF7F4FF97
:101160000CBF012000205DF808FB00BF4DF808ED22
:10117000FFF7EAFF34BF012000205DF808FB00BF45
:101180004DF808EDFFF7E0FF94BF012000205DF867
:1011900008FB00BF4DF808EDFFF7CEFF94BF01201C
:1011A00000205DF808FB00BF4DF808EDFFF7C4FF15
:1011B00034BF012000205DF808FB00BF4FEA410C5E
:1011C0007FEA6C5C02D150EA013C0AD14FEA430C41
:1011D0007FEA6C5C02D152EA033C02D14FF000007E
:1011E00070474FF0010070474FEA410212F50012BC
:1011F00015D211D56FF47873B3EB625212D94FEA5E
:10120000C12343F0004343EA505311F0004F23FA47
:1012100002F018BF404270474FF00000704750EA9C
:10122000013005D111F0004008BF6FF00040704759
:101230004FF00000704700BF4A0011D212F50012B3
:1012400011D20DD56FF47873B3EB62520ED44FEA1E
:10125000C12343F0004343EA505323FA02F070479E
:101260004FF00000704750EA013002D14FF0FF30DC
:1012700070474FF0000070474FEA40024FEA4103C9
:101280007FEA226C02D15FEA402C08D17FEA236C0E
:1012900002D15FEA412C02D14FF0000070474FF0BD
:1012A0000100704753B94AB9002908BF00281CBF84
:1012B0004FF0FF314FF0FF3000F0AEB9ADF1080C48
:1012C0006DE904CE00F03EF8DDF804E0DDE902232C
:1012D00004B0704738B505460C4600220023284666
:1012E0002146FFF743FF28B928462146BDE838408C
:1012F00000F00AB8284604F1004100F005F8404229
:1013000061EB410138BD00BFD0B500220B4B064652
:101310000F46FFF7D9F8FFF78FFF0446FFF75AF89B
:101320000022074BFFF7D0F802460B4630463946FD
:10133000FEF712FFFFF780FF2146D0BD0000F03D11
:101340000000F0412DE9F047089E0D46044688460E
:10135000002B4DD18A42944668D9B2FA82F252B13A
:1013600001FA02F3C2F1200120FA01F10CFA02FCA9
:1013700041EA030894404FEA1C41B8FBF1F71FFA19
:101380008CFE01FB178807FB0EF0230C43EA084391
:1013900098420AD91CEB030307F1FF3580F01E8148
:1013A000984240F21B81023F63441B1AB3FBF1F0E9
:1013B00001FB103300FB0EFEA4B244EA0344A64531
:1013C0000AD91CEB040400F1FF3380F00981A64523
:1013D00040F20681644402380021A4EB0E0440EA86
:1013E00007401EB10023D440C6E90043BDE8F087A2
:1013F0008B4208D9002E00F0EE800021C6E90005DE
:101400000846BDE8F087B3FA83F100294AD1AB4220
:1014100002D3824200F2FC80841A65EB03030120B0
:101420009846002EE2D0C6E90048DFE702B9FFDEA9
:10143000B2FA82F2002A40F09180A1EB0C00012167
:101440004FEA1C471FFA8CFEB0FBF7F307FB1300B3
:10145000250C45EA00450EFB03F0A84208D91CEB19
:10146000050503F1FF3802D2A84200F2CE804346C0
:101470002D1AB5FBF7F007FB10550EFB00FEA4B2CA
:1014800044EA0544A64508D91CEB040400F1FF35E5
:1014900002D2A64500F2B6802846A4EB0E0440EA2C
:1014A00003409EE7C1F120078B4022FA07FC4CEA7B
:1014B000030C25FA07FA4FEA1C49BAFBF9F820FA9F
:1014C00007F309FB18AA8D401FFA8CFE1D4300FA92
:1014D00001F308FB0EF02C0C44EA0A44A04202FA85
:1014E00001F20BD91CEB040408F1FF3A80F088806C
:1014F000A04240F28580A8F102086444241AB4FB9B
:10150000F9F009FB104400FB0EFEADB245EA0444BD
:10151000A64508D91CEB040400F1FF356CD2A645A2
:101520006AD90238644440EA0840A0FB0295A4EB63
:101530000E04AC42C846AE4656D353D0002E69D0F6
:10154000B3EB080264EB0E0422FA01F304FA07F786
:101550001F43CC40C6E90074002147E70CFA02FCA7
:10156000C2F1200125FA01F34FEA1C4720FA01F1EC
:1015700095400D43B3FBF7F107FB11331FFA8CFEC7
:10158000280C40EA034001FB0EF3834204FA02F404
:1015900008D91CEB000001F1FF382FD283422DD96E
:1015A00002396044C01AB0FBF7F307FB1300ADB279
:1015B00045EA004503FB0EF0A84208D91CEB0505DF
:1015C00003F1FF3816D2A84214D9023B6544281A09
:1015D00043EA014138E73146304607E72F46E4E663
:1015E0001846F9E64B45A9D2B9EB020865EB0C0E9B
:1015F0000138A3E74346EAE7284694E74146D1E7A6
:10160000D0467BE76444023847E7023B65442FE756
:10161000084606E73146E9E6704700BF08B50548C9
:101620000268D36843F01003D360FF22024903F03D
:1016300027F908BDD8120020140B00200FB410B5F4
:1016400082B004AB53F8042B0193084C4FF40071A3
:10165000204604F099F982B22146054802F018FEAE
:1016600002B0BDE8104004B0704700BF180C002065
:10167000D812002070B5054602F050FE694A6A4B48
:10168000D2F80500D2F8091003C3B2F80D10198082
:10169000AB6B1B685C68E4B2E443E4B253793A2B69
:1016A00019D03A2B1ED05F4B1B78702B28D0732B90
:1016B00079D15C4BDB78613B152B21D8DFE803F057
:1016C0004920203920202020322020202020401AAC
:1016D0002020645B20529279312AE2D1534B0122BF
:1016E0001A80E0E74F4B9B79302BDCD14F4B002227
:1016F0001A80D8E74E494C4804F0F6F84D4B186074
:10170000484BDB78613B152B4DD8DFE803F06F4C7D
:101710004C5F4C4C4C4C584C4C4C4C4C66464C4CD6
:10172000784C4C814249404804F0DEF8414B586007
:10173000E6E73F493C4804F0D7F83E4B9860DFE7C6
:101740003B49394804F0D0F8FFF7F4FB394BD86037
:10175000D6E73749344804F0C7F8FFF7EBFB354BC1
:101760001861CDE73249304804F0BEF8FFF7E2FBDC
:10177000304B5861C4E72E492B4804F0B5F8FFF709
:10178000D9FB2C4B9861BBE72949274804F0ACF8FA
:10179000FFF7D0FB274BD861B2E72549224804F078
:1017A000A3F8244B18621F4E22460021304603F056
:1017B000ADF8FF223146284603F062F870BD1C499F
:1017C000194804F091F81B4B5862ECE71849164889
:1017D00004F08AF8174B9862E5E71549124804F0BF
:1017E00083F8FFF7A7FB134BD862DCE710490E48DC
:1017F00004F07AF8FFF79EFB0E4B1863D3E70C4911
:10180000094804F071F8FFF795FB0A4B5863CAE7E3
:101810000749054804F068F8FFF78CFB054B98630F
:10182000C1E700BF140B0020D8090020180E0020CB
:10183000140C0020D80A002003680B4A934200D001
:1018400070471A6812F0100FFAD000B583B000226A
:1018500001921A6801925B680193019BFFF70AFFEE
:1018600003B05DF804FB00BF004800402DE9F843D9
:10187000304D284602F02EF8DFF8BC90042148468F
:1018800002F09CFB2D4E01224FF40041304601F046
:1018900037FC00224FF48041304601F031FC00213A
:1018A000284602F01DFB264F4FF00008C7F82480A1
:1018B0002B6800245C63D9F800305C62DFF8849008
:1018C0000421484602F07AFB01224FF400513046D1
:1018D00001F016FC22464FF48051304601F010FC16
:1018E0000421284602F0FCFAC7F824802B689C6388
:1018F000D9F800305C62144E0421304602F05EFBE1
:10190000DFF8489001224FF40061484601F0F8FBEF
:1019100022464FF48061484601F0F2FB0821284638
:1019200002F0DEFAC7F824802B68DC6333685C625F
:10193000BDE8F8833C11002064100020000C014039
:10194000C00F0020AC100020F4100020000801405F
:1019500038B5022822D0032839D0012805D0284BD9
:101960001868FFF7E7FA00B238BD264B1D682B68F0
:10197000C3F30013244A13806C6A24B22046FFF795
:10198000BFF801461E4B1860204B1C80204C20687D
:10199000FFF702F8206000236B62E0E71D4B1D6833
:1019A0002B68C3F30013184A13806C6A24B22046D4
:1019B000FFF7A6F80146124B1860174B1C80174C16
:1019C0002068FEF7E9FF206000236B62C7E7144B35
:1019D0001D682B68C3F300130B4A13806C6A24B292
:1019E0002046FFF78DF80146054B18600D4B1C8013
:1019F0000D4C2068FEF7D0FF206000236B62AEE73D
:101A00002C100020641000201A0E00203C10002032
:101A10001C100020AC1000203E10002014100020EC
:101A2000F4100020401000201810002000000000DA
:101A300008B50949FFF7B8F8FEF7EEFC04A3D3E9AF
:101A40000023FEF76BFEFEF751FF08BDAFF30080E9
:101A50006766666666662A400000704208B50948F7
:101A600000F0D6FA084800F0D3FA084800F0D0FA9F
:101A7000074800F0CDFA074800F0CAFA064800F01F
:101A8000C7FA08BDC00F0020C40E0020180F0020A8
:101A90001C0E00206C0F0020700E002008B5FFF710
:101AA000E5FEFFF7DBFF08BDF8B52F4C2F4BE364D5
:101AB0002F4D4FF080432B6000276F602D4BAB60A4
:101AC0002D4BEB642D4B1B686B622D4B23602D4B14
:101AD00063602D4BA3600120FFF73AFFFFF710F87A
:101AE0002A4E3060FFF7A4FF3060294B1968284662
:101AF00000F010FA284600F03DFAEB6963623168A5
:101B0000204600F007FA204600F034FA3946E06932
:101B1000FFF7E8F9A0B91F4C01224FF4004120461D
:101B200001F0EEFA00224FF48041204601F0E8FA7D
:101B3000194B1C680C4BD869FFF722FA6063F8BD9B
:101B4000144C00224FF40041204601F0D9FA012242
:101B50004FF48041204601F0D3FA034AD36903F1E0
:101B60000043D361E4E700BFC00F00200000E14361
:101B7000C40E00209A99993E0080A64328100020A8
:101B800000004040AE47E13DCDCC4C3D3810002038
:101B90001C100020000C01403C110020F8B52F4C17
:101BA0002F4B23602F4B63602F4BA3602F4BE364BD
:101BB0002F4D4FF080432B6000276F602D4BAB60A3
:101BC0002D4BEB642D4B1B686B620220FFF7C0FEB0
:101BD000FEF796FF2A4E3060FFF72AFF3060294B50
:101BE0001968284600F096F9284600F0C3F9EB6919
:101BF00063623168204600F08DF9204600F0BAF9A2
:101C00003946E069FFF76EF9A0B91F4C00224FF486
:101C10000051204601F074FA01224FF48051204611
:101C200001F06EFA194B1C680C4BD869FFF7A8F944
:101C3000A063F8BD144C01224FF40051204601F07E
:101C40005FFA00224FF48051204601F059FA034A0E
:101C5000D36903F10043D361E4E700BF180F00200C
:101C600066664640B81E053ECDCC4C3D0000E143C3
:101C70001C0E00209A99993E0080A6432010002057
:101C80003010002014100020000C01403C110020F6
:101C9000F8B52F4C2F4B23602F4B63602F4BA36065
:101CA0002F4BE3642F4D4FF080432B6000276F6074
:101CB0002D4BAB602D4BEB642D4B1B686B620320EF
:101CC000FFF746FEFEF71CFF2A4E3060FFF7B0FE1E
:101CD0003060294B1968284600F01CF9284600F0AE
:101CE00049F9EB6963623168204600F013F9204638
:101CF00000F040F93946E069FFF7F4F8A0B91F4C4D
:101D000000224FF40061204601F0FAF901224FF45D
:101D10008061204601F0F4F9194B1C680C4BD8691E
:101D2000FFF72EF9E063F8BD144C01224FF4006177
:101D3000204601F0E5F900224FF48061204601F0D1
:101D4000DFF9034AD36903F10043D361E4E700BF3D
:101D50006C0F002066664640B81E053ECDCC4C3D5B
:101D60000000E143700E00209A99993E0080A6433E
:101D7000241000203410002018100020000801401A
:101D80003C1100200D4B834200D0704700B583B05A
:101D9000FFF78AFEFFF702FFFFF77AFF084B1B7879
:101DA0000093084B1B78084A1278084909780848BC
:101DB000FFF744FC03B05DF804FB00BF3C110020BA
:101DC0004210002043100020451000204410002045
:101DD000A8C400083C4B1B780BB92C280BD0012B56
:101DE00014D0022B1FD0032B45D00023364A13708A
:101DF000364A137064E0344B01221A70334A137868
:101E0000591C1170324A22F8130070471228E8D189
:101E10002D4B02221A702D4A1378591C11702C4A2E
:101E200022F81300704729490A78531CDBB20B7063
:101E3000274921F81200092B01D85B2842D1224AF8
:101E400003211170234A01211170591F204A32F8D1
:101E5000110021490870191F32F811001F4908703C
:101E6000D91E32F811001E490870023B32F81320C7
:101E70001C4B1A707047154B1B78013B144A32F803
:101E800013305B2B05D000230F4A13700F4A1370D9
:101E90000DE000230F4A13700C4A13700A4A1370A6
:101EA00070470B4A002122F813100133DBB2092BD3
:101EB000F7D97047064A002122F813100133DBB22C
:101EC000092BF7D9704700BF5E1000205C1000207E
:101ED000481000205D100020441000204510002014
:101EE000431000204210002008B50268064B9A42B9
:101EF00005D001220549064802F069FC08BD034BE4
:101F00001878FFF767FFF4E7004800405F100020F3
:101F1000D812002070B50446816203694361C3682A
:101F20000361406AFEF736FD0546E060666C3146A7
:101F3000FEF7D8FF38B106F100412846FEF7F0FF62
:101F400008B10023E360A169E068FEF725FD0546BE
:101F5000A061A66C3146FEF7E3FF08B1A66170BD33
:101F600006F1004631462846FEF7BCFF0028F6D0B1
:101F7000A661F4E7F8B50446C66831460068FEF786
:101F800013FE0546A76821693046FEF703FD0146AA
:101F90003846FEF709FE01462846FEF7FDFC0546D9
:101FA000E0616168A069FEF7FFFD01462846FEF783
:101FB000F3FCE061E56C2946FEF7A8FF00B1E5619E
:101FC00005F100452946E069FEF796FF00B1E5619D
:101FD000256A2946E069FEF7DDFC266D3146FEF7ED
:101FE0009FFF20B131462846FEF7D6FCE061294626
:101FF000E069FEF7CFFC06F10041FEF773FF20B168
:1020000031462846FEF7C6FCE061E0692062F8BD73
:10201000124B0360124B436000238360C360036173
:1020200043618361C361036243628362012280F87A
:102030002C20036343634FF07E5181630949C163E0
:1020400080F84020002280F841204364064B8364DE
:10205000064BC364064B0365704700BF0000204178
:10206000CDCCCC3D0000704100803B4500401F4678
:102070000080474500B583B0164B5A6942F0010213
:102080005A615B6903F001030193019B0022114631
:102090000C2000F033FD0C2000F068FD00221146FA
:1020A0000D2000F02BFD0D2000F060FD00221146F8
:1020B000102000F023FD102000F058FD00221146F2
:1020C000112000F01BFD112000F050FD03B05DF861
:1020D00004FB00BF001002402DE9F04389B000244A
:1020E00004940594069407942F4B9A6942F01002C9
:1020F0009A619A6902F010020092009A9A6942F07D
:1021000020029A619A6902F020020192019A9A696A
:1021100042F004029A619A6902F004020292029A61
:102120009A6942F008029A619B6903F008030393DD
:10213000039BDFF8789022464FF40051484600F0A8
:10214000DFFFDFF86C8022464FF47041404600F01C
:10215000D7FF184F22464FF44061384600F0D0FFB9
:102160004FF4005304930126059606940225079523
:1021700004A9484600F0B2FE4FF47043049305965C
:102180000694079504A9404600F0A8FE4FF440636A
:10219000049305960694079504A9384600F09EFE20
:1021A00009B0BDE8F08300BF0010024000100140FC
:1021B000000C01400008014072B6FEE700B591B086
:1021C0002822002106A802F0A1FB0023019302931C
:1021D000039304930593012206924FF480330793EF
:1021E0000A9202220D920E934FF4E0130F9306A869
:1021F00000F0A2FF80B90F23019302210291002376
:1022000003934FF480620492059301A801F0D4F97E
:1022100020B911B05DF804FBFFF7CEFFFFF7CCFF4C
:1022200008B500F035FCFFF7C9FFFFF755FFFFF7D2
:1022300021FF00F0F3F800F025F900F055F900F067
:102240004BFA00F0C1FA00F0D9FA054801F042FB60
:10225000FFF7E4F9FFF722FCFFF708FBFEE700BFFA
:102260003C11002082B00E4B9A6942F001029A6143
:102270009A6902F001020092009ADA6942F08052F3
:10228000DA61DB6903F080530193019B054A5368CF
:1022900023F0E06343F00073536002B0704700BF67
:1022A0000010024000000140FEE7FEE7FEE7FEE707
:1022B000FEE770477047704708B500F0FBFB08BDAC
:1022C00008B5024800F068FD08BD00BF50120020AC
:1022D00008B5024800F060FD08BD00BF0C120020E8
:1022E00008B5024800F058FD08BD00BF8411002069
:1022F00008B5024800F050FD08BD00BFC81100201D
:1023000008B5024801F01FFB08BD00BFAC1000205B
:1023100008B5024801F017FB08BD00BFF41000200B
:1023200008B5024801F00FFB08BD00BF3C110020BA
:1023300008B5024802F0F2F808BD00BF9412002070
:1023400010B5054C204602F0E9F82046FFF774FA74
:102350002046FFF78FF910BDD812002001207047EA
:1023600008B502F0A9FA162303604FF0FF3008BD4C
:1023700008B54FF0FF31FFF7F3FFFEE770B50C46ED
:102380001646002506E0AFF30080214601F8010B58
:1023900001350C46B542F6DB304670BD70B50C46D3
:1023A0001646002504E014F8010BAFF30080013558
:1023B000B542F8DB304670BD4FF0FF3070474FF448
:1023C00000534B6000207047012070470020704789
:1023D00010B503460C4A0D490D48006840B10C4841
:1023E00000680344521A934206D8094A136010BD8C
:1023F0000748084C0460F2E702F05EFA0C23036021
:102400004FF0FF30F3E700BF005000200004000051
:1024100060100020681300207047000000B58DB0E8
:102420002422002103A802F071FA002301930293F1
:102430001248134A0260436083604FF6FF72C26025
:102440000361436180238361032303930123059385
:10245000099303A901F0C6FB50B90023019302932D
:1024600001A9064801F010FE28B90DB05DF804FB83
:10247000FFF7A2FEF1E7FFF79FFEF6E764100020EA
:10248000002C014000B58DB02422002103A802F0E9
:102490003DFA00230193029312484FF080420260FC
:1024A000436083604FF6FF72C260036180238361E3
:1024B0000323039301230593099303A901F092FBDE
:1024C00050B900230193029301A9064801F0DCFDF5
:1024D00028B90DB05DF804FBFFF76EFEF1E7FFF7DA
:1024E0006BFEF6E7AC10002000B58DB02422002171
:1024F00003A802F00BFA0023019302931248134A37
:102500000260436083604FF6FF72C2600361802304
:1025100083610323039301230593099303A901F026
:1025200061FB50B900230193029301A9064801F011
:10253000ABFD28B90DB05DF804FBFFF73DFEF1E7F8
:10254000FFF73AFEF6E700BFF41000200004004059
:1025500000B58BB000230693079308930993036893
:10256000354A934208D0B3F1804F20D0334A93428A
:1025700040D00BB05DF804FB314B9A6942F4006225
:102580009A619A6902F400620092009A9A6942F094
:1025900004029A619B6903F004030193019B4FF4C9
:1025A0004073069306A9274800F098FCE1E703F57D
:1025B0000433DA6942F00102DA61DA6902F00102F9
:1025C0000292029A9A6942F004029A619B6903F0AE
:1025D00004030393039B0323069306A9194800F001
:1025E0007DFC002211461C2000F088FA1C2000F01F
:1025F000BDFABEE7124BDA6942F00202DA61DA692B
:1026000002F002020492049A9A6942F004029A616A
:102610009B6903F004030593059BC023069306A959
:10262000084800F05BFC002211461D2000F066FA0D
:102630001D2000F09BFA9CE7002C014000040040A4
:10264000001002400008014002680E4B9A4200D080
:10265000704700B583B003F50233DA6942F0040233
:10266000DA61DB6903F004030193019B002201217D
:102670001E2000F043FA1E2000F078FA03B05DF847
:1026800004FB00BF0008004000B587B000230293A0
:1026900003930493059302680D4B9A4202D007B04E
:1026A0005DF804FB03F502339A6942F008029A616F
:1026B0009B6903F008030193019B4FF4707302932D
:1026C00002230393059302A9024800F007FCE6E702
:1026D00000080040000C014000B58FB000230A93B1
:1026E0000B930C930D930893099301930293039317
:1026F00004930593069307933148324A026040F2EF
:102700009F524260836040F2F312C26003618023F3
:10271000836101F00FFA002839D14FF480530A93F6
:102720000AA9274801F060FB002833D1244801F0B2
:102730002DFA002831D100230893099308A92048D5
:1027400001F0A2FC60BB602301930022029203927D
:10275000059201A91A4801F0D3FA20BB04220DEB1F
:102760000201174801F0CCFA00BB082201A9144865
:1027700001F0C6FAE8B90C2201A9114801F0C0FA2B
:10278000D0B90F48FFF780FF0FB05DF804FBFFF7EB
:1027900013FDC2E7FFF710FDC8E7FFF70DFDCAE71D
:1027A000FFF70AFDCFE7FFF707FDD7E7FFF704FDC7
:1027B000DBE7FFF701FDDEE7FFF7FEFCE1E700BF27
:1027C0003C1100200008004008B50A480A4B03608D
:1027D0004FF41653436000238360C36003610C22EF
:1027E00042618361C36101F023FD00B908BDFFF7B9
:1027F000E3FCFBE7941200200044004008B50A48BF
:102800000A4B03604FF4E133436000238360C360ED
:1028100003610C2242618361C36101F009FD00B9CB
:1028200008BDFFF7C9FCFBE7D812002000480040B4
:1028300070B588B00446002304930593069307936C
:102840000368604A934204D05F4A93425CD008B068
:1028500070BD5E4BDA6942F40032DA61DA6902F483
:1028600000320092009A9A6942F004029A619B69D0
:1028700003F004030193019B0423049302230593B3
:1028800003230793524E04A9304600F027FB082388
:10289000049300250595069504A9304600F01EFB1B
:1028A0004C484D4B0360456085608023C3600561E3
:1028B000456120238361C56100F090F9F0B9454B73
:1028C000A3635C624548464B0360102343600023CA
:1028D00083608022C260036143618361C36100F051
:1028E0007DF970B93D4B63635C620022114626207E
:1028F00000F004F9262000F039F9A8E7FFF75CFCA6
:10290000DDE7FFF759FCEDE7304BDA6942F480224E
:10291000DA61DA6902F480220292029A9A6942F03C
:1029200008029A619B6903F008030393039B4FF429
:10293000806304930223059303230793294E04A97C
:10294000304600F0CBFA4FF4006304930025059560
:10295000069504A9304600F0C1FA2348234B0360D2
:10296000456085608023C3600561456120238361E4
:10297000C56100F033F9F0B91B4BA3635C621C48DE
:102980001C4B036010234360002383608022C260DD
:10299000036143618361C36100F020F970B9144B96
:1029A00063635C6200221146272000F0A7F827200D
:1029B00000F0DCF84BE7FFF7FFFBDDE7FFF7FCFB80
:1029C000EDE700BF00440040004800400010024016
:1029D00000080140841100206C000240C811002052
:1029E00080000240000C01400C1200203000024028
:1029F000501200201C0002400C480D490D4A0023D3
:102A000002E0D458C4500433C4188C42F9D30A4AA3
:102A10000A4C002301E013600432A242FBD3FFF70B
:102A2000FBFC01F04FFFFFF7FBFB704700000020AD
:102A3000BC090020E8CA0008BC0900206813002077
:102A4000FEE7000010B504460E4B18784FF47A7379
:102A5000B3FBF0F30C4A1068B0FBF3F000F094F80D
:102A600068B90F2C01D901200AE0002221464FF05D
:102A7000FF3000F043F8054B1C60002000E001200F
:102A800010BD00BF0400002000000020080000204E
:102A900008B5074A136843F010031360032000F0E1
:102AA0001BF80F20FFF7CEFFFFF7DCFB002008BD6F
:102AB00000200240034A1168034B1B780B4413604B
:102AC000704700BF1C13002004000020014B186851
:102AD000704700BF1C130020074AD36823F4E0634B
:102AE0001B041B0C000200F4E060034343F0BF63CF
:102AF00043F40033D360704700ED00E000B5194B9C
:102B0000DB68C3F30223C3F1070CBCF1040F28BF39
:102B10004FF0040C03F1040EBEF1060F18D9033B6D
:102B20004FF0FF3E0EFA0CFC21EA0C0199400EFA20
:102B300003F322EA0303194300280BDB0901C9B29E
:102B400000F1604000F5614080F800135DF804FB7F
:102B50000023E5E700F00F000901C9B2024B195448
:102B6000F4E700BF00ED00E014ED00E0002807DB13
:102B700000F01F02400901239340024A42F820302E
:102B8000704700BF00E100E00138B0F1807F0BD258
:102B90004FF0E0235861054AF02182F8231000200D
:102BA000986107221A6170470120704700ED00E02C
:102BB00030B40124056CAC40C56B6C600468636084
:102BC0004368102B05D0036899600368DA6030BC55
:102BD000704703689A600368D960F8E760B310B47F
:102BE00002460168154B0B441548A0FB03031B0963
:102BF0009B001364134BD363022382F821300868CF
:102C000020F47F5020F03000536894682343D46848
:102C10002343146923435469234394692343D469A8
:102C2000234303430B6000209063012382F821308B
:102C300082F8200010BC704701207047F8FFFDBFEC
:102C4000CDCCCCCC0000024038B5044690F8200032
:102C5000012831D0012084F8200094F821000128B7
:102C600004D0002384F82030022038BD022084F8EC
:102C700021000020A0632568286820F0010028605A
:102C80002046FFF795FFE36A5BB12268136843F0C3
:102C90000E0313602268136843F0010313600020E1
:102CA000E3E72268136823F00403136022681368C3
:102CB00043F00A031360EDE70220D6E790F82130D5
:102CC000022B06D004238363002380F820300120E8
:102CD00070470268136823F00E03136002681368DC
:102CE00023F001031360036CC16B012202FA03F3AA
:102CF0004B6080F82120002380F820301846704770
:102D000008B590F82130022B03D0042383630120FF
:102D100008BD0268136823F00E031360026813688D
:102D200023F0010313600368194A934214D014324C
:102D300093421FD0143293421ED0143293421ED0BD
:102D4000143293421ED01432934202D04FF080725C
:102D500003E04FF4801200E001220E4B5A60012381
:102D600080F82130002380F82030436B6BB1984706
:102D70000020CDE71022F0E74FF48072EDE74FF42A
:102D80008052EAE74FF48032E7E70020C0E700BF57
:102D9000080002400000024038B5C36B1A6804689E
:102DA0002568016C04238B40134235D015F0040FC5
:102DB00032D0236813F0200F03D1236823F00403DB
:102DC00023600368434A934214D01432934218D0CC
:102DD0001432934217D01432934217D014329342D4
:102DE00017D01432934202D04FF0806203E04FF4C8
:102DF000800200E00422384B5A60C36A03B198474E
:102E000038BD4022F7E74FF48062F4E74FF4804288
:102E1000F1E74FF48022EEE702238B4013423CD0CF
:102E200015F0020F39D0236813F0200F06D1236864
:102E300023F00A032360012380F821300368254A28
:102E4000934214D0143293421CD0143293421BD0BC
:102E5000143293421BD0143293421BD0143293424B
:102E600002D04FF0007203E04FF4001200E00222A3
:102E7000194B5A60002380F82030836A002BBFD0A2
:102E80009847BDE72022F3E74FF40072F0E74FF4D4
:102E90000052EDE74FF40032EAE7082303FA01F1AC
:102EA0001142ADD015F0080FAAD0236823F00E030D
:102EB0002360026CC16B012303FA02F24A60836350
:102EC00080F82130002380F82030036B002B97D04E
:102ED000984795E7080002400000024070B582B0B4
:102EE0000024A446A6E0804DAA4210D007D97F4D09
:102EF000AA420CD005F58035AA4208D013E0A5F50A
:102F00008015AA4203D005F57025AA4207D18A6828
:102F1000002A58D0012A51D04361082403E0A5F5C6
:102F20008015AA42F3D0BEF1FF0F4ED80646BEF17F
:102F3000FF0F4CD84FEA8C0233680F25954023EAE7
:102F4000050304FA02F2134333604B6813F0805F09
:102F50006ED0674B9A6942F001029A619B6903F057
:102F600001030193019B4FEA9C02951C614B53F8AE
:102F700025600CF003039D000F23AB4026EA0306F7
:102F80005D4B984229D003F58063984200F08E8013
:102F900003F58063984200F08B8003F580639842CC
:102FA00019D004231AE0CC68BDE7CC680434BAE732
:102FB000CC680834B7E7CC680C34B4E70361082464
:102FC000B1E70024AFE70424ADE7061DAFE7ACF19D
:102FD00008029200B0E7032300E00023AB40334334
:102FE0000232444D45F822304B6813F4803F61D0E3
:102FF000424A136843EA0E0313604B6813F4003F20
:103000005ED03E4A536843EA0E0353604B6813F4A4
:10301000801F5BD0394A936843EA0E0393604B6884
:1030200013F4001F58D0354AD36843EA0E03D36027
:103030000CF1010C0A6832FA0CF353D0012303FAA5
:103040000CF302EA030E33EA0202F1D14A68122AB3
:103050003FF649AF122A3FF666AF01A555F822F0B8
:103060000F2F0008A72F0008B12F0008C32F00085A
:10307000272F0008272F0008272F0008272F0008D8
:10308000272F0008272F0008272F0008272F0008C8
:10309000272F0008272F0008272F0008272F0008B8
:1030A000272F0008AB2F0008B72F0008012395E752
:1030B000022393E7114A136823EA0E0313609CE787
:1030C0000E4A536823EA0E0353609FE70B4A936846
:1030D00023EA0E039360A2E7084AD36823EA0E03AB
:1030E000D360A5E702B070BD0000221000003110CF
:1030F00000100240000001400008014000040140AF
:103100000AB10161704709040161704782B0084B40
:103110001B68084AA2FB03235B0A00FB03F301932D
:1031200000BF019B5A1E0192002BF9D102B07047DB
:1031300000000020D34D6210002800F0F18170B52E
:1031400082B00446036813F0010F2CD0994B5B68E2
:1031500003F00C03042B1DD0964B5B6803F00C03AB
:10316000082B12D06368B3F5803F41D0002B55D1B6
:1031700003F1804303F504331A6822F480321A60A5
:103180001A6822F480221A6037E08A4B5B6813F4D5
:10319000803FE7D0874B1B6813F4003F03D0636880
:1031A000002B00F0BF81236813F0020F75D0814B14
:1031B0005B6813F00C0F5FD07E4B5B6803F00C0371
:1031C000082B54D02369002B00F08A807A4B01220F
:1031D0001A60FFF77BFC0546764B1B6813F0020F65
:1031E00075D1FFF773FC401B0228F5D903209EE13F
:1031F000704A136843F480331360636843B3FFF786
:1032000065FC05466B4B1B6813F4003FCBD1FFF701
:103210005DFC401B6428F5D9032088E1B3F5A02F9D
:1032200009D0644B1A6822F480321A601A6822F4BA
:1032300080221A60E1E703F18043A3F53C331A686A
:1032400042F480221A601A6842F480321A60D4E78D
:10325000FFF73CFC0546574B1B6813F4003FA2D018
:10326000FFF734FC401B6428F5D903205FE1514B84
:103270005B6813F4803FA5D14E4B1B6813F0020F1F
:1032800003D02369012B40F04F814A4A136823F091
:10329000F803616943EAC1031360236813F0080F60
:1032A00033D0A369002B5CD0434B0122C3F88024A8
:1032B000FFF70CFC05463F4B5B6A13F0020F21D170
:1032C000FFF704FC401B0228F5D903202FE1394AFF
:1032D000136823F0F803616943EAC1031360DCE774
:1032E000354B00221A60FFF7F1FB0546314B1B6896
:1032F00013F0020FD1D0FFF7E9FB401B0228F5D9EC
:10330000032014E10120FFF701FF236813F0040FED
:1033100000F09680274BDB6913F0805F34D1254B9A
:10332000DA6942F08052DA61DB6903F0805301937D
:10333000019B0125214B1B6813F4807F26D0E36895
:10334000012B3DD0002B53D103F1804303F504330F
:103350001A6A22F001021A621A6A22F004021A6240
:1033600033E0154B0022C3F88024FFF7AFFB05467E
:10337000104B5B6A13F0020FC7D0FFF7A7FB401B8F
:103380000228F5D90320D2E00025D3E70B4A1368C1
:1033900043F480731360FFF799FB0646074B1B68E5
:1033A00013F4807FCBD1FFF791FB801B6428F5D904
:1033B0000320BCE0001002400000424200700040C8
:1033C0005F4A136A43F001031362E36833B3FFF704
:1033D0007DFB06465A4B1B6A13F0020F2FD1FFF7F5
:1033E00075FB801B41F288339842F3D903209EE09D
:1033F000052B09D0524B1A6A22F001021A621A6A8E
:1034000022F004021A62E0E74D4B1A6A42F004020D
:103410001A621A6A42F001021A62D6E7FFF756FBF7
:103420000646474B1B6A13F0020F08D0FFF74EFB0E
:10343000801B41F288339842F3D9032077E0E5B945
:10344000E369002B72D03E4A526802F00C02082A4F
:1034500056D0022B17D03B4B00221A66FFF736FBE3
:103460000446374B1B6813F0007F47D0FFF72EFB55
:10347000001B0228F5D9032059E0314AD36923F013
:103480008053D361DCE72F4B00221A66FFF71EFB47
:1034900005462B4B1B6813F0007F06D0FFF716FB89
:1034A000401B0228F5D9032041E0236AB3F5803F91
:1034B0001AD023494B6823F47413226A606A0243CA
:1034C00013434B601F4B01221A66FFF7FFFA0446B5
:1034D0001B4B1B6813F0007F0ED1FFF7F7FA001BA0
:1034E0000228F5D9032022E0154A536823F400335B
:1034F000A1680B435360DCE7002018E0002016E0D1
:10350000012B16D00E4B5B6803F48031226A914286
:1035100011D103F47013626A93420ED1002006E0C9
:1035200001207047012002E0012000E0002002B0ED
:1035300070BD0120FBE70120F9E70120F7E700BF9C
:10354000001002400000424286B0174B0FCB0DF135
:10355000180C0CE90F0040F20123ADF80430134BB6
:103560005B6803F00C02082A02D0114806B07047CD
:10357000C3F3834218326A4412F8100C13F4803FEC
:103580000DD00A4B5B68C3F3404318336B4413F808
:10359000143C074A02FB00F0B0FBF3F0E6E7054BF2
:1035A00003FB00F0E2E700BFD0C4000800100240B7
:1035B00000127A0000093D00002800F0A08070B5DC
:1035C0000D460446524B1B6803F007038B420BD297
:1035D0004F4A136823F007030B431360136803F08B
:1035E00007038B4240F08D80236813F0020F17D041
:1035F00013F0040F04D0474A536843F4E063536068
:10360000236813F0080F04D0424A536843F4605310
:103610005360404A536823F0F003A1680B435360A2
:10362000236813F0010F31D06368012B20D0022BE7
:1036300025D0384A126812F0020F64D035494A6822
:1036400022F0030213434B60FFF740FA0646314B6A
:103650005B6803F00C036268B3EB820F16D0FFF7D0
:1036600035FA801B41F288339842F0D9032045E0B7
:10367000284A126812F4003FE0D101203EE0254ABA
:10368000126812F0007FD9D1012037E0204B1B686F
:1036900003F00703AB420AD91D4A136823F007035E
:1036A0002B431360136803F00703AB422DD123684B
:1036B00013F0040F06D0174A536823F4E063E1685F
:1036C0000B435360236813F0080F07D0114A536867
:1036D00023F46053216943EAC1035360FFF734FFC9
:1036E0000C4B5B68C3F303130B4AD35CD8400B4B02
:1036F00018600B4B1868FFF7A5F9002070BD01207A
:1037000070470120FAE70120F8E70120F6E700BF43
:103710000020024000100240B8C400080000002051
:1037200008000020014B1868704700BF000000200F
:1037300008B5FFF7F7FF044B5B68C3F30223034AA6
:10374000D35CD84008BD00BF00100240C8C40008C8
:1037500008B5FFF7E7FF044B5B68C3F3C223034AD6
:10376000D35CD84008BD00BF00100240C8C40008A8
:1037700070B4036A23F001030362036A4668826936
:1037800022F073020C6844EA020523F002028B68FF
:1037900013430D4CA04209D00B4CA0420DD0466003
:1037A00085614A684263036270BC704723F0080376
:1037B000CA68134323F00403EEE726F440764A690F
:1037C00032438E691643EAE7002C014030B4036AA5
:1037D00023F480730362036A4568C26922F07302AE
:1037E0000C68224323F400738C6843EA04230F4CD3
:1037F000A04209D00D4CA0420ED04560C2614A687B
:10380000C263036230BC704723F40063CC6843EAB0
:10381000042323F48063EDE725F440554C6945EA21
:1038200004158C6945EA0415E7E700BF002C014048
:1038300030B4036A23F480530362036A4468C269A4
:1038400022F4E6420D6842EA052223F400538D6813
:1038500043EA0533074DA84206D04460C2614A6876
:103860000264036230BC704724F480444D6944EA2A
:103870008514F2E7002C014010B4036A046A24F0B6
:1038800001040462846924F0F00C4CEA021223F073
:103890000A030B438261036210BC704710B4046AD0
:1038A00024F0100404628469036A24F4704C4CEA26
:1038B000023223F0A00343EA01138261036210BCC9
:1038C0007047836823F070030B4343F00703836062
:1038D0007047000090F83D30DBB2012B27D1022366
:1038E00080F83D300268D36843F00103D360036879
:1038F000114A934210D0B3F1804F0DD0A2F594320B
:10390000934209D002F58062934205D01A6842F0D2
:1039100001021A60002070479A6802F00702062A26
:1039200007D01A6842F001021A6000207047012097
:1039300070470020704700BF002C0140704770475F
:1039400070477047704710B5044603681A6912F053
:10395000020F11D0DA6812F0020F0DD06FF00202E0
:103960001A610123037703689B6913F0030F70D07A
:10397000FFF7E6FF0023237723681A6912F0040F8C
:1039800012D0DA6812F0040F0ED06FF004021A6140
:103990000223237723689B6913F4407F5FD020467E
:1039A000FFF7CEFF0023237723681A6912F0080F70
:1039B00012D0DA6812F0080F0ED06FF008021A6108
:1039C000042323772368DB6913F0030F4ED02046CE
:1039D000FFF7B6FF0023237723681A6912F0100F50
:1039E00012D0DA6812F0100F0ED06FF010021A61C8
:1039F000082323772368DB6913F4407F3DD02046FA
:103A0000FFF79EFF0023237723681A6912F0010F46
:103A100003D0DA6812F0010F36D123681A6912F068
:103A2000800F03D0DA6812F0800F34D123681A694E
:103A300012F0400F03D0DA6812F0400F32D1236841
:103A40001A6912F0200F03D0DA6812F0200F30D17B
:103A500010BDFFF774FF2046FFF773FF8AE720468B
:103A6000FFF76DFF2046FFF76CFF9BE72046FFF74F
:103A700066FF2046FFF765FFACE72046FFF75FFFD4
:103A80002046FFF75EFFBDE76FF001021A61204696
:103A9000FEF778F9C1E76FF080021A61204600F066
:103AA0002AFBC3E76FF040021A612046FFF74AFF86
:103AB000C5E76FF020021A61204600F01BFBC7E744
:103AC00003681B4A90420AD0B0F1804F07D0A2F59C
:103AD0009432904203D002F58062904203D123F0E9
:103AE00070034A681343124A90420AD0B0F1804FE3
:103AF00007D0A2F59432904203D002F58062904242
:103B000003D123F44073CA68134323F080034A6946
:103B1000134303608B68C3620B688362044B984253
:103B200002D00123436170470B690363F9E700BFCB
:103B3000002C014040B310B5044690F83D30F3B17D
:103B4000022384F83D30214651F8040BFFF7B8FFFB
:103B5000012384F8463084F83E3084F83F3084F8FE
:103B6000403084F8413084F8423084F8433084F89F
:103B7000443084F8453084F83D30002010BD80F892
:103B80003C30FEF761FDDBE70120704740B310B524
:103B9000044690F83D30F3B1022384F83D302146CD
:103BA00051F8040BFFF78CFF012384F8463084F8AA
:103BB0003E3084F83F3084F8403084F8413084F857
:103BC000423084F8433084F8443084F8453084F837
:103BD0003D30002010BD80F83C30FFF7AFFEDBE742
:103BE00001207047002857D070B50D46044690F864
:103BF0003D30002B4BD0022384F83D30226893687F
:103C000023F4804323F007039360214651F8040B0B
:103C1000FFF756FF21688A688B690E6A286810438F
:103C200023F4407C2CF0030CAA68AB6942EA03231E
:103C300043EA0C0323F47C4323F0FC03EA69D5F840
:103C40000CC04CEA022C4CEA030C2A6A13032A69C2
:103C500043EA021343EA0C0326F022066A686D6900
:103C600042EA05123243886021688B6123681A6238
:103C7000012384F8463084F83E3084F83F3084F8DD
:103C8000423084F8433084F83D30002070BD80F825
:103C90003C30FEF75DFCAEE70120704730B4036AAC
:103CA00023F010030362036A4468826922F4E64247
:103CB0000D6842EA052223F020038D6843EA0513CC
:103CC0000E4DA84209D00D4DA8420ED0446082612D
:103CD0004A688263036230BC704723F08003CD687A
:103CE00043EA051323F04003EDE724F440644D69F3
:103CF00044EA85048D6944EA8504E7E7002C014025
:103D000038B590F83C30012B60D004460D460123B5
:103D100080F83C300C2A1AD8DFE802F0071919198C
:103D20001D1919193119191944000068FFF720FDF0
:103D30002268936943F0080393612268936923F032
:103D4000040393612268936929690B4393610020FE
:103D500084F83C0038BD0068FFF7A0FF2268936933
:103D600043F4006393612268936923F48063936151
:103D700022689369296943EA01239361E7E70068B0
:103D8000FFF724FD2268D36943F00803D36122685A
:103D9000D36923F00403D3612268D36929690B43F3
:103DA000D361D4E70068FFF743FD2268D36943F489
:103DB0000063D3612268D36923F48063D3612268EE
:103DC000D369296943EA0123D361C0E70220C1E72F
:103DD00010B4846824F47F4C42EA03220A4342EA86
:103DE0000C02826010BC704790F83C30012B66D00A
:103DF00010B50446012380F83C30022380F83D30A2
:103E00000268936823F47F4323F0770393600B6881
:103E1000602B40D022D8402B47D00BD9502B0ED14D
:103E2000CA6849680068FFF727FD50212068FFF73E
:103E300048FD04E0202B0CD008D9302B09D00123F9
:103E400084F83D30002084F83C0010BD0BB1102BED
:103E5000F5D119462068FFF734FDF0E7702B0ED03E
:103E6000B3F5005FEBD1CB684A6889680068FFF75B
:103E7000AFFF2268936843F480439360DFE7CB6829
:103E80004A6889680068FFF7A3FF2268936843F0D7
:103E900077039360D3E7CA6849680068FFF7FEFCC0
:103EA00060212068FFF70DFDC9E7CA68496800680E
:103EB000FFF7E2FC40212068FFF703FDBFE7022087
:103EC000704701F01F01012303FA01FC036A23EA92
:103ED0000C030362036A02FA01F10B4303627047A9
:103EE00010B50446084651BB94F83E30DBB2013BA6
:103EF00018BF0123002B5BD1002839D1022384F89D
:103F00003E30012201462068FFF7DBFF23682A4A82
:103F100093423DD02368284A93423ED0B3F1804F6C
:103F20003BD0A2F59432934237D002F5806293429F
:103F300033D01A6842F001021A60002039E00429E7
:103F400008D008290DD094F84130DBB2013B18BFEE
:103F50000123CFE794F83F30DBB2013B18BF0123C8
:103F6000C8E794F84030DBB2013B18BF0123C1E73A
:103F7000042805D0082807D0022384F84130C0E780
:103F8000022384F83F30BCE7022384F84030B8E7CE
:103F90005A6C42F400425A64BCE79A6802F0070285
:103FA000062A07D01A6842F001021A60002000E0D9
:103FB000012010BD0020FCE7002C014038B504466C
:103FC00090F83E00C0B294F83F3094F84220D2B24C
:103FD00094F843C00D46B1B9012849D1012A48D10E
:103FE000022384F83E3084F842307DB3042D39D06A
:103FF000012200212068FFF764FF012204212068CC
:10400000FFF75FFF27E0DBB25FFA8CFC042912D0D8
:10401000012833D1012B2CD1012A31D1BCF1010F60
:1040200030D1022384F83E3084F83F3084F84230A7
:1040300084F84330D9E7012B1CD1BCF1010F1BD10F
:10404000022384F83F3084F84330CEE70122002178
:104050002068FFF736FF2268136843F001031360FE
:10406000002006E0012204212068FFF72AFFF2E782
:10407000012038BD0120FCE71846FAE70120F8E7E7
:104080001846F6E71046F4E790F83C30012B2CD0A8
:1040900010B4012380F83C30022380F83D300368DF
:1040A0005A689C6822F0700C0A6842EA0C025A6056
:1040B00003680F4A93420AD0B3F1804F07D0A2F5AC
:1040C0009432934203D002F58062934204D124F0EB
:1040D00080044A6814439C60012380F83D3000232B
:1040E00080F83C30184610BC70470220704700BF73
:1040F000002C0140704770470268D36823F0C0036A
:10410000D360202380F83D3070470268D36823F4E1
:104110009073D3600268536923F001035361036B0A
:10412000012B05D0202380F83E3000230363704725
:104130000268D36823F01003D360F3E790F83D30B2
:10414000DBB2212B01D0022070478368B3F5805F7A
:1041500017D0036A5A1C02621A7803685A60C38C2B
:104160009BB2013B9BB2C3844BB90268D36823F076
:104170008003D3600268D36843F04003D36000201B
:1041800070470369002BE4D1036A1B880268C3F3FC
:1041900008035360036A02330362E0E710B5044684
:1041A0000268136923F44053C1680B4313618368A9
:1041B0000269134342691A430168CB6823F4B05380
:1041C00023F00C031343CB600268536923F440735C
:1041D00081690B4353610268134B9A4220D0FFF769
:1041E000A7FA024602EB820202EB820263689B009E
:1041F000B2FBF3F20D48A0FB02314909642303FB33
:1042000011231B013233A0FB03235B0903F0F002EF
:1042100002EB011203F00F03216813448B6010BD01
:10422000FFF796FA0246DDE7003801401F85EB51A3
:1042300058B310B5044690F83D300BB3242384F8EE
:104240003D302268D36823F40053D3602046FFF743
:10425000A5FF2268136923F4904313612268536910
:1042600023F02A0353612268D36843F40053D360D8
:1042700000202064202384F83D3084F83E3010BDB7
:1042800080F83C30FEF7D4FAD8E7012070470000F0
:1042900038B590F83D30DBB2202B31D104460029EF
:1042A00030D0002A30D090F83C30012B2ED00123A2
:1042B00080F83C3001628284C28400250564212399
:1042C00080F83D30436B12489862636B1148D862A6
:1042D000636B11481863636B5D6320681346021DAE
:1042E000606BFEF7B1FC23686FF040021A6084F83F
:1042F0003C502268536943F080035361284600E034
:10430000022038BD0120FCE70120FAE70220F8E78F
:1043100083430008CF430008DD43000810B504467E
:1043200001684A6990F83D30DBB2212B0AD0216840
:104330004A6902F0400294F83E30DBB2222B11D0E1
:10434000002010BD02F08002002AF0D04B6923F05B
:1043500080034B61406B08B1FEF7B0FC2046FFF7CD
:10436000CBFEE4E7002AEBD04B6923F040034B611E
:10437000A06B08B1FEF7A2FC2046FFF7C6FEDFE700
:10438000704708B50346406A1B681B6813F0200F8E
:104390000CD10023C3840268536923F08003536166
:1043A0000268D36843F04003D36008BDFFF7E8FF1D
:1043B000FBE708B50168CA6822F04002CA60202203
:1043C00080F83D20FFF7DCFF002008BD704708B5EE
:1043D000406AFFF7FBFF08BD7047704710B5446A9D
:1043E00023685A6994F83D30DBB2212B10D0236842
:1043F0005A6902F0400294F83E30DBB2222B11D011
:10440000236C43F0100323642046FFF7E6FF10BD42
:1044100002F08002002AEAD00023E3842046FFF75E
:104420006BFEE4E7002AEBD00023E3852046FFF78C
:104430006CFEE5E708B5406A0023C385C384FFF737
:10444000CCFF08BD704790F83E30DBB2222B60D124
:104450008368B3F5805F46D0826AB3F5805F04D08D
:10446000002B4DD10369002B4AD103685B681370A0
:10447000836A01338362C38D9BB2013B9BB2C385C8
:10448000002B48D100B583B00268D36823F0200325
:10449000D3600268D36823F48073D36002685369E1
:1044A00023F001035361202380F83E30036B012B7E
:1044B0002CD1002303630268D36823F01003D36078
:1044C00003681A6812F0100F06D0002201921A68D1
:1044D00001925B680193019B818DFFF7B3FF002080
:1044E00003B05DF804FB0269002AB5D1826A036853
:1044F0005B68C3F308031380836A02338362BAE7FD
:1045000003685B6803F07F031370B1E7FDF7ECFC11
:10451000E5E70220704700207047000030B583B007
:10452000044602681368D068516913F00F0505D17D
:1045300013F0200F02D010F0200F19D12DB111F07F
:10454000010119D110F4907F16D1216B012975D08A
:1045500013F0800F03D010F0800F40F0D78013F0DD
:10456000400F03D010F0400F40F0D48003B030BDB6
:104570002046FFF768FFF9E713F0010F06D010F4AB
:10458000807F03D0226C42F00102226413F0040FFA
:1045900004D019B1226C42F00202226413F0020F1F
:1045A00004D019B1226C42F00402226413F0080F07
:1045B00007D010F0200F00D119B1226C42F0080290
:1045C0002264226C002AD1D013F0200F02D010F008
:1045D000200F21D123685B6903F04003226C12F0A5
:1045E000080F00D123B32046FFF78FFD23685A69D7
:1045F00012F0400F18D05A6922F040025A61A36BA2
:1046000073B1464A5A63A06BFEF77AFB0028ADD01F
:10461000A06B436B9847A9E72046FFF714FFD9E743
:104620002046FFF7DAFEA1E72046FFF7D6FE9DE71A
:104630002046FFF7D2FE0023236497E713F0100F04
:1046400086D010F0100F83D00023019313680193DC
:1046500053680193019B536913F0400F32D0A16B53
:104660000B685B689BB2002B80D0A08D98427FF6D0
:104670007DAFE3858B69202B08D1A18DE38D9BB2A3
:10468000C91A89B22046FFF7DDFE6FE7D36823F42D
:104690008073D3602268536923F001035361226859
:1046A000536923F040035361202384F83E300023F4
:1046B00023632268D36823F01003D360A06BFEF756
:1046C000FDFADAE7A18DE38D9BB2C91A89B2E38DB9
:1046D0009BB2002B3FF44AAF00293FF447AFD368A9
:1046E00023F49073D3602268536923F0010353616C
:1046F000202384F83E30002323632268D36823F00C
:104700001003D3602046FFF79DFE2FE72046FFF7FA
:1047100015FD2BE72046FFF74CFE27E73544000840
:1047200008B5406A036B012B02D0FFF755FE08BDA8
:10473000818D4908FFF786FEF9E708B50346406A10
:104740001B681B6813F0200F16D10023C385026875
:10475000D36823F48073D3600268536923F00103A4
:1047600053610268536923F040035361202380F8AA
:104770003E30036B012B05D0036B012B08D0FDF7F6
:10478000B3FB08BD0268D36823F01003D360F3E7DE
:10479000818DFFF757FEF4E7034681628285C2856B
:1047A00000201864222283F83E2083F83C00196818
:1047B000CA6842F48072CA6019684A6942F001020C
:1047C0004A611A68D36843F02003D360704708B584
:1047D00090F83E30DBB2202B0DD171B17AB190F858
:1047E0003C30012B0DD0012380F83C3000230363C3
:1047F000FFF7D2FF00E0022008BD0120FCE7012006
:10480000FAE70220F8E7000030B583B0044613460B
:104810008162828500250564222280F83E20826B19
:1048200014489062A26B1448D062A26B13481063C4
:10483000A26B556320680A46011DA06BFEF704FABF
:10484000019523681A6801925A680192019A84F8C6
:104850003C50DA6842F48072DA602268536943F0AF
:10486000010353612268536943F0400353612846B2
:1048700003B030BD3B47000821470008DD43000876
:1048800008B590F83E30DBB2202B0DD171B17AB172
:1048900090F83C30012B0DD0012380F83C300023F0
:1048A0000363FFF7B1FF00E0022008BD0120FCE731
:1048B0000120FAE70220F8E7014B1868704700BFB3
:1048C0000C00002070B50D4E0D4D761BB61006D0B5
:1048D000002455F8043B01349847A642F9D1094E0B
:1048E000094D07F0D5FD761BB61006D0002455F80B
:1048F000043B01349847A642F9D170BDDCCA0008D8
:10490000DCCA0008E4CA0008DCCA0008830730B526
:1049100048D0541E002A3FD00346CAB201E0013CF1
:104920003AD303F8012B9D07F9D1032C2DD9CDB231
:1049300045EA05250F2C45EA054536D9A4F11002B4
:1049400022F00F0C03F1200EE6444FEA121C03F193
:10495000100242E9045542E9025510327245F8D17D
:104960000CF1010214F00C0F03EB021204F00F0C17
:1049700013D0ACF1040323F003030433134442F8CF
:10498000045B9342FBD10CF003042CB1CAB21C446B
:1049900003F8012B9C42FBD130BD64461346002C2A
:1049A000F4D1F9E703461446BFE71A46A446E0E708
:1049B0002DE9F04F002582469748A1B0006888464F
:1049C00007921C4608901C9502F0A4F9002183462A
:1049D00000204246CDE90401CDF86C80174612F85C
:1049E000013B2D2B2FD8DFE813F0A0002E002E0066
:1049F0002E002E002E002E002E002E00AD00AD0049
:104A0000AD00AD00AD002E002E002E002E002E00B9
:104A10002E002E002E002E002E002E002E002E0026
:104A20002E002E002E002E002E00AD002E002E0097
:104A30002E002E002E002E002E002E002E002E0006
:104A400002042E00F80300220992302B7CD00022B1
:104A50000B922F2B1C4640F229854FF00009384657
:104A60004E464D4612E00130082D1B90C8BF09EBA1
:104A700089090478C6BF03EB4903A3F13009A2F109
:104A800030062F2C234605F101056EDD06EB86026C
:104A9000392C03EB4202E6DD5A46089902F068F928
:104AA000002835D11B9B1A465B441B9312F80B4020
:104AB000002D40F0A885302C40F06085C3F1010244
:104AC000981801331B931C78302CF9D0A4F13103D2
:104AD000082B00F23583A4F1300E1B9C0023012526
:104AE000274600F1010B0A93002006EB86060EEB29
:104AF0004606631C1B936478A4F13001092900F277
:104B0000E9828E460130002940F0AF841B9CF0E71B
:104B10000020652C834684460A9501D0452C30D16F
:104B2000002D7ED10B9B03437AD14FF0000B079BE6
:104B3000D94613B1079BC3F800805846494621B0B7
:104B4000BDE8F08F1B9249E77B7803F0DF03582B19
:104B500000F06D8401371B973B78302BFAD0002B87
:104B600000F0CE8001220B9273E75A46089902F0BA
:104B7000FFF8002800F0D7800A954FF0000B584648
:104B8000DC4600230C93002D00F096800A9A3046F4
:104B90001346002A08BF2B460A93FBF71BFC02466C
:104BA0000B46DDF830C0102D2C46ACEB0B0CA8BF2B
:104BB0001024092DCDE90423CDF82CC014DD174BAA
:104BC00003EBC40353E91223FBF77EFC024648467D
:104BD00090468946FBF7FEFB02460B464046494697
:104BE000FBF7BCFACDE904010F2D00F3A5800B9B68
:104BF000002B00F00F840B9B40F38A83162B40F3AD
:104C0000F4840B9AC5F12503934280F207850B9B30
:104C10002C1B1C4496E000BFE8C60008A8C700088B
:104C20000025DDF86C8008F101031B9398F8014022
:104C30002B2C00F082822D2C00F01B824FF0000EF6
:104C4000A4F13003092B00F20F82302C05D11B9BFD
:104C500001331B931C78302CFAD0A4F13103082BBC
:104C60008FD81B9AA4F13001531C1B9354780892DF
:104C70002F2C09DC00F029BC1C4601331B936478FF
:104C8000A2F130012F2C05DD01EB8102392C04EB60
:104C90004202F1DD089A9B1A082B40F3168444F671
:104CA0001F630C93BEF1000F3FF46DAF0C9B5B4292
:104CB0000C93002D7FF46AAF0B9B034320D1BCF112
:104CC000000F7FF432AF692C00F01B8400F33983AE
:104CD000492C00F016844E2C7FF427AFAA491BA85C
:104CE00001F0E2F900283FF420AF1B9B1B78282B32
:104CF00000F07385A54802F003F88346894602E078
:104D00004FF0000BD946079A0AB11B9B1360099B11
:104D1000002B3FF412AF09F100439946584649462B
:104D200021B0BDE8F08F1B9B0A9503EB0B021B9291
:104D300013F80B408346DFE60B9B2C1B1C44002C16
:104D400040F3048314F00F000AD0DDE904239049F6
:104D500001EBC001D1E90001FBF7B6FBCDE904018D
:104D600034F00F0340F08682002308932B46394627
:104D700050460A9A009601F02DFB1390002800F08F
:104D80004E830C9BABEB03010B9B002BB4BF0A467D
:104D900000220E9200229346904623EAE373129378
:104DA000139C5046616801F093FA0746002800F012
:104DB0004081226904F10C01023292000C30FCF7B0
:104DC000FFF8DDE904010C4611911EA901911DA90E
:104DD00002460A9023465046009101F09FFE1C9027
:104DE000002800F016810121504601F099FB804611
:104DF000002800F01E811D9B002BC0F20D810E9A31
:104E0000129D9E18089A1E9C9B1A2344614A013BDE
:104E10009342C4F1360480F2AE80D21A1F2A4FF0BA
:104E20000109A4EB020400F31981002309FA02F935
:104E30000C93089B25443444A6421D443346A8BF26
:104E40002346AB42A8BF2B46002B02DDE41AED1A25
:104E5000F61A0E9B002B00F3BC80002C00F3D080D0
:104E60000B9B002B00F3DC80002D00F3ED80002E67
:104E700008DD41463246504601F08AFC8046002853
:104E800000F0D7803A4650461C9901F017FD834642
:104E9000002800F0CE800026C3684146C6600F930C
:104EA00001F0ECFCB042C0F2678400F0CE834146D2
:104EB000584601F095FE00224FF0804304460D460F
:104EC000FCF75EF900286DD00F9B002B00F0DD8011
:104ED00000223546059B304C10932F4BCDE90C2317
:104EE0002E4E109A2E4B02EA0609994500F0F880E2
:104EF000089B93B1B9F1D46F0FD821A3D3E9002354
:104F000028462146FCF73CF9002840F084810D9B9F
:104F100003F1D663A3EB09030D93119E0A98314662
:104F2000DDE90C23CDE9042301F06EFD02460B46BA
:104F3000DDE90401FBF7C8FA33460A9AFBF70EF9DC
:104F40000E46CDE90401089B23B9144B3340994523
:104F500000F0FF8050461C9901F0E0F939465046B8
:104F600001F0DCF94146504601F0D8F95946504667
:104F700001F0D4F914E700234FF001090C9358E72E
:104F80000000C0FFFFFFDF41F4C40008E0C40008D8
:104F9000A8C7000802FCFFFF0000F03F0000F07F00
:104FA0000000E07F204629460022AB4BFBF78CFA3D
:104FB0000F9B024605460C46002B62D101F10043CF
:104FC00014901593059B1093DDE91423CDE90C2370
:104FD00086E741461A46504601F07EFB804640B3C4
:104FE00001461C9A504601F0C9FA10B30F901C9963
:104FF000504601F093F90F9B002C1C937FF730AFC4
:10500000224650461C9901F0C3FB1C9000287FF4F7
:1050100027AF5E460B970FE0129A0E9ED51AF1E667
:1050200039465046129A01F057FB074600287FF494
:105030001BAF5E460B971C9822234FF0000BDFF846
:105040001C92CAF80030B3E039462A46504601F0B7
:105050009FFB074600287FF40AAFEAE7804AD31A8D
:1050600009FA03F30C93E4E60023CDF86C800C936B
:1050700089E54FF0010E08F102031B9398F80240F6
:10508000DEE50B46CDE914239CE7DDE90412002997
:1050900040F0B080C2F313031092002B40F0B080B8
:1050A0000022204629466F4BFCF760F8002840F0AC
:1050B000AE8220462946684B0022FBF705FA0546DA
:1050C0000C4601F1004318901993DDE91823CDE94E
:1050D0000C2305E7652C4FF0010C3FF4A2AD1DE554
:1050E000A2F154730593DDE90423DDE90C01CDE958
:1050F000040110461946CDE90C2301F085FC024657
:105100000B46DDE90401FBF7DFF9DDE90C23FBF7D2
:1051100025F8554A0B46CDE904013140914276D934
:10512000119A524B9A4202D10A9B013381D04FF01F
:10513000FF334E4ACDE904320CE74FF0000E9AE7F8
:10514000652C00F0F780452C00F0F4804FF0010C46
:10515000B2E528462146FCF7BDF8FBF787F90B4678
:10516000024621462846FAF7F7FF0F9C049DC6F336
:10517000130644EA050C5CEA060304460D4600F0FB
:10518000BE8031A3D3E90023FBF7F0FF48B930A379
:10519000D3E9002320462946FCF706F800283FF40F
:1051A000D9AEDDE904345E46A1469B461C980B97B8
:1051B0000146504601F0B2F850460B9901F0AEF8A6
:1051C0004146504601F0AAF85046139901F0A6F85E
:1051D0003146504601F0A2F895E5012309937A1C67
:1051E0001B927B78002B3FF4A0AC17462DE40023E4
:1051F0000993F4E7DDE90412012900F06E811092B1
:1052000000221B4B0025CDE90C23164C68E603F168
:105210005476059697E621462846FCF70DF80128B6
:1052200038BF0120FBF7D6F80F9B024605460C4617
:10523000002B40F0628101F1004316901793DDE9E5
:105240001623CDE90C2362E69535A094FFFFDF3FDE
:1052500035E5AF350000E03F0000E03F0000F07FA3
:10526000E2FBFFFF0000F03FFFFF9F7CFFFFEF7FAF
:105270000000F0BFB3F59A7F00F3D180102B4FEA06
:10528000231440F3C082DDE904010023AC4A9946AF
:105290009046089214F0010F09F101094FEA6404E5
:1052A00004D0D8E90023FBF70FF90123012C08F102
:1052B0000808EFD10BB1CDE90401089B03EBC90944
:1052C000059BD9E90001A3F154730593DDE904239B
:1052D000FBF7FAF89B4B9C4A0B409342CDE9040143
:1052E00000F29D80A2F58012934240F222824FF09C
:1052F000FF339649CDE904310023089336E58EA3A8
:10530000D3E90023FBF732FF00283FF423AE48E740
:105310001633FFF611ADDDE904010C9BABEB030A7C
:105320008B4B03EBCA03D3E90023FBF7F7F9834662
:105330008946E8E400234FF0010C9B460A93FFF7EF
:10534000F1BB6E2C3FF4CAACFFF7EFBB3FF40CADE2
:10535000644214F00F020AD0DDE904017C4B03EB38
:10536000C203D3E90023FBF7D9F9CDE904012411E5
:105370003FF4FAAC1F2C35DCDDE9040114F0100316
:1053800018BF6A2308930023DFF8C881E20704D519
:10539000D8E90023FBF798F80123641008F1080806
:1053A000F4D10BB1CDE90401089B93B1DDE904010F
:1053B000C1F30A52C2F16B03002B0ADD1F2B40F32D
:1053C0004C820020342B049040F352824FF05C73E7
:1053D00005930022DDE904010023FBF7BDFE002850
:1053E0003FF4C4AC22234FF0000BCAF80030D9467A
:1053F00089E41E9B04931D9B03F233421F9B23F4FD
:10540000801343EA02530593200742BF059B43F0F4
:1054100000430593DDE904349B46A14673E422234F
:105420004FF0000BDFF81C91CAF800306BE4099BC9
:10543000029401931CAB00935046474A1DAB1BA935
:1054400000F050FB10F0070504463FF459AC062D60
:1054500040F097804FF0000B079BD9460137002B97
:105460003FF46BAB1F60FFF768BB6B1C01281A464B
:105470001B9C834415D0284400F1FF3C03E0460008
:105480009C450DD001332A46082A1D4606EB8600AE
:10549000F5D9102BDCBF09EB89094FEA4909EFE781
:1054A0000232082D5EDC1546FFF71EBB5A46384611
:1054B000089901F05DFC002800F08D8000231D4656
:1054C00099461E460A93FFF758BB44F61F6399425C
:1054D000A8BF19460C91FFF7E5BBDDE90434109431
:1054E000002C7FF48DAE5E460B9722234FF0000B0D
:1054F0001C98D946CAF800305AE60B46CDE9162367
:105500009DE616491BA800F0CFFD00283FF40DAB27
:105510001B9B1349013B1BA81B9300F0C5FD10B951
:105520001B9B01331B934FF0000BDFF81890FFF724
:10553000EABB00BFAFF300809535A094FFFFCF3FDB
:1055400080C700080000F07F0000A07CFFFFEF7F15
:10555000A8C7000820C50008F8C40008E8C400086F
:10556000ECC40008102AD8BF09EB890915464FF092
:105570000000D8BF01EB4909FFF7BBBA0020FFF7D5
:10558000A5BA1C9A3AB135211EA801F059FB504624
:105590001C9900F0C3FE013D042D3FF635AF01A379
:1055A00053F825F0F3530008CD550008C7550008FF
:1055B000B9550008F35300084FF0FF336FF0004572
:1055C000CDE9043520E7AF4B05931DE71E9B0493FF
:1055D0001F9B059318E71B9B06461A465B441B93CB
:1055E000814612F80B40FFF766BA0B98A649DDE931
:1055F000042301EBC001D1E90001FAF765FF8346FE
:105600008946FFF780BB83460A95FFF775BA0022EB
:105610009E4B0F9DCDE918239D4C56E59A4CC5F144
:105620000F0504EBC501DDE90423D1E90001FAF718
:105630004BFF0B9B5D1B04EBC504D4E90023FAF779
:1056400043FF83468946FFF75EBB0F9B5E46CC4611
:105650000B97DDF828B00C9FDDF84490002B6FD03D
:10566000DDE904458B4BC5F3130199422A463CD032
:10567000002F00F0AB80DDE904231F421C4621D03F
:105680000F9B58464946002B00F0C28001F0BCF940
:10569000089D02460B467DB1C4F30A54C4F16B0465
:1056A000002C09DD240504F17F53002203F540138B
:1056B000FAF70AFF02460B4658464946FAF74EFDEE
:1056C00083468946089B73B158464946724B00226F
:1056D000FAF7FAFE03460B4308BF222383468946A6
:1056E00008BFCAF800301C9862E5089B0499002B9B
:1056F00000F0BB80634B2B40B3F1D46F00F2B58058
:105700004FF0FF301B0DC3F16B0300FA03F3994216
:10571000AED1624B9A4200F0E0805A4B134003F541
:105720008013059300230493DDE904349B46A146CE
:10573000C8E701F15473059300230893FFF716BBE4
:10574000DDE90412C2F313030B43144690D1089B06
:10575000002B40F0B7804B4B2340A3F580136FEA3A
:1057600013536FEA035305934FF0FF330493DDE9BE
:1057700004349B46A146A5E70F9BDDE904120B43C9
:1057800058465E46DDF84490DDF828B00B9799D175
:10579000C2F313031446002B94D122F000431B0DD7
:1057A0001B05B3F1D66F8DD9436913B90369012B7A
:1057B00088DD31460122504600F0EAFF41460646A8
:1057C00001F05CF800287FF77DAFC0E7DDE9043425
:1057D0001CEA030F3FF476AF52E731491BA81EAA1B
:1057E00000F07CFC05287FF485AA1F9B43F0FF4353
:1057F00043F4E00305931E9B0493DDE904349B46C8
:10580000A146FFF780BA274B4FF00009089354E5F3
:1058100001F0FAF8089D02460B46002D44D0C4F36F
:105820000A54C4F16B04002C09DD240504F17F53F4
:105830000F9A03F54013FAF747FE02460B46584607
:105840004946FAF789FC0022002383468946FBF784
:1058500083FC00283FF438AF47E64FF0FF3202FAEE
:1058600003F3049A1A400492B3E54FF0FF334EE776
:105870004FF0FF33C2F14B0203FA02F202EA0103D6
:105880000593A6E50000F07FA8C700080000E0BF70
:105890000000E03FFFFF0F0000005039FFFFEF7FE7
:1058A0000CC5000880C7000858464946FAF754FC62
:1058B0000022002383468946FBF74EFC00283FF474
:1058C00012AF12E6074B2340B3F1D66F3FF745AF57
:1058D000B3F15C7F3FF7F8AE07E601317FF41DAF0F
:1058E000FFF7A9BB0000F07F2DE9F0410446214FEE
:1058F0000A46214B21463868FFF75AF802460B4604
:105900000C460546FBF75AFC40BB21462846FAF7F1
:10591000EDFF20F00048064618494046FBF7ACFC76
:10592000C8B940461549FBF7E7FAA0B924F000448E
:1059300028464FF0FF322146114BFBF73FFC38B9A8
:1059400028464FF0FF3221460D4BFBF719FC10B1F2
:1059500022223B681A603046BDE8F081002C0948DD
:1059600004DA01F0D3F900F10046F4E7BDE8F041B4
:1059700001F0CCB90C00002040040020FFFF7F7F25
:10598000FFFFEF7FE0C4000810B5194C0029246820
:105990009AB028DB009004904FF402704FF6FF7C21
:1059A000ADF80C0011D001390291059120466946ED
:1059B000ADF80EC001F01AFA421C01DA8B23236005
:1059C0000022009B1A701AB010BD0291059120466A
:1059D0006946ADF80EC001F009FA431C01DA8B23C9
:1059E00023601AB010BD8B234FF0FF302360F8E71F
:1059F0000C000020024B13B1024800F005B87047BC
:105A000000000000155A0008002301461A461846F7
:105A100002F04CBF38B5084B084D5B1B9C1007D0FB
:105A2000043B1D44013C55F804399847002CF9D13A
:105A3000BDE8384006F032BDE8CA0008E4CA0008F4
:105A40002DE9F0410469B4EB611F2FDD00F1140E64
:105A50004E1111F01F0C0EEB84050EEB86032BD0BC
:105A60005EF8262004339D4222FA0CF1CCF1200886
:105A700018D977461A6802FA08F20A4347F8042B45
:105A800053F8041B9D4221FA0CF1F3D8A41BA30088
:105A9000053B9B0801330EEB83044EF82310C9B17C
:105AA000043417E0744641610029F9D100230361F1
:105AB00000234361BDE8F0819D4288BF00F11002E0
:105AC000F4D953F8041B9D4242F8041FF9D8A41BD3
:105AD0000EEB8404A4EB0E039B1074450361E7D026
