:020000040800F2
:1000000000500020A5290008612200086322000892
:10001000652200086722000869220008000000002D
:100020000000000000000000000000006B2200083B
:100030006D220008000000006F22000871220008F5
:10004000ED290008ED290008ED290008ED29000838
:10005000ED290008ED290008ED290008ED29000828
:10006000ED290008ED290008ED290008ED29000818
:100070007922000889220008ED290008ED290008EE
:1000800099220008A9220008ED290008ED2900089E
:10009000ED290008ED290008ED290008ED290008E8
:1000A000ED290008ED290008ED290008ED290008D8
:1000B000B9220008C9220008D9220008ED29000849
:1000C000ED290008ED290008ED290008ED290008B8
:1000D000ED290008ED290008E9220008F9220008AE
:1000E000ED290008ED290008ED29000800000000B6
:1000F0000000000000000000000000000000000000
:0C01000000000000000000005FF808F1A3
:1001100010B5054C237833B9044B13B10448AFF341
:1001200000800123237010BDB809002000000000EA
:1001300038A7000808B5034B1BB103490348AFF3C8
:10014000008008BD00000000BC09002038A700089E
:1001500081F0004102E000BF83F0004330B54FEA78
:1001600041044FEA430594EA050F08BF90EA020FE5
:100170001FBF54EA000C55EA020C7FEA645C7FEA78
:10018000655C00F0E2804FEA5454D4EB5555B8BF9B
:100190006D420CDD2C4480EA020281EA030382EA0C
:1001A000000083EA010180EA020281EA0303362D9E
:1001B00088BF30BD11F0004F4FEA01314FF4801C71
:1001C0004CEA113102D0404261EB410113F0004F83
:1001D0004FEA03334CEA133302D0524263EB43033A
:1001E00094EA050F00F0A780A4F10104D5F1200ED8
:1001F0000DDB02FA0EFC22FA05F2801841F1000133
:1002000003FA0EF2801843FA05F359410EE0A5F106
:1002100020050EF1200E012A03FA0EFC28BF4CF037
:10022000020C43FA05F3C01851EBE37101F00045ED
:1002300007D54FF0000EDCF1000C7EEB00006EEBFA
:100240000101B1F5801F1BD3B1F5001F0CD3490884
:100250005FEA30004FEA3C0C04F101044FEA4452DB
:1002600012F5800F80F09A80BCF1004F08BF5FEA62
:10027000500C50F1000041EB045141EA050130BD42
:100280005FEA4C0C404141EB0101013C28BFB1F554
:10029000801FE9D291F0000F04BF01460020B1FA9F
:1002A00081F308BF2033A3F10B03B3F120020CDA72
:1002B0000C3208DD02F1140CC2F10C0201FA0CF050
:1002C00021FA02F10CE002F11402D8BFC2F1200CB5
:1002D00001FA02F120FA0CFCDCBF41EA0C0190406B
:1002E000E41AA2BF01EB0451294330BD6FEA0404B4
:1002F0001F3C1CDA0C340EDC04F11404C4F120029F
:1003000020FA04F001FA02F340EA030021FA04F3B0
:1003100045EA030130BDC4F10C04C4F1200220FA07
:1003200002F001FA04F340EA0300294630BD21FA45
:1003300004F0294630BD94F0000F83F4801306BF0B
:1003400081F480110134013D4EE77FEA645C18BFFF
:100350007FEA655C29D094EA050F08BF90EA020F96
:1003600005D054EA000C04BF1946104630BD91EA8E
:10037000030F1EBF0021002030BD5FEA545C05D191
:100380004000494128BF41F0004130BD14F58004D0
:100390003CBF01F5801130BD01F0004545F0FE4144
:1003A00041F470014FF0000030BD7FEA645C1ABF79
:1003B000194610467FEA655C1CBF0B46024650EAB0
:1003C000013406BF52EA033591EA030F41F40021DC
:1003D00030BD00BF90F0000F04BF0021704730B562
:1003E0004FF4806404F132044FF000054FF0000137
:1003F00050E700BF90F0000F04BF0021704730B5F8
:100400004FF4806404F1320410F0004548BF4042CC
:100410004FF000013EE700BF42004FEAE2014FEA21
:1004200031014FEA02701FBF12F07F4393F07F4FFC
:1004300081F06051704732F07F4208BF704793F0FF
:100440007F4F04BF41F40021704730B54FF4607412
:1004500001F0004521F000411CE700BF50EA010215
:1004600008BF704730B54FF000050AE050EA0102BE
:1004700008BF704730B511F0004502D5404261EB2E
:1004800041014FF4806404F132045FEA915C3FF46F
:10049000D8AE4FF003025FEADC0C18BF03325FEA0C
:1004A000DC0C18BF033202EBDC02C2F1200300FABD
:1004B00003FC20FA02F001FA03FE40EA0E0021FAE2
:1004C00002F11444BDE600BF70B54FF0FF0C4CF4D0
:1004D000E06C1CEA11541DBF1CEA135594EA0C0F82
:1004E00095EA0C0F00F0DEF82C4481EA030621EABD
:1004F0004C5123EA4C5350EA013518BF52EA0335F8
:1005000041F4801143F4801338D0A0FB02CE4FF0A9
:100510000005E1FB02E506F00042E0FB03E54FF0D9
:100520000006E1FB03569CF0000F18BF4EF0010ED1
:10053000A4F1FF04B6F5007F64F5407404D25FEACD
:100540004E0E6D4146EB060642EAC62141EA555180
:100550004FEAC52040EA5E504FEACE2EB4F1FD0CC2
:1005600088BFBCF5E06F1ED8BEF1004F08BF5FEA40
:10057000500E50F1000041EB045170BD06F00046F2
:1005800046EA010140EA020081EA0301B4EB5C049F
:10059000C2BFD4EB0C0541EA045170BD41F4801197
:1005A0004FF0000E013C00F3AB8014F1360FDEBFBC
:1005B000002001F0004170BDC4F10004203C35DA98
:1005C0000C341BDC04F11404C4F1200500FA05F31B
:1005D00020FA04F001FA05F240EA020001F00042BC
:1005E00021F0004110EBD37021FA04F642EB060132
:1005F0005EEA430E08BF20EAD37070BDC4F10C045C
:10060000C4F1200500FA04F320FA05F001FA04F21F
:1006100040EA020001F0004110EBD37041F100010B
:100620005EEA430E08BF20EAD37070BDC4F1200516
:1006300000FA05F24EEA020E20FA04F301FA05F27E
:1006400043EA020321FA04F001F0004121FA04F226
:1006500020EA020000EBD3705EEA430E08BF20EAF6
:10066000D37070BD94F0000F0FD101F00046400030
:1006700041EB010111F4801F08BF013CF7D041EAB2
:10068000060195F0000F18BF704703F000465200B6
:1006900043EB030313F4801F08BF013DF7D043EA87
:1006A0000603704794EA0C0F0CEA135518BF95EA3D
:1006B0000C0F0CD050EA410618BF52EA4306D1D1C4
:1006C00081EA030101F000414FF0000070BD50EAE3
:1006D000410606BF1046194652EA430619D094EA6D
:1006E0000C0F02D150EA013613D195EA0C0F05D157
:1006F00052EA03361CBF104619460AD181EA0301AB
:1007000001F0004141F0FE4141F470014FF0000062
:1007100070BD41F0FE4141F4780170BD70B54FF0FD
:10072000FF0C4CF4E06C1CEA11541DBF1CEA13557D
:1007300094EA0C0F95EA0C0F00F0A7F8A4EB05045F
:1007400081EA030E52EA03354FEA013100F0888056
:100750004FEA03334FF0805545EA131343EA12631F
:100760004FEA022245EA111545EA10654FEA0026D4
:100770000EF000419D4208BF964244F1FD0404F58D
:10078000407402D25B084FEA3202B61A65EB0305E9
:100790005B084FEA32024FF480104FF4002CB6EBA6
:1007A000020E75EB030E22BFB61A754640EA0C0026
:1007B0005B084FEA3202B6EB020E75EB030E22BF66
:1007C000B61A754640EA5C005B084FEA3202B6EBA7
:1007D000020E75EB030E22BFB61A754640EA9C0066
:1007E0005B084FEA3202B6EB020E75EB030E22BF36
:1007F000B61A754640EADC0055EA060E18D04FEAF4
:10080000051545EA16754FEA06164FEAC30343EA93
:1008100052734FEAC2025FEA1C1CC0D111F4801F60
:100820000BD141EA00014FF000004FF0004CB6E759
:1008300011F4801F04BF01430020B4F1FD0C88BFF8
:10084000BCF5E06F3FF6AFAEB5EB030C04BFB6EB03
:10085000020C5FEA500C50F1000041EB045170BDF6
:100860000EF0004E4EEA113114EB5C04C2BFD4EB23
:100870000C0541EA045170BD41F480114FF0000EA7
:10088000013C90E645EA060E8DE60CEA135594EA23
:100890000C0F08BF95EA0C0F3FF43BAF94EA0C0F26
:1008A0000AD150EA01347FF434AF95EA0C0F7FF49B
:1008B00025AF104619462CE795EA0C0F06D152EAEF
:1008C00003353FF4FDAE1046194622E750EA4106D3
:1008D00018BF52EA43067FF4C5AE50EA41047FF4E4
:1008E0000DAF52EA43057FF4EBAE12E74FEA410247
:1008F000B2F1E04324BFB3F5001CDCF1FE5C0DD97E
:1009000001F0004C4FEAC0024CEA5070B2F1004FC7
:1009100040EB830008BF20F00100704711F0804FCA
:1009200021D113F13872BCBF01F00040704741F48F
:1009300080114FEA5252C2F11802C2F1200C10FA93
:100940000CF320FA02F018BF40F001004FEAC12377
:100950004FEAD32303FA0CFC40EA0C0023FA02F31B
:100960004FEA4303CCE77FEA625307D150EA0133F1
:100970001EBF4FF0FE4040F44000704701F00040C1
:1009800040F0FE4040F40000704700BF80F000409F
:1009900002E000BF81F0004142001FBF5FEA410357
:1009A00092EA030F7FEA226C7FEA236C6AD04FEA57
:1009B0001262D2EB1363C1BFD2184140484041409C
:1009C000B8BF5B42192B88BF704710F0004F40F44E
:1009D000000020F07F4018BF404211F0004F41F46A
:1009E000000121F07F4118BF494292EA030F3FD036
:1009F000A2F1010241FA03FC10EB0C00C3F1200349
:100A000001FA03F100F0004302D5494260EB4000D7
:100A1000B0F5000F13D3B0F1807F06D340084FEA42
:100A2000310102F10102FE2A51D2B1F1004F40EB37
:100A3000C25008BF20F0010040EA0300704749009F
:100A400040EB0000013A28BFB0F5000FEDD2B0FA3C
:100A500080FCACF1080CB2EB0C0200FA0CF0AABF5F
:100A600000EBC25052421843BCBFD04018437047FD
:100A700092F0000F81F4000106BF80F40000013203
:100A8000013BB5E74FEA41037FEA226C18BF7FEADA
:100A9000236C21D092EA030F04D092F0000F08BF1C
:100AA0000846704790EA010F1CBF0020704712F003
:100AB0007F4F04D1400028BF40F00040704712F142
:100AC00000723CBF00F50000704700F0004343F0A7
:100AD000FE4040F4000070477FEA226216BF0846DD
:100AE0007FEA23630146420206BF5FEA412390EAA0
:100AF000010F40F4800070474FF0000304E000BF96
:100B000010F0004348BF40425FEA000C08BF704746
:100B100043F0964301464FF000001CE050EA01020A
:100B200008BF70474FF000030AE000BF50EA01021F
:100B300008BF704711F0004302D5404261EB41010C
:100B40005FEA010C02BF84460146002043F0B64331
:100B500008BFA3F18053A3F50003BCFA8CF2083A56
:100B6000A3EBC25310DB01FA02FC634400FA02FC5F
:100B7000C2F12002BCF1004F20FA02F243EB020066
:100B800008BF20F00100704702F1200201FA02FCC8
:100B9000C2F1200250EA4C0021FA02F243EB0200BB
:100BA00008BF20EADC7070474FF0FF0C1CEAD052FF
:100BB0001EBF1CEAD15392EA0C0F93EA0C0F6FD0C0
:100BC0001A4480EA010C400218BF5FEA41211ED09E
:100BD0004FF0006343EA501043EA5111A0FB01318A
:100BE0000CF00040B1F5000F3EBF490041EAD3715F
:100BF0005B0040EA010062F17F02FD2A1DD8B3F1DB
:100C0000004F40EBC25008BF20F00100704790F049
:100C1000000F0CF0004C08BF49024CEA502040EA9B
:100C200051207F3AC2BFD2F1FF0340EAC250704761
:100C300040F400004FF00003013A5DDC12F1190F9F
:100C4000DCBF00F000407047C2F10002410021FA11
:100C500002F1C2F1200200FA02FC5FEA310040F129
:100C6000000053EA4C0308BF20EADC70704792F0A2
:100C7000000F00F0004C02BF400010F4000F013ADA
:100C8000F9D040EA0C0093F0000F01F0004C02BFD5
:100C9000490011F4000F013BF9D041EA0C018FE744
:100CA0000CEAD15392EA0C0F18BF93EA0C0F0AD04A
:100CB00030F0004C18BF31F0004CD8D180EA010070
:100CC00000F00040704790F0000F17BF90F0004F09
:100CD000084691F0000F91F0004F14D092EA0C0FEB
:100CE00001D142020FD193EA0C0F03D14B0218BF7E
:100CF000084608D180EA010000F0004040F0FE40C4
:100D000040F40000704740F0FE4040F4400070475F
:100D10004FF0FF0C1CEAD0521EBF1CEAD15392EADE
:100D20000C0F93EA0C0F69D0A2EB030280EA010CCE
:100D300049024FEA402037D04FF0805343EA111167
:100D400043EA10130CF000408B4238BF5B0042F1C5
:100D50007D024FF4000C8B4224BF5B1A40EA0C006A
:100D6000B3EB510F24BFA3EB510340EA5C00B3EB9C
:100D7000910F24BFA3EB910340EA9C00B3EBD10F8A
:100D800024BFA3EBD10340EADC001B0118BF5FEADC
:100D90001C1CE0D1FD2A3FF650AF8B4240EBC25005
:100DA00008BF20F0010070470CF0004C4CEA5020C6
:100DB0007F32C2BFD2F1FF0340EAC250704740F415
:100DC00000004FF00003013A37E792F0000F00F007
:100DD000004C02BF400010F4000F013AF9D040EA85
:100DE0000C0093F0000F01F0004C02BF490011F419
:100DF000000F013BF9D041EA0C0195E70CEAD15311
:100E000092EA0C0F08D142027FF47DAF93EA0C0FF7
:100E10007FF470AF084676E793EA0C0F04D14B02DB
:100E20003FF44CAF08466EE730F0004C18BF31F08D
:100E3000004CCAD130F000427FF45CAF31F0004387
:100E40007FF43CAF5FE700BF4FF0FF3C06E000BF20
:100E50004FF0010C02E000BF4FF0010C4DF804CD43
:100E60004FEA40024FEA41037FEA226C18BF7FEA53
:100E7000236C11D001B052EA530C18BF90EA010F55
:100E800058BFB2EB030088BFC81738BF6FEAE170E4
:100E900018BF40F0010070477FEA226C02D15FEA80
:100EA000402C05D17FEA236CE4D15FEA412CE1D0EC
:100EB0005DF8040B704700BF844608466146FFE7B3
:100EC0000FB5FFF7C9FF002848BF10F1000F0FBD95
:100ED0004DF808EDFFF7F4FF0CBF012000205DF88E
:100EE00008FB00BF4DF808EDFFF7EAFF34BF012013
:100EF00000205DF808FB00BF4DF808EDFFF7E0FFAC
:100F000094BF012000205DF808FB00BF4DF808EDFC
:100F1000FFF7D2FF94BF012000205DF808FB00BF5F
:100F20004DF808EDFFF7C8FF34BF012000205DF841
:100F300008FB00BF4FEA4002B2F1FE4F0FD34FF063
:100F40009E03B3EB12620DD94FEA002343F0004336
:100F500010F0004F23FA02F018BF404270474FF0E4
:100F60000000704712F1610F01D1420205D110F06B
:100F7000004008BF6FF0004070474FF0000070471E
:100F800042000ED2B2F1FE4F0BD34FF09E03B3EBF3
:100F9000126209D44FEA002343F0004323FA02F01F
:100FA00070474FF00000704712F1610F01D142020B
:100FB00002D14FF0FF3070474FF00000704700BF84
:100FC000844641EA000313F0030349D1403A23D396
:100FD0000B6803604B6843608B688360CB68C360B9
:100FE0000B6903614B6943618B698361CB69C361A1
:100FF0000B6A03624B6A43628B6A8362CB6AC36289
:101000000B6B03634B6B43638B6B8363CB6BC36370
:1010100040304031403ADBD230320BD30B680360B2
:101020004B6843608B688360CB68C36010301031BD
:10103000103AF3D20C3205D351F8043B40F8043B8C
:10104000043AF9D2043208D0D2071CBF11F8013B90
:1010500000F8013B01D30B8803806046704700BF56
:10106000082A13D38B07B1D010F00303AED0C3F11D
:101070000403D21ADB071CBF11F8013B00F8013B47
:10108000A4D331F8023B20F8023B9FE7043AD9D3BE
:10109000013A11F8013B00F8013BF9D20B780370DB
:1010A0004B7843708B788370604670474FF0FF3CFD
:1010B00006E000BF4FF0010C02E000BF4FF0010C52
:1010C0004DF804CD4FEA410C7FEA6C5C4FEA430CCB
:1010D00018BF7FEA6C5C1BD001B050EA410C0CBF1A
:1010E00052EA430C91EA030F02BF90EA020F00207C
:1010F000704710F1000F91EA030F58BF994208BFE3
:1011000090422CBFD8176FEAE37040F0010070479F
:101110004FEA410C7FEA6C5C02D150EA013C07D1F6
:101120004FEA430C7FEA6C5CD6D152EA033CD3D041
:101130005DF8040B704700BF8446104662468C463B
:101140001946634600E000BF01B5FFF7B7FF00286E
:1011500048BF10F1000F01BD4DF808EDFFF7F4FF97
:101160000CBF012000205DF808FB00BF4DF808ED22
:10117000FFF7EAFF34BF012000205DF808FB00BF45
:101180004DF808EDFFF7E0FF94BF012000205DF867
:1011900008FB00BF4DF808EDFFF7CEFF94BF01201C
:1011A00000205DF808FB00BF4DF808EDFFF7C4FF15
:1011B00034BF012000205DF808FB00BF4FEA410C5E
:1011C0007FEA6C5C02D150EA013C0AD14FEA430C41
:1011D0007FEA6C5C02D152EA033C02D14FF000007E
:1011E00070474FF0010070474FEA410212F50012BC
:1011F00015D211D56FF47873B3EB625212D94FEA5E
:10120000C12343F0004343EA505311F0004F23FA47
:1012100002F018BF404270474FF00000704750EA9C
:10122000013005D111F0004008BF6FF00040704759
:101230004FF00000704700BF53B94AB9002908BFFA
:1012400000281CBF4FF0FF314FF0FF3000F076B99F
:10125000ADF1080C6DE904CE00F006F8DDF804E00D
:10126000DDE9022304B070472DE9F047089E0D46E2
:1012700004468846002B4DD18A42944668D9B2FA7A
:1012800082F252B101FA02F3C2F1200120FA01F117
:101290000CFA02FC41EA030894404FEA1C41B8FBF7
:1012A000F1F71FFA8CFE01FB178807FB0EF0230CE9
:1012B00043EA084398420AD91CEB030307F1FF35C0
:1012C00080F01E81984240F21B81023F63441B1A4A
:1012D000B3FBF1F001FB103300FB0EFEA4B244EAB5
:1012E0000344A6450AD91CEB040400F1FF3380F047
:1012F0000981A64540F20681644402380021A4EB2E
:101300000E0440EA07401EB10023D440C6E9004362
:10131000BDE8F0878B4208D9002E00F0EE80002156
:10132000C6E900050846BDE8F087B3FA83F1002955
:101330004AD1AB4202D3824200F2FC80841A65EBB0
:10134000030301209846002EE2D0C6E90048DFE7FB
:1013500002B9FFDEB2FA82F2002A40F09180A1EBDE
:101360000C0001214FEA1C471FFA8CFEB0FBF7F37B
:1013700007FB1300250C45EA00450EFB03F0A842CD
:1013800008D91CEB050503F1FF3802D2A84200F290
:10139000CE8043462D1AB5FBF7F007FB10550EFB28
:1013A00000FEA4B244EA0544A64508D91CEB040497
:1013B00000F1FF3502D2A64500F2B6802846A4EB24
:1013C0000E0440EA03409EE7C1F120078B4022FA59
:1013D00007FC4CEA030C25FA07FA4FEA1C49BAFB52
:1013E000F9F820FA07F309FB18AA8D401FFA8CFEC2
:1013F0001D4300FA01F308FB0EF02C0C44EA0A44EA
:10140000A04202FA01F20BD91CEB040408F1FF3AE6
:1014100080F08880A04240F28580A8F102086444F0
:10142000241AB4FBF9F009FB104400FB0EFEADB228
:1014300045EA0444A64508D91CEB040400F1FF3535
:101440006CD2A6456AD90238644440EA0840A0FB41
:101450000295A4EB0E04AC42C846AE4656D353D018
:10146000002E69D0B3EB080264EB0E0422FA01F3FC
:1014700004FA07F71F43CC40C6E90074002147E790
:101480000CFA02FCC2F1200125FA01F34FEA1C47D5
:1014900020FA01F195400D43B3FBF7F107FB11333F
:1014A0001FFA8CFE280C40EA034001FB0EF3834236
:1014B00004FA02F408D91CEB000001F1FF382FD226
:1014C00083422DD902396044C01AB0FBF7F307FB01
:1014D0001300ADB245EA004503FB0EF0A84208D95F
:1014E0001CEB050503F1FF3816D2A84214D9023BC4
:1014F0006544281A43EA014138E73146304607E798
:101500002F46E4E61846F9E64B45A9D2B9EB0208A6
:1015100065EB0C0E0138A3E74346EAE7284694E75B
:101520004146D1E7D0467BE76444023847E7023BB7
:1015300065442FE7084606E73146E9E6704700BFF5
:101540000FB410B582B004AB53F8042B0193084CD0
:101550004FF40071204603F04DF982B22146054850
:1015600002F080FE02B0BDE8104004B0704700BF3A
:10157000D4090020A41100202DE9F843304D28465D
:1015800002F092F9DFF8BC900421484602F000FD19
:101590002D4E01224FF40041304601F09BFD002208
:1015A0004FF48041304601F095FD0021284602F0BD
:1015B00081FC264F4FF00008C7F824802B680024D8
:1015C0005C63D9F800305C62DFF8849004214846FF
:1015D00002F0DEFC01224FF40051304601F07AFDAA
:1015E00022464FF48051304601F074FD0421284614
:1015F00002F060FCC7F824802B689C63D9F80030A7
:101600005C62144E0421304602F0C2FCDFF84890C0
:1016100001224FF40061484601F05CFD22464FF480
:101620008061484601F056FD0821284602F042FC40
:10163000C7F824802B68DC6333685C62BDE8F883FC
:101640004C100020740F0020000C01407C0D002085
:10165000BC0F0020041000200008014038B502280B
:1016600022D0032839D0012805D0284B1868FFF76D
:1016700061FC00B238BD264B1D682B68C3F3001314
:10168000244A13806C6A24B22046FFF739FA0146D7
:101690001E4B1860204B1C80204C2068FFF77CF903
:1016A000206000236B62E0E71D4B1D682B68C3F3CD
:1016B0000013184A13806C6A24B22046FFF720FA00
:1016C0000146124B1860174B1C80174C2068FFF71F
:1016D00063F9206000236B62C7E7144B1D682B6819
:1016E000C3F300130B4A13806C6A24B22046FFF741
:1016F00007FA0146054B18600D4B1C800D4C206805
:10170000FFF74AF9206000236B62AEE7F40D00207A
:10171000740F0020D40B0020040E0020D80D0020F0
:10172000BC0F0020060E0020D00D00200410002069
:10173000080E0020D40D002008B50949FFF734FA3F
:10174000FEF76AFE04A3D3E90023FEF7E7FFFFF7E5
:10175000CDF808BDAFF300806766666666662A400E
:101760000000704238B50C4800F02CFC0B4D2846A8
:1017700000F028FC0A4800F025FC0A4C204600F046
:1017800021FC094800F01EFC084800F01BFC084B37
:10179000EB64E36438BD00BF7C0D0020800C0020AA
:1017A000D40C0020D80B0020280D00202C0C002089
:1017B0000000484308B5FFF7DFFEFFF7D3FF08BD81
:1017C000F8B5314C314BE364314D4FF080432B6021
:1017D00000276F602F4BAB602F4B186800F1004063
:1017E00000F0CAF968622D4B23602D4B63602D4BCE
:1017F000A3600120FFF732FFFFF782F92A4E306025
:10180000FFF79AFF3060294B1968284600F05CFB0F
:10181000284600F089FB264B1B6803F100436362F6
:101820003168204600F050FB204600F07DFB394631
:10183000E069FFF757FBA0B91E4C01224FF40041AD
:10184000204601F047FC00224FF48041204601F081
:1018500041FC194B1C680C4BD869FFF791FB606386
:10186000F8BD144C00224FF40041204601F032FC38
:1018700001224FF48041204601F02CFC024AD3693A
:1018800003F10043D361E4E77C0D00200000E14355
:10189000800C00209A99993EE40D00200000404001
:1018A000AE47E13DCDCC4C3D000E0020D80D0020D0
:1018B000F00D0020000C01404C100020F8B5314C18
:1018C000314B2360314B6360314BA360314BE36498
:1018D000314D4FF080432B6000276F602F4BAB6082
:1018E0002F4B186800F1004000F046F968620220B2
:1018F000FFF7B4FEFFF704F92A4E3060FFF71CFF34
:101900003060294B1968284600F0DEFA284600F0BE
:101910000BFB264B1B6803F10043636231682046D2
:1019200000F0D2FA204600F0FFFA3946E069FFF7EE
:10193000D9FAA0B91E4C00224FF40051204601F004
:10194000C9FB01224FF48051204601F0C3FB194B23
:101950001C680C4BD869FFF713FBA063F8BD144C4F
:1019600001224FF40051204601F0B4FB00224FF455
:101970008051204601F0AEFB024AD36903F10043D7
:10198000D361E4E7D40C002066664640B81E053EED
:10199000CDCC4C3D0000E143D80B00209A99993EF4
:1019A000DC0D0020F80D0020D00D0020E80D0020F7
:1019B000000C01404C100020F8B52F4C2F4B236039
:1019C0002F4B63602F4BA3602F4BE3642F4D4FF0E1
:1019D00080432B6000276F602D4BAB602D4B186848
:1019E00000F0CAF868620320FFF738FEFFF788F8B6
:1019F000294E3060FFF7A0FE3060284B196828465A
:101A000000F062FA284600F08FFA254B1B686362EB
:101A10003168204600F058FA204600F085FA394631
:101A2000E069FFF75FFAA0B91E4C00224FF4006195
:101A3000204601F04FFB01224FF48061204601F067
:101A400049FB194B1C680C4BD869FFF799FAE06306
:101A5000F8BD144C01224FF40061204601F03AFB1E
:101A600000224FF48061204601F034FB024AD36922
:101A700003F10043D361E4E7280D00206666464089
:101A8000B81E053ECDCC4C3D0000E1432C0C00209F
:101A90009A99993EE00D0020FC0D0020D40D002005
:101AA000EC0D0020000801404C10002008B5074B49
:101AB000834200D008BDFFF783FEFFF7FFFEFFF76C
:101AC0007BFF01210248FFF73BFDF3E74C100020AC
:101AD00050A7000870B5164B01221A700023154A52
:101AE0001370154A1370154A1360154A1370154A7E
:101AF0001360154A1360154A00211160144A1370CF
:101B0000144A1370144A1370144A1360144E30466A
:101B100000F058FA134C204600F054FA124D2846B3
:101B200000F050FA114BF364114BEB64E36470BDA9
:101B3000780E0020D20E0020D00E0020180E0020BB
:101B4000100E00201C0E0020140E00200C0E002091
:101B5000D10E0020D30E0020D40E0020200E002035
:101B60007C0E0020D80E0020240E00200000A04192
:101B7000000020410000000008B50B49FFF714F8F1
:101B80000A49FFF7C5F8FEF747FC05A3D3E9002390
:101B9000FEF7C4FDFEF7AAFE08BD00BFAFF300804C
:101BA0006F1283C0CA2109400000A5440000E04034
:101BB00008B501220249034802F083FD08BD00BFB9
:101BC0006C0F0020A411002010B5444B1B780BB9FA
:101BD0002C280BD0012B14D0022B1FD0032B4FD05D
:101BE00000233E4A13703E4A13706EE03B4B0122C5
:101BF0001A703B4A1378591C11703A4A22F81300A4
:101C000065E01228E8D1354B02221A70344A137865
:101C1000591C1170334A22F8130058E030490A78F1
:101C2000531CDBB20B702F4921F81200092B01D88D
:101C30005B284CD1294A032111702B4A01211170D4
:101C4000591F284A12F911C0284981F800C0191FEC
:101C500012F9110026490870D91E12F91110254CED
:101C60002170023B12F91330234A1370234AA2F861
:101C700000C0234A1080234A1170234A137026E0C3
:101C8000174B1B78013B174A32F913305B2B05D0F9
:101C90000023124A1370124A13700DE00023124AF7
:101CA00013700F4A13700D4A137010E00D4A002193
:101CB00022F813100133DBB2092BF7D907E0094AE8
:101CC000002122F813100133DBB2092BF7D90122CE
:101CD0000E490F4802F0F5FC10BD00BF590F00205F
:101CE000550F0020400F0020570F0020660F0020E6
:101CF000680F0020640F0020620F00205E0F00209C
:101D00005A0F0020D20E00206A0F00206C0F002016
:101D1000A411002008B501220249034802F0D1FCB9
:101D200008BD00BF6D0F0020E811002010B5424B28
:101D30001B780BB92C280BD0012B14D0022B1FD0F1
:101D4000032B4CD000233C4A13703C4A13706BE0C9
:101D5000394B01221A70394A1378591C1170384ACC
:101D600022F8130062E01228E8D1334B02221A70E5
:101D7000324A1378591C1170314A22F8130055E089
:101D80002E490A78531CDBB20B702D4921F8120042
:101D9000092B01D85B2849D1274A03211170294A10
:101DA00001211170591F264A12F9110026490870A5
:101DB000191F12F91110254C2170DC1E32F914C0C4
:101DC000234C84F800C0023B12F91330214A1370EF
:101DD000214A1080214A1180214A137026E0174BB6
:101DE0001B78013B164A32F913305B2B05D00023D8
:101DF000114A1370114A13700DE00023114A137039
:101E00000E4A13700C4A137010E00D4A002122F89C
:101E100013100133DBB2092BF7D907E0084A002180
:101E200022F813100133DBB2092BF7D901220D4937
:101E30000D4802F046FC10BD580F0020540F002042
:101E40002C0F0020560F0020670F0020690F002084
:101E5000650F0020630F0020600F00205C0F002042
:101E60006B0F00206D0F0020E811002010B5044614
:101E700002680F4B9A420ED001220E490E4802F022
:101E800020FC22680D4B9A420BD001220C490D48D0
:101E900002F017FC10BD074B93F90000FFF794FE0A
:101EA000EAE7074B93F90000FFF740FFEDE700BFBB
:101EB000004400406C0F0020A411002000480040A6
:101EC0006D0F0020E811002070B50446816203699F
:101ED0004361C3680361406AFEF75CFD0546E0604C
:101EE000666C3146FEF7FEFF38B106F10041284628
:101EF000FFF716F808B10023E360A169E068FEF778
:101F00004BFD0546A061A66C3146FFF709F808B104
:101F1000A66170BD06F1004631462846FEF7E2FF95
:101F20000028F6D0A661F4E7F8B50446C668314645
:101F30000068FEF739FE0546A76821693046FEF7BE
:101F400029FD01463846FEF72FFE01462846FEF7DA
:101F500023FD0546E0616168A069FEF725FE0146A4
:101F60002846FEF719FDE061E56C2946FEF7CEFF35
:101F700000B1E56105F100452946E069FEF7BCFFC7
:101F800000B1E561256A2946E069FEF703FD266D8B
:101F90003146FEF7C5FF20B131462846FEF7FCFC6E
:101FA000E0612946E069FEF7F5FC06F10041FEF725
:101FB00099FF20B131462846FEF7ECFCE061E0696C
:101FC0002062F8BD0023036043608360C360036147
:101FD00043618361C361036243628362012280F8CB
:101FE0002C20036343634FF07E5181630749C16333
:101FF00080F84020002280F841204364044B836431
:10200000044BC364044B0365704700BF000070417C
:1020100000803B4500401F460080474500B583B027
:10202000164B5A6942F001025A615B6903F00103E1
:102030000193019B002211460C2000F049FD0C2069
:1020400000F07EFD002211460D2000F041FD0D2024
:1020500000F076FD00221146102000F039FD10201E
:1020600000F06EFD00221146112000F031FD11201C
:1020700000F066FD03B05DF804FB00BF00100240F5
:102080002DE9F04389B00024049405940694079444
:102090002F4B9A6942F010029A619A6902F010027D
:1020A0000092009A9A6942F020029A619A6902F0BD
:1020B00020020192019A9A6942F004029A619A6997
:1020C00002F004020292029A9A6942F008029A61AE
:1020D0009B6903F008030393039BDFF87890224683
:1020E0004FF40051484600F0F5FFDFF86C802246BF
:1020F0004FF21801404600F0EDFF184F22464FF412
:102100004061384600F0E6FF4FF400530493012687
:10211000059606940225079504A9484600F0C8FED6
:102120004FF21803049305960694079504A94046B8
:1021300000F0BEFE4FF440630493059606940795A5
:1021400004A9384600F0B4FE09B0BDE8F08300BF32
:102150000010024000100140000C01400008014046
:1021600072B6FEE700B591B02822002106A802F061
:10217000EFFA002301930293039304930593012242
:1021800006924FF4803307930A9202220D920E9327
:102190004FF4E0130F9306A800F0B8FF80B90F23A7
:1021A000019302210291002303934FF48062049271
:1021B000059301A801F0EAF920B911B05DF804FB1C
:1021C000FFF7CEFFFFF7CCFF08B500F037FCFFF7B5
:1021D000C9FFFFF755FFFFF721FF00F0F5F800F00A
:1021E00027F900F057F900F04DFA00F0C3FA00F0BB
:1021F000DBFA094801F058FBFFF7DCFAFFF7BCF9FE
:10220000FFF7D6FCFFF786FD4FF4FA6000F03AFCCA
:10221000FFF760FCFEE700BF4C10002082B00E4BC1
:102220009A6942F001029A619A6902F001020092F1
:10223000009ADA6942F08052DA61DB6903F0805378
:102240000193019B054A536823F0E06343F0007358
:10225000536002B0704700BF001002400000014010
:10226000FEE7FEE7FEE7FEE7FEE7704770477047D0
:1022700008B500F0F5FB08BD08B5024800F076FD92
:1022800008BD00BF6011002008B5024800F06EFDD7
:1022900008BD00BF1C11002008B5024800F066FD13
:1022A00008BD00BF9410002008B5024800F05EFD94
:1022B00008BD00BFD810002008B5024801F02DFB72
:1022C00008BD00BFBC0F002008B5024801F025FB87
:1022D00008BD00BF0410002008B5024801F01DFB36
:1022E00008BD00BF4C10002008B5024802F0CCF831
:1022F00008BD00BFA411002008B5024802F0C4F8D0
:1023000008BD00BFE81100200120704708B502F0A9
:10231000F5F9162303604FF0FF3008BD08B54FF004
:10232000FF31FFF7F3FFFEE770B50C4616460025B8
:1023300006E0AFF30080214601F8010B01350C46A1
:10234000B542F6DB304670BD70B50C46164600252A
:1023500004E014F8010BAFF300800135B542F8DB5F
:10236000304670BD4FF0FF3070474FF400534B6064
:1023700000207047012070470020704710B50346C9
:102380000C4A0D490D48006840B10C4800680344F0
:10239000521A934206D8094A136010BD0748084CE8
:1023A0000460F2E702F0AAF90C2303604FF0FF305B
:1023B000F3E700BF0050002000040000700F002071
:1023C000781200207047000000B58DB02422002153
:1023D00003A802F0BDF90023019302931248134AA7
:1023E0000260436083604FF6FF72C2600361436125
:1023F000802383610323039301230593099303A996
:1024000001F0DAFB50B900230193029301A90648B9
:1024100001F024FE28B90DB05DF804FBFFF7A0FE23
:10242000F1E7FFF79DFEF6E7740F0020002C014056
:1024300000B58DB02422002103A802F089F9002301
:102440000193029312484FF0804202604360836020
:102450004FF6FF72C26003618023836103230393FD
:1024600001230593099303A901F0A6FB50B90023AA
:102470000193029301A9064801F0F0FD28B90DB0BF
:102480005DF804FBFFF76CFEF1E7FFF769FEF6E786
:10249000BC0F002000B58DB02422002103A802F05B
:1024A00057F90023019302931248134A02604360D4
:1024B00083604FF6FF72C260036180238361032350
:1024C000039301230593099303A901F075FB50B908
:1024D00000230193029301A9064801F0BFFD28B92A
:1024E0000DB05DF804FBFFF73BFEF1E7FFF738FEA8
:1024F000F6E700BF041000200004004000B58BB0D8
:10250000002306930793089309930368354A93427F
:1025100008D0B3F1804F20D0334A934240D00BB063
:102520005DF804FB314B9A6942F400629A619A6942
:1025300002F400620092009A9A6942F004029A61E1
:102540009B6903F004030193019B4FF440730693CE
:1025500006A9274800F0ACFCE1E703F50433DA698B
:1025600042F00102DA61DA6902F001020292029A93
:102570009A6942F004029A619B6903F00403039391
:10258000039B0323069306A9194800F091FC00223F
:1025900011461C2000F09CFA1C2000F0D1FABEE786
:1025A000124BDA6942F00202DA61DA6902F00202E1
:1025B0000492049A9A6942F004029A619B6903F0BA
:1025C00004030593059BC023069306A9084800F061
:1025D0006FFC002211461D2000F07AFA1D2000F049
:1025E000AFFA9CE7002C01400004004000100240BC
:1025F0000008014002680E4B9A4200D0704700B5B7
:1026000083B003F50233DA6942F00402DA61DB6970
:1026100003F004030193019B002201211E2000F01E
:1026200057FA1E2000F08CFA03B05DF804FB00BFDF
:102630000008004000B587B0002302930393049381
:10264000059302680D4B9A4202D007B05DF804FB77
:1026500003F502339A6942F008029A619B6903F01C
:1026600008030193019B4FF47073029302230393B9
:10267000059302A9024800F01BFCE6E700080040B1
:10268000000C014000B58FB000230A930B930C930C
:102690000D93089309930193029303930493059375
:1026A000069307933148324A026040F29F524260DB
:1026B000836040F2F312C26003618023836101F002
:1026C00023FA002839D14FF480530A930AA92748E6
:1026D00001F074FB002833D1244801F041FA0028AE
:1026E00031D100230893099308A9204801F0B6FCD2
:1026F00060BB60230193002202920392059201A91C
:102700001A4801F0E7FA20BB04220DEB020117483A
:1027100001F0E0FA00BB082201A9144801F0DAFA3E
:10272000E8B90C2201A9114801F0D4FAD0B90F4838
:10273000FFF780FF0FB05DF804FBFFF711FDC2E764
:10274000FFF70EFDC8E7FFF70BFDCAE7FFF708FD2F
:10275000CFE7FFF705FDD7E7FFF702FDDBE7FFF760
:10276000FFFCDEE7FFF7FCFCE1E700BF4C100020B8
:102770000008004008B50A480A4B03604FF4E133F3
:10278000436000238360C36003610C224261836164
:10279000C36101F037FD00B908BDFFF7E1FCFBE7BD
:1027A000A41100200044004008B50A480A4B036009
:1027B0004FF4E133436000238360C36003610C2264
:1027C00042618361C36101F01DFD00B908BDFFF7DF
:1027D000C7FCFBE7E81100200048004070B588B056
:1027E0000446002304930593069307930368604A05
:1027F000934204D05F4A93425CD008B070BD5E4BF8
:10280000DA6942F40032DA61DA6902F400320092E5
:10281000009A9A6942F004029A619B6903F00403EA
:102820000193019B0423049302230593032307933D
:10283000524E04A9304600F03BFB082304930025C8
:102840000595069504A9304600F032FB4C484D4BE7
:102850000360456085608023C36005614561202376
:102860008361C56100F0A4F9F0B9454BA3635C62D4
:102870004548464B03601023436000238360802259
:10288000C260036143618361C36100F091F970B973
:102890003D4B63635C6200221146262000F018F96C
:1028A000262000F04DF9A8E7FFF75AFCDDE7FFF717
:1028B00057FCEDE7304BDA6942F48022DA61DA69DD
:1028C00002F480220292029A9A6942F008029A6106
:1028D0009B6903F008030393039B4FF48063049305
:1028E0000223059303230793294E04A9304600F0E1
:1028F000DFFA4FF40063049300250595069504A9BB
:10290000304600F0D5FA2348234B036045608560CC
:102910008023C3600561456120238361C56100F0A8
:1029200047F9F0B91B4BA3635C621C481C4B036066
:1029300010234360002383608022C26003614361EF
:102940008361C36100F034F970B9144B63635C6256
:1029500000221146272000F0BBF8272000F0F0F8F5
:102960004BE7FFF7FDFBDDE7FFF7FAFBEDE700BF05
:1029700000440040004800400010024000080140B0
:10298000941000206C000240D8100020800002400B
:10299000000C01401C11002030000240601100209A
:1029A0001C0002400C480D490D4A002302E0D45897
:1029B000C4500433C4188C42F9D30A4A0A4C002389
:1029C00001E013600432A242FBD3FFF7FBFC01F0ED
:1029D0009BFEFFF7F9FB704700000020B8090020BC
:1029E00098AB0008B809002078120020FEE700002C
:1029F00010B504460E4B18784FF47A73B3FBF0F31E
:102A00000C4A1068B0FBF3F000F0A8F868B90F2C7E
:102A100001D901200AE0002221464FF0FF3000F0EA
:102A200057F8054B1C60002000E0012010BD00BFDE
:102A300004000020000000200800002008B5074A1C
:102A4000136843F010031360032000F02FF80F20E9
:102A5000FFF7CEFFFFF7E2FB002008BD0020024099
:102A6000034A1168034B1B780B441360704700BF87
:102A70002C12002004000020014B1868704700BF92
:102A80002C12002038B50446FFF7F6FF0546B4F1D6
:102A9000FF3F02D0044B1B781C44FFF7EDFF401BA7
:102AA000A042FAD338BD00BF04000020074AD36813
:102AB00023F4E0631B041B0C000200F4E0600343FA
:102AC00043F0BF6343F40033D360704700ED00E090
:102AD00000B5194BDB68C3F30223C3F1070CBCF14B
:102AE000040F28BF4FF0040C03F1040EBEF1060FD3
:102AF00018D9033B4FF0FF3E0EFA0CFC21EA0C0103
:102B000099400EFA03F322EA0303194300280BDB72
:102B10000901C9B200F1604000F5614080F800137E
:102B20005DF804FB0023E5E700F00F000901C9B2DE
:102B3000024B1954F4E700BF00ED00E014ED00E093
:102B4000002807DB00F01F02400901239340024ADE
:102B500042F82030704700BF00E100E00138B0F1DA
:102B6000807F0BD24FF0E0235861054AF02182F8B4
:102B700023100020986107221A61704701207047D6
:102B800000ED00E030B40124056CAC40C56B6C6016
:102B9000046863604368102B05D00368996003687C
:102BA000DA6030BC704703689A600368D960F8E760
:102BB00060B310B402460168154B0B441548A0FBE6
:102BC00003031B099B001364134BD363022382F896
:102BD0002130086820F47F5020F03000536894685A
:102BE0002343D468234314692343546923439469DA
:102BF0002343D469234303430B60002090630123E4
:102C000082F8213082F8200010BC70470120704704
:102C1000F8FFFDBFCDCCCCCC0000024038B5044657
:102C200090F82000012831D0012084F8200094F889
:102C30002100012804D0002384F82030022038BD70
:102C4000022084F821000020A0632568286820F075
:102C5000010028602046FFF795FFE36A5BB1226818
:102C6000136843F00E0313602268136843F00103F6
:102C700013600020E3E72268136823F00403136065
:102C80002268136843F00A031360EDE70220D6E7D9
:102C900090F82130022B06D004238363002380F8B0
:102CA0002030012070470268136823F00E03136080
:102CB0000268136823F001031360036CC16B0122E7
:102CC00002FA03F34B6080F82120002380F82030C3
:102CD0001846704708B590F82130022B03D0042322
:102CE0008363012008BD0268136823F00E0313609C
:102CF0000268136823F0010313600368194A9342C2
:102D000014D0143293421FD0143293421ED0143286
:102D100093421ED0143293421ED01432934202D0FA
:102D20004FF0807203E04FF4801200E001220E4B5E
:102D30005A60012380F82130002380F82030436B53
:102D40006BB198470020CDE71022F0E74FF4807276
:102D5000EDE74FF48052EAE74FF48032E7E70020D6
:102D6000C0E700BF080002400000024038B5C36B56
:102D70001A6804682568016C04238B40134235D01F
:102D800015F0040F32D0236813F0200F03D123680D
:102D900023F0040323600368434A934214D014329F
:102DA000934218D01432934217D01432934217D062
:102DB0001432934217D01432934202D04FF0806203
:102DC00003E04FF4800200E00422384B5A60C36AEB
:102DD00003B1984738BD4022F7E74FF48062F4E72B
:102DE0004FF48042F1E74FF48022EEE702238B405C
:102DF00013423CD015F0020F39D0236813F0200F96
:102E000006D1236823F00A032360012380F82130D0
:102E10000368254A934214D0143293421CD01432D2
:102E200093421BD0143293421BD0143293421BD0D6
:102E30001432934202D04FF0007203E04FF40012BC
:102E400000E00222194B5A60002380F82030836A88
:102E5000002BBFD09847BDE72022F3E74FF4007264
:102E6000F0E74FF40052EDE74FF40032EAE70823B1
:102E700003FA01F11142ADD015F0080FAAD0236872
:102E800023F00E032360026CC16B012303FA02F2EC
:102E90004A60836380F82130002380F82030036B80
:102EA000002B97D0984795E70800024000000240A9
:102EB00070B582B00024A446A6E0804DAA4210D08E
:102EC00007D97F4DAA420CD005F58035AA4208D01B
:102ED00013E0A5F58015AA4203D005F57025AA4296
:102EE00007D18A68002A58D0012A51D043610824AA
:102EF00003E0A5F58015AA42F3D0BEF1FF0F4ED82E
:102F00000646BEF1FF0F4CD84FEA8C0233680F25FE
:102F1000954023EA050304FA02F2134333604B6839
:102F200013F0805F6ED0674B9A6942F001029A619C
:102F30009B6903F001030193019B4FEA9C02951CDE
:102F4000614B53F825600CF003039D000F23AB4049
:102F500026EA03065D4B984229D003F58063984228
:102F600000F08E8003F58063984200F08B8003F5BB
:102F70008063984219D004231AE0CC68BDE7CC687E
:102F80000434BAE7CC680834B7E7CC680C34B4E74B
:102F900003610824B1E70024AFE70424ADE7061D70
:102FA000AFE7ACF108029200B0E7032300E0002392
:102FB000AB4033430232444D45F822304B6813F4A2
:102FC000803F61D0424A136843EA0E0313604B68A6
:102FD00013F4003F5ED03E4A536843EA0E03536049
:102FE0004B6813F4801F5BD0394A936843EA0E03A1
:102FF00093604B6813F4001F58D0354AD36843EAF6
:103000000E03D3600CF1010C0A6832FA0CF353D0B2
:10301000012303FA0CF302EA030E33EA0202F1D1B0
:103020004A68122A3FF649AF122A3FF666AF01A559
:1030300055F822F0E32E00087B2F0008852F0008AA
:10304000972F0008FB2E0008FB2E0008FB2E00081F
:10305000FB2E0008FB2E0008FB2E0008FB2E0008AC
:10306000FB2E0008FB2E0008FB2E0008FB2E00089C
:10307000FB2E0008FB2E00087F2F00088B2F000876
:10308000012395E7022393E7114A136823EA0E030D
:1030900013609CE70E4A536823EA0E0353609FE7D0
:1030A0000B4A936823EA0E039360A2E7084AD368A9
:1030B00023EA0E03D360A5E702B070BD0000221022
:1030C00000003110001002400000014000080140E3
:1030D000000401400AB101617047090401617047B1
:1030E00082B0084B1B68084AA2FB03235B0A00FB63
:1030F00003F3019300BF019B5A1E0192002BF9D1EB
:1031000002B0704700000020D34D6210002800F08C
:10311000F18170B582B00446036813F0010F2CD022
:10312000994B5B6803F00C03042B1DD0964B5B6836
:1031300003F00C03082B12D06368B3F5803F41D035
:10314000002B55D103F1804303F504331A6822F4B0
:1031500080321A601A6822F480221A6037E08A4BA3
:103160005B6813F4803FE7D0874B1B6813F4003F84
:1031700003D06368002B00F0BF81236813F0020FB7
:1031800075D0814B5B6813F00C0F5FD07E4B5B6892
:1031900003F00C03082B54D02369002B00F08A8025
:1031A0007A4B01221A60FFF767FC0546764B1B68D5
:1031B00013F0020F75D1FFF75FFC401B0228F5D911
:1031C00003209EE1704A136843F480331360636800
:1031D00043B3FFF751FC05466B4B1B6813F4003FEC
:1031E000CBD1FFF749FC401B6428F5D9032088E1C7
:1031F000B3F5A02F09D0644B1A6822F480321A600C
:103200001A6822F480221A60E1E703F18043A3F5F3
:103210003C331A6842F480221A601A6842F4803201
:103220001A60D4E7FFF728FC0546574B1B6813F4D8
:10323000003FA2D0FFF720FC401B6428F5D90320F3
:103240005FE1514B5B6813F4803FA5D14E4B1B6887
:1032500013F0020F03D02369012B40F04F814A4A3B
:10326000136823F0F803616943EAC103136023681C
:1032700013F0080F33D0A369002B5CD0434B01221D
:10328000C3F88024FFF7F8FB05463F4B5B6A13F059
:10329000020F21D1FFF7F0FB401B0228F5D90320D4
:1032A0002FE1394A136823F0F803616943EAC10347
:1032B0001360DCE7354B00221A60FFF7DDFB0546A3
:1032C000314B1B6813F0020FD1D0FFF7D5FB401B29
:1032D0000228F5D9032014E10120FFF701FF23683C
:1032E00013F0040F00F09680274BDB6913F0805F2A
:1032F00034D1254BDA6942F08052DA61DB6903F0A0
:1033000080530193019B0125214B1B6813F4807F9F
:1033100026D0E368012B3DD0002B53D103F180432D
:1033200003F504331A6A22F001021A621A6A22F0C3
:1033300004021A6233E0154B0022C3F88024FFF721
:103340009BFB0546104B5B6A13F0020FC7D0FFF7DB
:1033500093FB401B0228F5D90320D2E00025D3E7D8
:103360000B4A136843F480731360FFF785FB06462E
:10337000074B1B6813F4807FCBD1FFF77DFB801BCD
:103380006428F5D90320BCE000100240000042424E
:10339000007000405F4A136A43F001031362E36860
:1033A00033B3FFF769FB06465A4B1B6A13F0020F53
:1033B0002FD1FFF761FB801B41F288339842F3D98C
:1033C00003209EE0052B09D0524B1A6A22F001021D
:1033D0001A621A6A22F004021A62E0E74D4B1A6A76
:1033E00042F004021A621A6A42F001021A62D6E737
:1033F000FFF742FB0646474B1B6A13F0020F08D04B
:10340000FFF73AFB801B41F288339842F3D903203F
:1034100077E0E5B9E369002B72D03E4A526802F0CA
:103420000C02082A56D0022B17D03B4B00221A66FA
:10343000FFF722FB0446374B1B6813F0007F47D091
:10344000FFF71AFB001B0228F5D9032059E0314A87
:10345000D36923F08053D361DCE72F4B00221A6637
:10346000FFF70AFB05462B4B1B6813F0007F06D0C5
:10347000FFF702FB401B0228F5D9032041E0236A35
:10348000B3F5803F1AD023494B6823F47413226AA2
:10349000606A024313434B601F4B01221A66FFF719
:1034A000EBFA04461B4B1B6813F0007F0ED1FFF7AD
:1034B000E3FA001B0228F5D9032022E0154A5368DD
:1034C00023F40033A1680B435360DCE7002018E0CD
:1034D000002016E0012B16D00E4B5B6803F4803100
:1034E000226A914211D103F47013626A93420ED1A1
:1034F000002006E001207047012002E0012000E0EA
:10350000002002B070BD0120FBE70120F9E7012097
:10351000F7E700BF001002400000424286B0174BA0
:103520000FCB0DF1180C0CE90F0040F20123ADF8A0
:103530000430134B5B6803F00C02082A02D01148D8
:1035400006B07047C3F3834218326A4412F8100C75
:1035500013F4803F0DD00A4B5B68C3F3404318332C
:103560006B4413F8143C074A02FB00F0B0FBF3F085
:10357000E6E7054B03FB00F0E2E700BF70A7000899
:103580000010024000127A0000093D00002800F0FF
:10359000A08070B50D460446524B1B6803F007032C
:1035A0008B420BD24F4A136823F007030B4313607F
:1035B000136803F007038B4240F08D80236813F0FB
:1035C000020F17D013F0040F04D0474A536843F496
:1035D000E0635360236813F0080F04D0424A536835
:1035E00043F460535360404A536823F0F003A168EA
:1035F0000B435360236813F0010F31D06368012B34
:1036000020D0022B25D0384A126812F0020F64D065
:1036100035494A6822F0030213434B60FFF72CFA46
:103620000646314B5B6803F00C036268B3EB820F14
:1036300016D0FFF721FA801B41F288339842F0D967
:10364000032045E0284A126812F4003FE0D101202F
:103650003EE0254A126812F0007FD9D1012037E000
:10366000204B1B6803F00703AB420AD91D4A1368BD
:1036700023F007032B431360136803F00703AB42E7
:103680002DD1236813F0040F06D0174A536823F492
:10369000E063E1680B435360236813F0080F07D021
:1036A000114A536823F46053216943EAC10353600C
:1036B000FFF734FF0C4B5B68C3F303130B4AD35C77
:1036C000D8400B4B18600B4B1868FFF791F900209E
:1036D00070BD012070470120FAE70120F8E70120C2
:1036E000F6E700BF002002400010024058A7000883
:1036F0000000002008000020014B1868704700BF40
:103700000000002008B5FFF7F7FF044B5B68C3F328
:103710000223034AD35CD84008BD00BF001002401A
:1037200068A7000808B5FFF7E7FF044B5B68C3F321
:10373000C223034AD35CD84008BD00BF001002403A
:1037400068A7000870B4036A23F001030362036AE8
:103750004668826922F073020C6844EA020523F08D
:1037600002028B6813430D4CA04209D00B4CA042BF
:103770000DD0466085614A684263036270BC704741
:1037800023F00803CA68134323F00403EEE726F48A
:1037900040764A6932438E691643EAE7002C0140BD
:1037A00030B4036A23F480730362036A4568C26914
:1037B00022F073020C68224323F400738C6843EAFE
:1037C00004230F4CA04209D00D4CA0420ED04560FE
:1037D000C2614A68C263036230BC704723F400636D
:1037E000CC6843EA042323F48063EDE725F44055D5
:1037F0004C6945EA04158C6945EA0415E7E700BF02
:10380000002C014030B4036A23F480530362036A3E
:103810004468C26922F4E6420D6842EA052223F4B4
:1038200000538D6843EA0533074DA84206D0446033
:10383000C2614A680264036230BC704724F4804469
:103840004D6944EA8514F2E7002C014010B4036A84
:10385000046A24F001040462846924F0F00C4CEA48
:10386000021223F00A030B438261036210BC70470B
:1038700010B4046A24F0100404628469036A24F416
:10388000704C4CEA023223F0A00343EA0113826138
:10389000036210BC7047836823F070030B4343F04E
:1038A000070383607047000090F83D30DBB2012BC6
:1038B00027D1022380F83D300268D36843F001032A
:1038C000D3600368114A934210D0B3F1804F0DD0FA
:1038D000A2F59432934209D002F58062934205D05A
:1038E0001A6842F001021A60002070479A6802F0DC
:1038F0000702062A07D01A6842F001021A60002067
:103900007047012070470020704700BF002C014025
:103910007047704770477047704710B5044603689A
:103920001A6912F0020F11D0DA6812F0020F0DD0EE
:103930006FF002021A610123037703689B6913F099
:10394000030F70D0FFF7E6FF0023237723681A697F
:1039500012F0040F12D0DA6812F0040F0ED06FF0DC
:1039600004021A610223237723689B6913F4407FC2
:103970005FD02046FFF7CEFF0023237723681A6924
:1039800012F0080F12D0DA6812F0080F0ED06FF0A4
:1039900008021A61042323772368DB6913F0030FFD
:1039A0004ED02046FFF7B6FF0023237723681A691D
:1039B00012F0100F12D0DA6812F0100F0ED06FF064
:1039C00010021A61082323772368DB6913F4407F10
:1039D0003DD02046FFF79EFF0023237723681A6916
:1039E00012F0010F03D0DA6812F0010F36D123680C
:1039F0001A6912F0800F03D0DA6812F0800F34D108
:103A000023681A6912F0400F03D0DA6812F0400FF1
:103A100032D123681A6912F0200F03D0DA6812F04D
:103A2000200F30D110BDFFF774FF2046FFF773FF62
:103A30008AE72046FFF76DFF2046FFF76CFF9BE704
:103A40002046FFF766FF2046FFF765FFACE72046FC
:103A5000FFF75FFF2046FFF75EFFBDE76FF0010253
:103A60001A612046FEF722F8C1E76FF080021A6162
:103A7000204600F02AFBC3E76FF040021A6120469F
:103A8000FFF74AFFC5E76FF020021A61204600F0F9
:103A90001BFBC7E703681B4A90420AD0B0F1804F76
:103AA00007D0A2F59432904203D002F58062904292
:103AB00003D123F070034A681343124A90420AD09C
:103AC000B0F1804F07D0A2F59432904203D002F5B6
:103AD0008062904203D123F44073CA68134323F0F9
:103AE00080034A69134303608B68C3620B68836277
:103AF000044B984202D00123436170470B69036372
:103B0000F9E700BF002C014040B310B5044690F81F
:103B10003D30F3B1022384F83D30214651F8040BC7
:103B2000FFF7B8FF012384F8463084F83E3084F86C
:103B30003F3084F8403084F8413084F8423084F8D3
:103B4000433084F8443084F8453084F83D30002018
:103B500010BD80F83C30FEF74DFDDBE701207047DB
:103B600040B310B5044690F83D30F3B1022384F819
:103B70003D30214651F8040BFFF78CFF012384F8F8
:103B8000463084F83E3084F83F3084F8403084F882
:103B9000413084F8423084F8433084F8443084F86B
:103BA000453084F83D30002010BD80F83C30FFF7F0
:103BB000AFFEDBE701207047002857D070B50D46F7
:103BC000044690F83D30002B4BD0022384F83D3062
:103BD0002268936823F4804323F00703936021460F
:103BE00051F8040BFFF756FF21688A688B690E6A4B
:103BF0002868104323F4407C2CF0030CAA68AB69BE
:103C000042EA032343EA0C0323F47C4323F0FC033E
:103C1000EA69D5F80CC04CEA022C4CEA030C2A6A7B
:103C200013032A6943EA021343EA0C0326F022062F
:103C30006A686D6942EA05123243886021688B61C7
:103C400023681A62012384F8463084F83E3084F8F1
:103C50003F3084F8423084F8433084F83D3000200F
:103C600070BD80F83C30FEF749FCAEE7012070479C
:103C700030B4036A23F010030362036A4468826964
:103C800022F4E6420D6842EA052223F020038D6803
:103C900043EA05130E4DA84209D00D4DA8420ED09F
:103CA000446082614A688263036230BC704723F0DB
:103CB0008003CD6843EA051323F04003EDE724F4C5
:103CC00040644D6944EA85048D6944EA8504E7E768
:103CD000002C014038B590F83C30012B60D00446F0
:103CE0000D46012380F83C300C2A1AD8DFE802F098
:103CF000071919191D1919193119191944000068E2
:103D0000FFF720FD2268936943F00803936122685E
:103D1000936923F0040393612268936929690B4333
:103D20009361002084F83C0038BD0068FFF7A0FFD5
:103D30002268936943F4006393612268936923F4D2
:103D40008063936122689369296943EA012393613F
:103D5000E7E70068FFF724FD2268D36943F0080312
:103D6000D3612268D36923F00403D3612268D36945
:103D700029690B43D361D4E70068FFF743FD22684C
:103D8000D36943F40063D3612268D36923F4806369
:103D9000D3612268D369296943EA0123D361C0E76B
:103DA0000220C1E710B4846824F47F4C42EA032265
:103DB0000A4342EA0C02826010BC704790F83C3023
:103DC000012B66D010B50446012380F83C30022355
:103DD00080F83D300268936823F47F4323F0770333
:103DE00093600B68602B40D022D8402B47D00BD972
:103DF000502B0ED1CA6849680068FFF727FD502193
:103E00002068FFF748FD04E0202B0CD008D9302BA8
:103E100009D0012384F83D30002084F83C0010BD17
:103E20000BB1102BF5D119462068FFF734FDF0E7F0
:103E3000702B0ED0B3F5005FEBD1CB684A68896870
:103E40000068FFF7AFFF2268936843F480439360F4
:103E5000DFE7CB684A6889680068FFF7A3FF22683C
:103E6000936843F077039360D3E7CA6849680068B2
:103E7000FFF7FEFC60212068FFF70DFDC9E7CA6867
:103E800049680068FFF7E2FC40212068FFF703FD66
:103E9000BFE70220704701F01F01012303FA01FC74
:103EA000036A23EA0C030362036A02FA01F10B437B
:103EB0000362704710B50446084651BB94F83E3083
:103EC000DBB2013B18BF0123002B5BD1002839D1A5
:103ED000022384F83E30012201462068FFF7DBFF11
:103EE00023682A4A93423DD02368284A93423ED011
:103EF000B3F1804F3BD0A2F59432934237D002F514
:103F00008062934233D01A6842F001021A600020A6
:103F100039E0042908D008290DD094F84130DBB2EB
:103F2000013B18BF0123CFE794F83F30DBB2013BE0
:103F300018BF0123C8E794F84030DBB2013B18BF3B
:103F40000123C1E7042805D0082807D0022384F8FC
:103F50004130C0E7022384F83F30BCE7022384F8F5
:103F60004030B8E75A6C42F400425A64BCE79A68A1
:103F700002F00702062A07D01A6842F001021A600E
:103F8000002000E0012010BD0020FCE7002C0140D3
:103F900038B5044690F83E00C0B294F83F3094F82B
:103FA0004220D2B294F843C00D46B1B9012849D19C
:103FB000012A48D1022384F83E3084F842307DB390
:103FC000042D39D0012200212068FFF764FF01226F
:103FD00004212068FFF75FFF27E0DBB25FFA8CFC6B
:103FE000042912D0012833D1012B2CD1012A31D13F
:103FF000BCF1010F30D1022384F83E3084F83F3009
:1040000084F8423084F84330D9E7012B1CD1BCF14D
:10401000010F1BD1022384F83F3084F84330CEE7F0
:10402000012200212068FFF736FF2268136843F061
:1040300001031360002006E0012204212068FFF73D
:104040002AFFF2E7012038BD0120FCE71846FAE715
:104050000120F8E71846F6E71046F4E790F83C3000
:10406000012B2CD010B4012380F83C30022380F8BF
:104070003D3003685A689C6822F0700C0A6842EA76
:104080000C025A6003680F4A93420AD0B3F1804F82
:1040900007D0A2F59432934203D002F58062934296
:1040A00004D124F080044A6814439C60012380F802
:1040B0003D30002380F83C30184610BC7047022089
:1040C000704700BF002C0140704770470268D368FA
:1040D00023F0C003D360202380F83D30704702688E
:1040E000D36823F49073D3600268536923F001030B
:1040F0005361036B012B05D0202380F83E30002351
:10410000036370470268D36823F01003D360F3E7BA
:1041100090F83D30DBB2212B01D00220704783683C
:10412000B3F5805F17D0036A5A1C02621A780368DD
:104130005A60C38C9BB2013B9BB2C3844BB90268EB
:10414000D36823F08003D3600268D36843F0400350
:10415000D360002070470369002BE4D1036A1B88F9
:104160000268C3F308035360036A02330362E0E7A3
:1041700010B504460268136923F44053C1680B4329
:10418000136183680269134342691A430168CB686B
:1041900023F4B05323F00C031343CB60026853693C
:1041A00023F4407381690B4353610268134B9A42B5
:1041B00020D0FFF7A7FA024602EB820202EB82024E
:1041C00063689B00B2FBF3F20D48A0FB0231490982
:1041D000642303FB11231B013233A0FB03235B0980
:1041E00003F0F00202EB011203F00F032168134405
:1041F0008B6010BDFFF796FA0246DDE700380140FC
:104200001F85EB5158B310B5044690F83D300BB301
:10421000242384F83D302268D36823F40053D3600C
:104220002046FFF7A5FF2268136923F4904313612A
:104230002268536923F02A0353612268D36843F448
:104240000053D36000202064202384F83D3084F89C
:104250003E3010BD80F83C30FEF7C0FAD8E70120B0
:104260007047000038B590F83D30DBB2202B31D1DB
:104270000446002930D0002A30D090F83C30012B81
:104280002ED0012380F83C3001628284C284002554
:104290000564212380F83D30436B12489862636BBC
:1042A0001148D862636B11481863636B5D632068C3
:1042B0001346021D606BFEF7B1FC23686FF04002ED
:1042C0001A6084F83C502268536943F080035361BC
:1042D000284600E0022038BD0120FCE70120FAE773
:1042E0000220F8E7F34200083F4300084B43000870
:1042F000704708B50346406A1B681B6813F0200F1F
:104300000CD10023C3840268536923F080035361F6
:104310000268D36843F04003D36008BDFFF7E8FFAD
:10432000FBE708B50168CA6822F04002CA60202293
:1043300080F83D20FFF7DCFF002008BD704708B57E
:10434000406AFFF7FBFF08BD704710B5446A236859
:104350005A6994F83D30DBB2212B10D023685A699A
:1043600002F0400294F83E30DBB2222B11D0236CD5
:1043700043F0100323642046FFF7E6FF10BD02F070
:104380008002002AEAD00023E3842046FFF79EFE45
:10439000E4E7002AEBD00023E3852046FFF79FFEE9
:1043A000E5E708B5406A0023C385C384FFF7CCFF67
:1043B00008BD704790F83E30DBB2222B60D1836895
:1043C000B3F5805F46D0826AB3F5805F04D0002BDE
:1043D0004DD10369002B4AD103685B681370836A6F
:1043E00001338362C38D9BB2013B9BB2C385002B1B
:1043F00048D100B583B00268D36823F02003D360AE
:104400000268D36823F48073D3600268536923F091
:1044100001035361202380F83E30036B012B2CD124
:10442000002303630268D36823F01003D36003689A
:104430001A6812F0100F06D0002201921A68019239
:104440005B680193019B818DFFF7B3FF002003B0F0
:104450005DF804FB0269002AB5D1826A03685B68D3
:10446000C3F308031380836A02338362BAE70368E5
:104470005B6803F07F031370B1E7FDF7F7FCE5E736
:10448000022070470020704730B583B004460268B0
:104490001368D068516913F00F0505D113F0200F90
:1044A00002D010F0200F19D12DB111F0010119D156
:1044B00010F4907F16D1216B012975D013F0800F75
:1044C00003D010F0800F40F0D78013F0400F03D0DE
:1044D00010F0400F40F0D48003B030BD2046FFF70D
:1044E00069FFF9E713F0010F06D010F4807F03D0C5
:1044F000226C42F00102226413F0040F04D019B1BF
:10450000226C42F00202226413F0020F04D019B1AF
:10451000226C42F00402226413F0080F07D010F05E
:10452000200F00D119B1226C42F008022264226CE3
:10453000002AD1D013F0200F02D010F0200F21D18B
:1045400023685B6903F04003226C12F0080F00D16E
:1045500023B32046FFF7C3FD23685A6912F0400FCA
:1045600018D05A6922F040025A61A36B73B1464ACF
:104570005A63A06BFEF7AEFB0028ADD0A06B436B77
:104580009847A9E72046FFF715FFD9E72046FFF730
:10459000DBFEA1E72046FFF7D7FE9DE72046FFF7A9
:1045A000D3FE0023236497E713F0100F86D010F09A
:1045B000100F83D000230193136801935368019374
:1045C000019B536913F0400F32D0A16B0B685B68FD
:1045D0009BB2002B80D0A08D98427FF67DAFE38503
:1045E0008B69202B08D1A18DE38D9BB2C91A89B2AA
:1045F0002046FFF7DEFE6FE7D36823F48073D360B5
:104600002268536923F0010353612268536923F040
:1046100040035361202384F83E3000232363226843
:10462000D36823F01003D360A06BFEF731FBDAE709
:10463000A18DE38D9BB2C91A89B2E38D9BB2002B89
:104640003FF44AAF00293FF447AFD36823F4907397
:10465000D3602268536923F001035361202384F857
:104660003E30002323632268D36823F01003D36015
:104670002046FFF79EFE2FE72046FFF749FD2BE778
:104680002046FFF74EFE27E7A3430008034681625A
:104690008285C28500201864222283F83E2083F898
:1046A0003C001968CA6842F48072CA6019684A6995
:1046B00042F001024A611A68D36843F02003D360D4
:1046C000704708B590F83E30DBB2202B0DD171B1A8
:1046D0007AB190F83C30012B0DD0012380F83C30AA
:1046E00000230363FFF7D2FF00E0022008BD012092
:1046F000FCE70120FAE70220F8E70000014B186808
:10470000704700BF0C00002070B50D4E0D4D761B9C
:10471000B61006D0002455F8043B01349847A64251
:10472000F9D1094E094D06F007F8761BB61006D0F0
:10473000002455F8043B01349847A642F9D170BDD6
:104740008CAB00088CAB000894AB00088CAB000865
:10475000830730B548D0541E002A3FD00346CAB262
:1047600001E0013C3AD303F8012B9D07F9D1032C5A
:104770002DD9CDB245EA05250F2C45EA054536D998
:10478000A4F1100222F00F0C03F1200EE6444FEAD0
:10479000121C03F1100242E9045542E9025510329D
:1047A0007245F8D10CF1010214F00C0F03EB021268
:1047B00004F00F0C13D0ACF1040323F00303043313
:1047C000134442F8045B9342FBD10CF003042CB178
:1047D000CAB21C4403F8012B9C42FBD130BD644695
:1047E0001346002CF4D1F9E703461446BFE71A46F6
:1047F000A446E0E710B5194C002924689AB028DBDC
:10480000009004904FF402704FF6FF7CADF80C005E
:1048100011D001390291059120466946ADF80EC0CC
:1048200000F03AFC421C01DA8B2323600022009B3B
:104830001A701AB010BD0291059120466946ADF874
:104840000EC000F029FC431C01DA8B2323601AB050
:1048500010BD8B234FF0FF302360F8E70C000020E1
:10486000024B13B1024800F005B870470000000089
:1048700081480008002301461A46184602F06CB928
:1048800038B5084B084D5B1B9C1007D0043B1D44FA
:10489000013C55F804399847002CF9D1BDE838405F
:1048A00005F050BF98AB000894AB0008014B93F89B
:1048B000280170473C040020704700BF704700BFCC
:1048C000704700BF704700BF82B049B15AB16BB1A9
:1048D00013780B601278101E18BF012002B07047C9
:1048E00001A9002AF3D1104602B070476FF0010011
:1048F000F4E700BF38B5C36C05460C464BB153F81E
:10490000240080B1026843F824200023C0E9033367
:1049100038BD2122042102F085F90346E86400280D
:10492000EDD1002038BD0121284601FA04F56A1DA9
:10493000920002F077F90028F3D0C0E90145E4E7DE
:1049400031B1C36C4A6853F82200086043F8221062
:10495000704700BF2DE9F0414FF0000E0E461C4697
:104960000D69074601F1140001680EF1010E8BB2CA
:1049700002FB0343090C4FEA134C02FB01CC9BB230
:1049800003EB0C43754540F8043B4FEA1C44EBDC59
:104990003CB1B368AB4207DD06EB850301355C61D2
:1049A00035613046BDE8F081716838460131FFF766
:1049B000A1FF8046A8B1326906F10C0102329200D3
:1049C0000C30FCF7FDFAFB6C726853F82210316072
:1049D00043F82260464606EB850301355C6135618C
:1049E000DFE70246B521024B024802F0FBF800BFA8
:1049F00098A70008ACA70008020C12040346CAB925
:104A00001020834013F07F4F04BF1B02083013F0C7
:104A1000704F04BF1B01043013F0404F04BF9B00D4
:104A20000230002B05DB13F0804F00F1010008BFBE
:104A3000202070470020E5E70368024613F00700D6
:104A400009D0D9071FD498074BBF5B089B080120EA
:104A500002201360704799B209B91020C340D9B23F
:104A600009B908301B0A190704BF1B09043099074C
:104A700004BF9B080230D90703D45B0800F1010092
:104A800003D013607047002070472020704700BF9C
:104A900038B5C36C04460D464BB15868B0B10268D6
:104AA0005A60002201234561C0E9032338BD212259
:104AB000042102F0B7F80346E0640028EDD100229B
:104AC0004FF4A071074B084802F08CF81C2201211A
:104AD000204602F0A7F80028F1D001220223C0E905
:104AE0000123DEE798A70008ACA700082DE9F04FE6
:104AF0000E6915698846AE42144685B005DB2A4624
:104B0000234635460C4616469846A3686168AF1999
:104B1000BB42B8BF0131FFF7EDFE0190002800F065
:104B20008780019B03F1140909EB870AD14505D25F
:104B30004B46002243F8042B9A45FBD808F1140891
:104B400008EB860B04F11403D8451A4603EB8505E0
:104B50005FD22B1B153B23F0030304331534A5420E
:104B600038BF0423CDE902A7AC461F46924605E0B4
:104B7000000C29D1C34509F1040948D958F8040BA0
:104B800085B2002DF4D056464C46002356F8040B4F
:104B9000216882B21FFA81FE05FB02EE000C0A0CAE
:104BA00005FB0022734402EB13429BB243EA02432B
:104BB000B44544F8043B4FEA1243E7D849F80730BC
:104BC00058F8040C000CD5D0D9F8003054461946DA
:104BD0004D4600222688090C00FB06119BB20A44B0
:104BE00043EA024345F8043B54F8046B2968360C49
:104BF0008BB200FB0633A44503EB12434FEA13428A
:104C0000E8D8C34549F8073009F10409B6D8DDE909
:104C100002A7002F02DC05E0013F03D05AF8043D53
:104C2000002BF9D0019B18461F6105B0BDE8F08F3D
:104C3000024640F25D11024B024801F0D3FF00BF73
:104C400098A70008ACA7000812F003032DE9F04173
:104C5000144607462ED10E46A4101CD0BD6C95B349
:104C6000E3074FF0000806D4641014D02868A8B1F8
:104C70000546E307F8D52A4631463846FFF736FFA2
:104C8000B6B17168FB6C641053F82120326043F8B0
:104C900021600646EAD13046BDE8F0812A46294621
:104CA0003846FFF723FF28600546C0F80080E0E79C
:104CB0000646D9E70F4A013B52F823200023FFF7AD
:104CC00049FE0646C8E701213846FFF713FE0546B0
:104CD00040B140F271230122C0E904230023B864EB
:104CE0000360BDE702464FF4A071034B034801F097
:104CF00079FF00BF20A9000898A70008ACA700080A
:104D00002DE9F0470C462669A36806EB6216751C70
:104D10009D429046074649684FEA621904DD5B00F0
:104D20009D4201F10101FADC3846FFF7E3FD00285E
:104D300051D0B9F1000F00F114010FDD0B464FF017
:104D4000000C09F105024FEA820E00EB820243F8E3
:104D500004CB9342FBD1AEF114031944226904F150
:104D6000140318F01F0803EB820C2CD08E464FF072
:104D7000000AC8F120091A6802FA08F242EA0A0297
:104D80004EF8042B53F8042B9C4522FA09FAF2D86A
:104D9000ACEB0403153B23F00303043304F11502C9
:104DA000944538BF0423BAF1000F18BF2E4641F8CE
:104DB00003A0FB6C6268066153F82210216043F87F
:104DC0002240BDE8F087043953F8042B9C4541F894
:104DD000042FF9D8EDE7024640F2D911014B024801
:104DE00001F000FF98A70008ACA7000884460B69F3
:104DF0000069C01A15D10CF1140C14310CEB8302AC
:104E000010B401EB830301E0944508D252F8044D3D
:104E100053F8041D8C42F7D004D24FF0FF3010BC81
:104E200070477047012010BC704700BF2DE9F84F54
:104E30000C6913698946E41A002C17467DD101F1EB
:104E40001406143202EB830206EB830301E09E4258
:104E500076D253F8045D52F8041D8D42F7D067D323
:104E6000D9F80410FFF746FD002873D0D9F8105088
:104E7000C46000F1140426464FF0000A3B6909F1B2
:104E8000140807F1140E09F1100C08EB85020EEB63
:104E900083095CF804BF5EF8041B1FFA8BF35344CC
:104EA0001FFA81FA090CA3EB0A03C1EB1B4101EBCA
:104EB00023419BB243EA0143F14546F8043B4FEAE4
:104EC000214AE6D8A9EB070115391537B94521F074
:104ED000030606F1040638BF042621F0030138BF9B
:104EE0000021B044424526440C4418D93746444674
:104EF00054F8041B8BB253444FEA234A0AEB114186
:104F00009BB243EA0143A24247F8043B4FEA214ADD
:104F1000EED8541EA4EB080424F00304344423B94F
:104F200054F8043D013D002BFAD00561BDE8F88F2F
:104F30004B460124B9461F4692E7F9DB00248FE770
:104F40000021FFF7D7FC60B101220023C0E9042350
:104F5000BDE8F88F02464FF41071054B054801F08B
:104F600041FE024640F23221014B024801F03AFE76
:104F700098A70008ACA7000870B5012182B01646BA
:104F80001D46FFF7B7FC044600284CD02B46C5F35E
:104F90000A55C3F313030DB143F48013002E01939C
:104FA00022D068460096FFF747FD002837D0019BC6
:104FB0000099C0F1200203FA02F20A43C3400193B0
:104FC0006261002B14BF02210121A3612161B5B1EF
:104FD000069BA5F2334505441D60079BC0F13500D3
:104FE0001860204602B070BD01A8FFF725FD01231F
:104FF000019A1946626120302361002DE8D104EB4B
:105000008102A0F232431069069A1360FFF7F4FCA4
:10501000C0EB41112046079B196002B070BDDDE96D
:1050200000236261CDE7024640F20A31014B02489B
:1050300001F0D8FD98A70008ACA7000820F00301F4
:1050400010F00300C0F1000051F8043B00F1040C23
:105050004FEACC0C6FF000021CBF22FA0CF2134393
:105060004FF0010C4CEA0C2C4CEA0C4CA3EB0C025C
:1050700022EA030212EACC1204BF51F8043B0430C6
:10508000F4D0C2F1000102EA0102B2FA82F2C2F1E6
:105090001F0200EBD20070472DE9F04FD5B00C464F
:1050A0000C9191460E930A9002F058FF036818463F
:1050B0001793FFF7C3FFA3891690190603D5236939
:1050C000002B00F08F8700242BAB224698464D46DC
:1050D000CDE929442893129400230024CDE9143407
:1050E0002B78CDE91922CDE91B2218920892002BCA
:1050F00000F0CE81AA4604E01AF8013F002B00F030
:105100000981252BF8D1BAEB050640F007819AF802
:105110000030002B00F0BC8100234FF0FF324FF035
:105120002B0920241F469AF8016007920AF1010A10
:105130008DF8833009930AF1010AA6F120035A2B56
:1051400000F22081DFE813F0CA021E011E01C50231
:105150001E011E011E01A3021E011E016A00F302B0
:105160001E014702D9021E01D4025B005B005B00F6
:105170005B005B005B005B005B005B001E011E01CF
:105180001E011E011E011E011E01B0011E010B02A7
:105190007A00B001B001B0011E011E011E011E0106
:1051A0009E021E011E01B6001E011E011E011902F3
:1051B0001E014C021E011E013F071E011E011E01A1
:1051C0001E011E011E011E011E01B0011E010B0267
:1051D0007C00B001B001B00191027C0075001E019D
:1051E00084021E017002B8005E0275001E011902E1
:1051F00072001C071E011E011F071E017200002203
:10520000A6F130031AF8016B02EB820203EB4202B3
:10521000A6F13003092BF5D909928EE70E9B53F8BE
:10522000042B002A09920E93C0F2D2819AF80060F2
:1052300081E79AF8006047F020077CE747F0100705
:10524000BA060E9B40F17D81073323F007031A460F
:105250005B6852F8084B99460E92002BC0F27F858E
:10526000079B013301F0398054EA090327F0800BD2
:1052700000F005850A2C79F1000380F09387012363
:105280005F4630348DF84F410B930DF24F15079A5E
:105290000B9900238A42B8BF0A4606929DF88320E4
:1052A0000D930F9313931093002A7CD0069B013328
:1052B000069378E047F0100717F0200900F03281DC
:1052C0000E9B073323F00703D3F8049053F8084BE1
:1052D0000E93002327F4806B00228DF88320079A19
:1052E000511C00F02A8254EA09012BF0800740F09B
:1052F0002382002A41F02B80002B40F0C5841BF054
:1053000001030B9300F0548530230DF24F158DF8F7
:105310004F31BCE7BAEB050600F0BA802A9BC8E91A
:10532000005633442A93299B0133072B299305DC2C
:1053300008F10808089B33440893E8E60C990A989A
:1053400028AA03F08DF980B90DF1AC08F2E70C99A9
:105350000A9828AA03F084F9002800F08A800D9B9F
:105360001BB10D990A9802F0F9FC0C9B9B8913F074
:10537000400F089B18BF4FF0FF330893089855B0B3
:10538000BDE8F08F002E00F08380012300228DF80D
:10539000EC6006933BAD8DF883200B930D92079242
:1053A0000F921392109217F0020302D00699023165
:1053B000069117F0840B07D109990698A1EB000913
:1053C000B9F1000F00F336832A9C82B10122C8F89C
:1053D0000420299A013401320DF18301072A2A940D
:1053E0002992C8F8001000F3698308F108087BB11E
:1053F0000223C8F80430299B0234013321AA072B69
:105400002A942993C8F8002000F36C8308F1080857
:10541000BBF1800F00F02E82079B0B9AA3EB020BCF
:10542000BBF1000F00F37182FB0500F1C5810B9BFE
:10543000C8F800501C44C8F80430299B2A94013352
:10544000072B299300F3EA8208F108087B0705D5AA
:10545000099B069A9D1A002D00F35083DDE908325E
:1054600006998A42ACBF9B185B180893002C7FF406
:105470006EAF002329930D9B1BB10D990A9802F082
:105480006DFC55460DF1AC082B78002B7FF432AE45
:105490002A9B002B3FF469AF0C9C0A98214628AA4E
:1054A00003F0DEF8A38962E70E9B073323F00702BF
:1054B000F2E80234CDE91434DDE9143424F0004478
:1054C000994618460E9221464FF0FF32B64BFBF735
:1054D00075FE002840F09684484621464FF0FF3282
:1054E000B14BFBF74DFE002840F08C84DDE9140140
:1054F00000220023FBF73AFE002840F0A6879DF823
:10550000832000210320A94DA94B27F080070D918E
:105510000690472EC8BF1D4607910B900F9113911F
:105520001091C1E617F0100340F0628417F04002BA
:1055300000F07B870E9A994652F8044B0E92A4B263
:10554000C7E653F8044B0E93FB0600F141847D0639
:1055500040F13B8444F3C0394B4624B27DE6012040
:1055600000220E9B069053F8041B3BAD8DF8832060
:105570008DF8EC100E930B9010E74FF000090E9C85
:10558000079B54F8045B8DF88390002D00F0EE86A5
:105590005A1C00F060851A464946284602F08EFFE4
:1055A0000D90002801F09E800D9B9DF883205B1BD1
:1055B0000B9323EAE373CDF81C900E940693CDF879
:1055C0003490CDF83C90CDF84C90CDF840906BE6FF
:1055D000099B5B4209939AF8006047F00407AAE52B
:1055E00047F0100B1BF0200900F0AA830E9B073335
:1055F00023F007031A4652F8084BD3F804900E9292
:10560000012369E6302278260E9B8DF8842053F81A
:10561000044B684A0E934FF00009022347F0020B37
:105620008DF88560189257E6BD0600F1D683FC061A
:1056300000F19386780600F15D87B90540F18D860B
:105640000E9B089953F8042B554611700E931BE7D7
:105650009AF800606C2E03BF9AF8016047F02007AB
:105660000AF1010A47F0100765E59AF80060682E14
:1056700003BF9AF8016047F400770AF1010A47F086
:10568000400758E59AF8006047F0080753E50A9E7E
:10569000304602F063FC436818461B93FFF7CEFCCC
:1056A000034630461C931E4602F058FC836819934B
:1056B000002E3FF4BBAD199B002B3FF4B7AD199BF7
:1056C0001B78002B3FF4B2AD9AF8006047F4806776
:1056D00031E59AF8006047F001072CE59DF883302A
:1056E000002B7FF4A3AD9AF800608DF8834022E58B
:1056F0009AF8006047F080071DE5524612F8016BEA
:105700002A2E01F0EB81A6F13003092B924698BFB7
:10571000002201F203801AF8016B02EB820203EB14
:105720004202A6F13003092BF5D9079205E59AF854
:1057300000608DF88390FEE4BB46012B3FF49AADE8
:10574000022B54AD12D1189A04F00F03D35C240934
:1057500044EA09744FEA191905F8013D54EA0903AE
:10576000F2D154AB5B1B5F460B9390E504F007034B
:10577000E40844EA49744FEAD909303354EA09018C
:105780002A4605F8013DF1D11BF0010FE9D0302B7D
:10579000E7D03023023A05F8013C54AB9B1A5F4630
:1057A00015460B9373E500BFFFFFEF7F2CA90008A0
:1057B00030A900083CA90008652E40F3E980DDE926
:1057C000140100220023FBF7C7FC002800F0D2815F
:1057D0000123C8F80430299BBF4A01330134072B49
:1057E0002A942993C8F8002000F37A8508F1080864
:1057F000229B129A934280F2D782169B179A1C44DE
:10580000C8E90023299B2A940133072B299300F32D
:10581000DD8308F10808129B5D1E002D7FF716AE90
:10582000102D41F34181DFF8B492224649461026FB
:10583000B946299B0F46DDF828B00C9C05E008F11D
:105840000808103D102D40F3588501331032072B06
:10585000C8E90076CDE92932F1DD2146584628AA6B
:1058600002F0FEFE00287FF47AADDDE929320DF169
:10587000AC08E6E7099B069AA3EB020BBBF1000F0D
:105880007FF7CAADBBF1100F41F30580DFF84C92F2
:1058900041462046A8464C461023299A0C9DDDF827
:1058A000289006E0ABF1100BBBF1100F01F10801DD
:1058B00019DD01321030072AC1E90043CDE9292062
:1058C000F0DD2946484628AA02F0CAFE00287FF4E7
:1058D00046ADDDE92920ABF1100BBBF1100F4FF005
:1058E00010032BA9E5DC4546A14688460446013253
:1058F0005C44072ACDE92924C8F80090C8F804B010
:1059000000F3188508F1080886E5BBF1100F40F395
:105910009785DFF8C89141462046A8464C4610239B
:10592000299A0C9DDDF8289006E0ABF1100BBBF135
:10593000100F01F1080119DD01321030072AC1E909
:105940000043CDE92920F0DD2946484628AA02F087
:1059500087FE00287FF403ADDDE92920ABF1100BB1
:10596000BBF1100F4FF010032BA9E5DC4546A14613
:105970008846044601325C44072ACDE92924C8F848
:105980000090C8F804B000F3CE8108F108084BE598
:10599000129B012B40F37E810123299E01341E447A
:1059A000072EC8F800502A94C8F80430299600F34E
:1059B000E18108F10808169B0136179A1C44072E4E
:1059C000C8E90023CDE9296400F3E18108F1080862
:1059D0000022DDE914010023FBF7BEFB002840F0A4
:1059E0007681129B0136013B01351C44072EC8F815
:1059F00000502996C8F804302A9400F35B8108F11E
:105A000008081A9B01361C44C8F80430072E24AB42
:105A1000CDE92964C8F800307FF716AD0C990A98D3
:105A200028AA02F01DFE00287FF499AC2A9C0DF1F3
:105A3000AC080BE5B9F1100F40F35086DDE92921E0
:105A40004046CDE91D36B84610244F460C9EA94667
:105A50000A9D04E0103F102F00F1080016DD01320E
:105A60001F4B1031072AC0E90034CDE92921F1DDAF
:105A70003146284628AA02F0F3FD00287FF46FACD7
:105A8000DDE92921103F102F2BA8E8DC4D46DDE988
:105A90001D36B9464746804609EB010401321049DC
:105AA000072ACDE92924C8F80490C8F8001000F3AB
:105AB000C3839DF8832008F1080886E40C990A98AE
:105AC00028AA1D9302F0CCFD00287FF448AC2A9C44
:105AD0001D9B0DF1AC088AE46CA9000880A90008A0
