:020000040800F2
:1000000000500020710900082D0300082F0300088C
:100010003103000833030008350300080000000026
:10002000000000000000000000000000370300088E
:1000300039030008000000003B0300083D030008EE
:10004000B9090008B9090008B9090008B909000888
:10005000B9090008B9090008B9090008B909000878
:10006000B9090008B9090008B9090008B909000868
:100070004503000855030008B9090008B90900083C
:100080006503000875030008B9090008B9090008EC
:10009000B9090008B9090008B9090008B909000838
:1000A000B9090008B9090008B9090008B909000828
:1000B000B9090008B909000885030008B909000852
:1000C000B9090008B9090008B9090008B909000808
:1000D000B9090008B909000895030008A50300083C
:1000E000B9090008B9090008B909000800000000B2
:1000F0000000000000000000000000000000000000
:0C01000000000000000000005FF808F1A3
:10010C0010B5054C237833B9044B13B10448AFF345
:10011C0000800123237010BD3C040020000000006F
:10012C003C24000808B5034B1BB103490348AFF34B
:10013C00008008BD00000000400400203C240008A2
:10014C0000B583B0164B5A6942F001025A615B69E3
:10015C0003F001030193019B002211460C2000F0D7
:10016C0097FC0C2000F0CCFC002211460D2000F076
:10017C008FFC0D2000F0C4FC00221146102000F072
:10018C0087FC102000F0BCFC00221146112000F06E
:10019C007FFC112000F0B4FC03B05DF804FB00BF41
:1001AC000010024030B589B00024049405940694E4
:1001BC0007941D4B9A6942F010029A619A6902F0F9
:1001CC0010020092009A9A6942F020029A619A6990
:1001DC0002F020020192019A9A6942F004029A619B
:1001EC009A6902F004020292029A9A6942F0080299
:1001FC009A619B6903F008030393039B0B4D224602
:10020C004FF40051284600F0F5FE4FF400530493D0
:10021C000123059306940223079304A9284600F0B2
:10022C00D7FD09B030BD00BF0010024000100140E6
:10023C0072B6FEE700B591B02822002106A802F0A4
:10024C0035F8002301930293039304930593012241
:10025C0006924FF4803307930A9202220D920E936A
:10026C004FF4E0130F9306A800F0EAFE80B90F23B9
:10027C00019302210291002303934FF480620492B4
:10028C00059301A801F01CF920B911B05DF804FB2D
:10029C00FFF7CEFFFFF7CCFF08B500F0AFFBFFF781
:1002AC00C9FFFFF77FFFFFF74BFF00F07FF800F06F
:1002BC00AFF800F0DFF800F0C5F900F03BFA00F001
:1002CC0053FA4FF40051044800F09AFE4FF4FA70C0
:1002DC0000F0B8FBF5E700BF0010014082B00E4BF8
:1002EC009A6942F001029A619A6902F00102009245
:1002FC00009ADA6942F08052DA61DB6903F08053CC
:10030C000193019B054A536823F0E06343F00073AB
:10031C00536002B0704700BF001002400000014063
:10032C00FEE7FEE7FEE7FEE7FEE770477047704723
:10033C0008B500F075FB08BD08B5024800F0A6FC36
:10034C0008BD00BF4406002008B5024800F09EFC22
:10035C0008BD00BF0006002008B5024800F096FC5E
:10036C0008BD00BF7805002008B5024800F08EFCDF
:10037C0008BD00BFBC05002008B5024801F033FAE7
:10038C0008BD00BF3005002008B5024801F068FE2A
:10039C0008BD00BF8806002008B5024801F060FEC9
:1003AC0008BD00BFCC0600207047000000B58DB022
:1003BC002422002103A801F079FF0023019302936A
:1003CC001148124A0260436083604FF6FF72C260AC
:1003DC00036143618361012303930593099303A98B
:1003EC0001F050FB50B900230193029301A9064878
:1003FC0001F0B8FC28B90DB05DF804FBFFF718FF4D
:10040C00F1E7FFF715FFF6E758040020002C014038
:10041C0000B58DB02422002103A801F047FF002372
:10042C000193029312484FF0804202604360836054
:10043C004FF6FF72C2600361802383610323039331
:10044C0001230593099303A901F01CFB50B9002368
:10045C000193029301A9064801F084FC28B90DB060
:10046C005DF804FBFFF7E4FEF1E7FFF7E1FEF6E7CA
:10047C00A004002000B58DB02422002103A801F0B7
:10048C0015FF0023019302931248134A0260436044
:10049C0083604FF6FF72C260036180238361032384
:1004AC00039301230593099303A901F0EBFA50B9C7
:1004BC0000230193029301A9064801F053FC28B9CB
:1004CC000DB05DF804FBFFF7B3FEF1E7FFF7B0FEEC
:1004DC00F6E700BFE80400200004004000B58BB034
:1004EC000023069307930893099303682D4A9342BC
:1004FC0008D0B3F1804F20D02B4A934238D00BB0A8
:10050C005DF804FB294B9A6942F400629A619A697E
:10051C0002F400620092009A9A6942F004029A6115
:10052C009B6903F004030193019B4FF44073069302
:10053C0006A91F4800F04CFCE1E703F50433DA6927
:10054C0042F00102DA61DA6902F001020292029AC7
:10055C009A6942F004029A619B6903F004030393C5
:10056C00039B0323069306A9114800F031FCC6E750
:10057C000E4BDA6942F00202DA61DA6902F0020229
:10058C000492049A9A6942F004029A619B6903F0FE
:10059C0004030593059BC023069306A9044800F0A9
:1005AC0017FCACE7002C0140000400400010024096
:1005BC000008014002680E4B9A4200D0704700B50B
:1005CC0083B003F50233DA6942F00402DA61DB69C5
:1005DC0003F004030193019B002201211E2000F073
:1005EC0057FA1E2000F08CFA03B05DF804FB00BF34
:1005FC000008004000B587B00023029303930493D6
:10060C00059302680D4B9A4202D007B05DF804FBCB
:10061C0003F502339A6942F008029A619B6903F070
:10062C0008030193019B4FF470730293022303930D
:10063C00059302A9024800F0CBFBE6E70008004056
:10064C00000C014000B58FB000230A930B930C9360
:10065C000D930893099301930293039304930593C9
:10066C00069307933148324A026040F29F5242602F
:10067C00836040F2F312C26003618023836101F056
:10068C00A9F9002839D14FF480530A930AA92748B5
:10069C0001F0FAFA002833D1244801F0C7F90028F8
:1006AC0031D100230893099308A9204801F05AFB83
:1006BC0060BB60230193002202920392059201A970
:1006CC001A4801F06DFA20BB04220DEB0201174809
:1006DC0001F066FA00BB082201A9144801F060FA87
:1006EC00E8B90C2201A9114801F05AFAD0B90F4807
:1006FC00FFF780FF0FB05DF804FBFFF799FDC2E731
:10070C00FFF796FDC8E7FFF793FDCAE7FFF790FDEB
:10071C00CFE7FFF78DFDD7E7FFF78AFDDBE7FFF7A4
:10072C0087FDDEE7FFF784FDE1E700BF3005002021
:10073C000008004008B50A480A4B03604FF41653F2
:10074C00436000238360C36003610C2242618361B8
:10075C00C36101F0D3FB00B908BDFFF769FDFBE7EE
:10076C00880600200044004008B50A480A4B036084
:10077C004FF4E133436000238360C36003610C22B8
:10078C0042618361C36101F0B9FB00B908BDFFF799
:10079C004FFDFBE7CC0600200048004070B588B048
:1007AC000446002304930593069307930368604A59
:1007BC00934204D05F4A93425CD008B070BD5E4B4C
:1007CC00DA6942F40032DA61DA6902F4003200923A
:1007DC00009A9A6942F004029A619B6903F004033F
:1007EC000193019B04230493022305930323079392
:1007FC00524E04A9304600F0EBFA0823049300256E
:10080C000595069504A9304600F0E2FA4C484D4B8C
:10081C000360456085608023C360056145612023CA
:10082C008361C56100F08EF9F0B9454BA3635C623E
:10083C004548464B036010234360002383608022AD
:10084C00C260036143618361C36100F07BF970B9DD
:10085C003D4B63635C6200221146262000F018F9C0
:10086C00262000F04DF9A8E7FFF7E2FCDDE7FFF7E3
:10087C00DFFCEDE7304BDA6942F48022DA61DA69A9
:10088C0002F480220292029A9A6942F008029A615A
:10089C009B6903F008030393039B4FF48063049359
:1008AC000223059303230793294E04A9304600F035
:1008BC008FFA4FF40063049300250595069504A95F
:1008CC00304600F085FA2348234B03604560856071
:1008DC008023C3600561456120238361C56100F0FD
:1008EC0031F9F0B91B4BA3635C621C481C4B0360D1
:1008FC0010234360002383608022C2600361436144
:10090C008361C36100F01EF970B9144B63635C62C0
:10091C0000221146272000F0BBF8272000F0F0F849
:10092C004BE7FFF785FCDDE7FFF782FCEDE700BF47
:10093C000044004000480040001002400008014004
:10094C00780500206C000240BC05002080000240AD
:10095C00000C01400006002030000240440600203C
:10096C001C0002400C480D490D4A002302E0D458EB
:10097C00C4500433C4188C42F9D30A4A0A4C0023DD
:10098C0001E013600432A242FBD3FFF70DFD01F02E
:10099C0069FCFFF781FC7047000000203C0400203C
:1009AC00902400083C04002018070020FEE70000FB
:1009BC0010B504460E4B18784FF47A73B3FBF0F372
:1009CC000C4A1068B0FBF3F000F0A8F868B90F2CD3
:1009DC0001D901200AE0002221464FF0FF3000F03F
:1009EC0057F8054B1C60002000E0012010BD00BF33
:1009FC0004000020000000200800002008B5074A71
:100A0C00136843F010031360032000F02FF80F203D
:100A1C00FFF7CEFFFFF762FC002008BD002002406C
:100A2C00034A1168034B1B780B441360704700BFDB
:100A3C001007002004000020014B1868704700BF0D
:100A4C001007002038B50446FFF7F6FF0546B4F151
:100A5C00FF3F02D0044B1B781C44FFF7EDFF401BFB
:100A6C00A042FAD338BD00BF04000020074AD36867
:100A7C0023F4E0631B041B0C000200F4E06003434E
:100A8C0043F0BF6343F40033D360704700ED00E0E4
:100A9C0000B5194BDB68C3F30223C3F1070CBCF19F
:100AAC00040F28BF4FF0040C03F1040EBEF1060F27
:100ABC0018D9033B4FF0FF3E0EFA0CFC21EA0C0157
:100ACC0099400EFA03F322EA0303194300280BDBC7
:100ADC000901C9B200F1604000F5614080F80013D3
:100AEC005DF804FB0023E5E700F00F000901C9B233
:100AFC00024B1954F4E700BF00ED00E014ED00E0E8
:100B0C00002807DB00F01F02400901239340024A32
:100B1C0042F82030704700BF00E100E00138B0F12E
:100B2C00807F0BD24FF0E0235861054AF02182F808
:100B3C0023100020986107221A617047012070472A
:100B4C0000ED00E060B310B402460168154B0B4495
:100B5C001548A0FB03031B099B001364134BD363C1
:100B6C00022382F82130086820F47F5020F03000F6
:100B7C00536894682343D46823431469234354690A
:100B8C00234394692343D469234303430B6000201C
:100B9C009063012382F8213082F8200010BC70474A
:100BAC0001207047F8FFFDBFCDCCCCCC000002403B
:100BBC0090F82130022B06D004238363002380F8A5
:100BCC002030012070470268136823F00E03136075
:100BDC000268136823F001031360036CC16B0122DC
:100BEC0002FA03F34B6080F82120002380F82030B8
:100BFC001846704708B590F82130022B03D0042317
:100C0C008363012008BD0268136823F00E03136090
:100C1C000268136823F0010313600368194A9342B6
:100C2C0014D0143293421FD0143293421ED014327B
:100C3C0093421ED0143293421ED01432934202D0EF
:100C4C004FF0807203E04FF4801200E001220E4B53
:100C5C005A60012380F82130002380F82030436B48
:100C6C006BB198470020CDE71022F0E74FF480726B
:100C7C00EDE74FF48052EAE74FF48032E7E70020CB
:100C8C00C0E700BF080002400000024038B5C36B4B
:100C9C001A6804682568016C04238B40134235D014
:100CAC0015F0040F32D0236813F0200F03D1236802
:100CBC0023F0040323600368434A934214D0143294
:100CCC00934218D01432934217D01432934217D057
:100CDC001432934217D01432934202D04FF08062F8
:100CEC0003E04FF4800200E00422384B5A60C36AE0
:100CFC0003B1984738BD4022F7E74FF48062F4E720
:100D0C004FF48042F1E74FF48022EEE702238B4050
:100D1C0013423CD015F0020F39D0236813F0200F8A
:100D2C0006D1236823F00A032360012380F82130C5
:100D3C000368254A934214D0143293421CD01432C7
:100D4C0093421BD0143293421BD0143293421BD0CB
:100D5C001432934202D04FF0007203E04FF40012B1
:100D6C0000E00222194B5A60002380F82030836A7D
:100D7C00002BBFD09847BDE72022F3E74FF4007259
:100D8C00F0E74FF40052EDE74FF40032EAE70823A6
:100D9C0003FA01F11142ADD015F0080FAAD0236867
:100DAC0023F00E032360026CC16B012303FA02F2E1
:100DBC004A60836380F82130002380F82030036B75
:100DCC00002B97D0984795E708000240000002409E
:100DDC0070B582B00024A446A6E0804DAA4210D083
:100DEC0007D97F4DAA420CD005F58035AA4208D010
:100DFC0013E0A5F58015AA4203D005F57025AA428B
:100E0C0007D18A68002A58D0012A51D0436108249E
:100E1C0003E0A5F58015AA42F3D0BEF1FF0F4ED822
:100E2C000646BEF1FF0F4CD84FEA8C0233680F25F3
:100E3C00954023EA050304FA02F2134333604B682E
:100E4C0013F0805F6ED0674B9A6942F001029A6191
:100E5C009B6903F001030193019B4FEA9C02951CD3
:100E6C00614B53F825600CF003039D000F23AB403E
:100E7C0026EA03065D4B984229D003F5806398421D
:100E8C0000F08E8003F58063984200F08B8003F5B0
:100E9C008063984219D004231AE0CC68BDE7CC6873
:100EAC000434BAE7CC680834B7E7CC680C34B4E740
:100EBC0003610824B1E70024AFE70424ADE7061D65
:100ECC00AFE7ACF108029200B0E7032300E0002387
:100EDC00AB4033430232444D45F822304B6813F497
:100EEC00803F61D0424A136843EA0E0313604B689B
:100EFC0013F4003F5ED03E4A536843EA0E0353603E
:100F0C004B6813F4801F5BD0394A936843EA0E0395
:100F1C0093604B6813F4001F58D0354AD36843EAEA
:100F2C000E03D3600CF1010C0A6832FA0CF353D0A7
:100F3C00012303FA0CF302EA030E33EA0202F1D1A5
:100F4C004A68122A3FF649AF122A3FF666AF01A54E
:100F5C0055F822F00F0E0008A70E0008B10E00087D
:100F6C00C30E0008270E0008270E0008270E0008E5
:100F7C00270E0008270E0008270E0008270E000871
:100F8C00270E0008270E0008270E0008270E000861
:100F9C00270E0008270E0008AB0E0008B70E00083D
:100FAC00012395E7022393E7114A136823EA0E0302
:100FBC0013609CE70E4A536823EA0E0353609FE7C5
:100FCC000B4A936823EA0E039360A2E7084AD3689E
:100FDC0023EA0E03D360A5E702B070BD0000221017
:100FEC0000003110001002400000014000080140D8
:100FFC00000401400AB101617047090401617047A6
:10100C00C36801EA030221EA030141EA02410161DA
:10101C007047000082B0084B1B68084AA2FB0323F0
:10102C005B0A00FB03F3019300BF019B5A1E019264
:10103C00002BF9D102B0704700000020D34D621094
:10104C00002800F0F18170B582B00446036813F0FB
:10105C00010F2CD0994B5B6803F00C03042B1DD0B3
:10106C00964B5B6803F00C03082B12D06368B3F546
:10107C00803F41D0002B55D103F1804303F504335D
:10108C001A6822F480321A601A6822F480221A60DC
:10109C0037E08A4B5B6813F4803FE7D0874B1B68C3
:1010AC0013F4003F03D06368002B00F0BF8123686A
:1010BC0013F0020F75D0814B5B6813F00C0F5FD0EF
:1010CC007E4B5B6803F00C03082B54D02369002B78
:1010DC0000F08A807A4B01221A60FFF7ADFC0546BE
:1010EC00764B1B6813F0020F75D1FFF7A5FC401B64
:1010FC000228F5D903209EE1704A136843F480332B
:10110C001360636843B3FFF797FC05466B4B1B6892
:10111C0013F4003FCBD1FFF78FFC401B6428F5D9AB
:10112C00032088E1B3F5A02F09D0644B1A6822F490
:10113C0080321A601A6822F480221A60E1E703F107
:10114C008043A3F53C331A6842F480221A601A6873
:10115C0042F480321A60D4E7FFF76EFC0546574B19
:10116C001B6813F4003FA2D0FFF766FC401B6428F9
:10117C00F5D903205FE1514B5B6813F4803FA5D197
:10118C004E4B1B6813F0020F03D02369012B40F068
:10119C004F814A4A136823F0F803616943EAC1039B
:1011AC001360236813F0080F33D0A369002B5CD0B5
:1011BC00434B0122C3F88024FFF73EFC05463F4B0E
:1011CC005B6A13F0020F21D1FFF736FC401B02289B
:1011DC00F5D903202FE1394A136823F0F80361692C
:1011EC0043EAC1031360DCE7354B00221A60FFF7BA
:1011FC0023FC0546314B1B6813F0020FD1D0FFF7CF
:10120C001BFC401B0228F5D9032014E10120FFF739
:10121C0001FF236813F0040F00F09680274BDB6965
:10122C0013F0805F34D1254BDA6942F08052DA61D9
:10123C00DB6903F080530193019B0125214B1B6853
:10124C0013F4807F26D0E368012B3DD0002B53D1C3
:10125C0003F1804303F504331A6A22F001021A6287
:10126C001A6A22F004021A6233E0154B0022C3F80A
:10127C008024FFF7E1FB0546104B5B6A13F0020F6D
:10128C00C7D0FFF7D9FB401B0228F5D90320D2E0C9
:10129C000025D3E70B4A136843F480731360FFF700
:1012AC00CBFB0646074B1B6813F4807FCBD1FFF7B3
:1012BC00C3FB801B6428F5D90320BCE0001002405E
:1012CC0000004242007000405F4A136A43F0010381
:1012DC001362E36833B3FFF7AFFB06465A4B1B6A46
:1012EC0013F0020F2FD1FFF7A7FB801B41F28833BD
:1012FC009842F3D903209EE0052B09D0524B1A6A71
:10130C0022F001021A621A6A22F004021A62E0E761
:10131C004D4B1A6A42F004021A621A6A42F0010238
:10132C001A62D6E7FFF788FB0646474B1B6A13F099
:10133C00020F08D0FFF780FB801B41F288339842E4
:10134C00F3D9032077E0E5B9E369002B72D03E4A6C
:10135C00526802F00C02082A56D0022B17D03B4BD5
:10136C0000221A66FFF768FB0446374B1B6813F024
:10137C00007F47D0FFF760FB001B0228F5D9032044
:10138C0059E0314AD36923F08053D361DCE72F4B0A
:10139C0000221A66FFF750FB05462B4B1B6813F017
:1013AC00007F06D0FFF748FB401B0228F5D903202D
:1013BC0041E0236AB3F5803F1AD023494B6823F4EC
:1013CC007413226A606A024313434B601F4B012261
:1013DC001A66FFF731FB04461B4B1B6813F0007FAA
:1013EC000ED1FFF729FB001B0228F5D9032022E0C0
:1013FC00154A536823F40033A1680B435360DCE7B0
:10140C00002018E0002016E0012B16D00E4B5B6874
:10141C0003F48031226A914211D103F47013626A91
:10142C0093420ED1002006E001207047012002E01B
:10143C00012000E0002002B070BD0120FBE701207C
:10144C00F9E70120F7E700BF00100240000042421C
:10145C0086B0174B0FCB0DF1180C0CE90F0040F2B6
:10146C000123ADF80430134B5B6803F00C02082A1F
:10147C0002D0114806B07047C3F3834218326A4455
:10148C0012F8100C13F4803F0DD00A4B5B68C3F3B9
:10149C00404318336B4413F8143C074A02FB00F02A
:1014AC00B0FBF3F0E6E7054B03FB00F0E2E700BF0F
:1014BC006C2400080010024000127A0000093D0064
:1014CC00002800F0A08070B50D460446524B1B68F6
:1014DC0003F007038B420BD24F4A136823F0070328
:1014EC000B431360136803F007038B4240F08D80AD
:1014FC00236813F0020F17D013F0040F04D0474ADF
:10150C00536843F4E0635360236813F0080F04D06E
:10151C00424A536843F460535360404A536823F083
:10152C00F003A1680B435360236813F0010F31D013
:10153C006368012B20D0022B25D0384A126812F098
:10154C00020F64D035494A6822F0030213434B6002
:10155C00FFF772FA0646314B5B6803F00C036268C6
:10156C00B3EB820F16D0FFF767FA801B41F288337A
:10157C009842F0D9032045E0284A126812F4003F43
:10158C00E0D101203EE0254A126812F0007FD9D14B
:10159C00012037E0204B1B6803F00703AB420AD94C
:1015AC001D4A136823F007032B431360136803F0E1
:1015BC000703AB422DD1236813F0040F06D0174A52
:1015CC00536823F4E063E1680B435360236813F022
:1015DC00080F07D0114A536823F46053216943EA7A
:1015EC00C1035360FFF734FF0C4B5B68C3F3031369
:1015FC000B4AD35CD8400B4B18600B4B1868FFF7A9
:10160C00D7F9002070BD012070470120FAE70120B6
:10161C00F8E70120F6E700BF00200240001002406E
:10162C00542400080000002008000020014B18681A
:10163C00704700BF0000002008B5FFF7F7FF044B10
:10164C005B68C3F30223034AD35CD84008BD00BFD8
:10165C00001002406424000808B5FFF7E7FF044BB4
:10166C005B68C3F3C223034AD35CD84008BD00BFF8
:10167C00001002406424000870B4036A23F00103D4
:10168C000362036A4668826922F073020C6844EABA
:10169C00020523F002028B6813430D4CA04209D0C3
:1016AC000B4CA0420DD0466085614A6842630362D0
:1016BC0070BC704723F00803CA68134323F004037B
:1016CC00EEE726F440764A6932438E691643EAE720
:1016DC00002C014030B4036A23F480730362036A64
:1016EC004568C26922F073020C68224323F400732C
:1016FC008C6843EA04230F4CA04209D00D4CA04245
:10170C000ED04560C2614A68C263036230BC704748
:10171C0023F40063CC6843EA042323F48063EDE7ED
:10172C0025F440554C6945EA04158C6945EA0415C5
:10173C00E7E700BF002C014030B4036A23F4805368
:10174C000362036A4468C26922F4E6420D6842EA05
:10175C00052223F400538D6843EA0533074DA84254
:10176C0006D04460C2614A680264036230BC7047B0
:10177C0024F480444D6944EA8514F2E7002C0140BE
:10178C0010B4036A046A24F001040462846924F02E
:10179C00F00C4CEA021223F00A030B438261036241
:1017AC0010BC704710B4046A24F0100404628469FD
:1017BC00036A24F4704C4CEA023223F0A00343EA8F
:1017CC0001138261036210BC7047836823F07003BD
:1017DC000B4343F0070383607047704770477047B3
:1017EC0070477047704710B5044603681A6912F0C9
:1017FC00020F11D0DA6812F0020F0DD06FF0020256
:10180C001A610123037703689B6913F0030F70D0EF
:10181C00FFF7E6FF0023237723681A6912F0040F01
:10182C0012D0DA6812F0040F0ED06FF004021A61B5
:10183C000223237723689B6913F4407F5FD02046F3
:10184C00FFF7CEFF0023237723681A6912F0080FE5
:10185C0012D0DA6812F0080F0ED06FF008021A617D
:10186C00042323772368DB6913F0030F4ED0204643
:10187C00FFF7B6FF0023237723681A6912F0100FC5
:10188C0012D0DA6812F0100F0ED06FF010021A613D
:10189C00082323772368DB6913F4407F3DD020466F
:1018AC00FFF79EFF0023237723681A6912F0010FBC
:1018BC0003D0DA6812F0010F36D123681A6912F0DE
:1018CC00800F03D0DA6812F0800F34D123681A69C4
:1018DC0012F0400F03D0DA6812F0400F32D12368B7
:1018EC001A6912F0200F03D0DA6812F0200F30D1F1
:1018FC0010BDFFF774FF2046FFF773FF8AE7204601
:10190C00FFF76DFF2046FFF76CFF9BE72046FFF7C4
:10191C0066FF2046FFF765FFACE72046FFF75FFF49
:10192C002046FFF75EFFBDE76FF001021A6120460B
:10193C00FFF754FFC1E76FF080021A61204600F0F8
:10194C0048FAC3E76FF040021A612046FFF74AFFDE
:10195C00C5E76FF020021A61204600F039FAC7E79C
:10196C0003681B4A90420AD0B0F1804F07D0A2F511
:10197C009432904203D002F58062904203D123F05E
:10198C0070034A681343124A90420AD0B0F1804F58
:10199C0007D0A2F59432904203D002F580629042B7
:1019AC0003D123F44073CA68134323F080034A69BC
:1019BC00134303608B68C3620B688362044B9842C9
:1019CC0002D00123436170470B690363F9E700BF41
:1019DC00002C014040B310B5044690F83D30F3B1F3
:1019EC00022384F83D30214651F8040BFFF7B8FF71
:1019FC00012384F8463084F83E3084F83F3084F874
:101A0C00403084F8413084F8423084F8433084F814
:101A1C00443084F8453084F83D30002010BD80F807
:101A2C003C30FEF7C7FDDBE70120704740B310B533
:101A3C00044690F83D30F3B1022384F83D30214642
:101A4C0051F8040BFFF78CFF012384F8463084F81F
:101A5C003E3084F83F3084F8403084F8413084F8CC
:101A6C00423084F8433084F8443084F8453084F8AC
:101A7C003D30002010BD80F83C30FFF7AEFEDBE7B8
:101A8C0001207047002857D070B50D46044690F8D9
:101A9C003D30002B4BD0022384F83D3022689368F4
:101AAC0023F4804323F007039360214651F8040B81
:101ABC00FFF756FF21688A688B690E6A2868104305
:101ACC0023F4407C2CF0030CAA68AB6942EA032394
:101ADC0043EA0C0323F47C4323F0FC03EA69D5F8B6
:101AEC000CC04CEA022C4CEA030C2A6A13032A6938
:101AFC0043EA021343EA0C0326F022066A686D6976
:101B0C0042EA05123243886021688B6123681A62AD
:101B1C00012384F8463084F83E3084F83F3084F852
:101B2C00423084F8433084F83D30002070BD80F89A
:101B3C003C30FEF7D3FCAEE70120704730B4036AAB
:101B4C0023F010030362036A4468826922F4E642BC
:101B5C000D6842EA052223F020038D6843EA051341
:101B6C000E4DA84209D00D4DA8420ED044608261A2
:101B7C004A688263036230BC704723F08003CD68EF
:101B8C0043EA051323F04003EDE724F440644D6968
:101B9C0044EA85048D6944EA8504E7E7002C01409A
:101BAC0038B590F83C30012B60D004460D4601232B
:101BBC0080F83C300C2A1AD8DFE802F00719191902
:101BCC001D1919193119191944000068FFF754FD32
:101BDC002268936943F0080393612268936923F0A8
:101BEC00040393612268936929690B439361002074
:101BFC0084F83C0038BD0068FFF7A0FF22689369A9
:101C0C0043F4006393612268936923F480639361C6
:101C1C0022689369296943EA01239361E7E7006825
:101C2C00FFF758FD2268D36943F00803D36122689B
:101C3C00D36923F00403D3612268D36929690B4368
:101C4C00D361D4E70068FFF777FD2268D36943F4CA
:101C5C000063D3612268D36923F48063D361226863
:101C6C00D369296943EA0123D361C0E70220C1E7A4
:101C7C0010B4846824F47F4C42EA03220A4342EAFB
:101C8C000C02826010BC704790F83C30012B66D07F
:101C9C0010B50446012380F83C30022380F83D3017
:101CAC000268936823F47F4323F0770393600B68F7
:101CBC00602B40D022D8402B47D00BD9502B0ED1C3
:101CCC00CA6849680068FFF75BFD50212068FFF780
:101CDC007CFD04E0202B0CD008D9302B09D001233B
:101CEC0084F83D30002084F83C0010BD0BB1102B63
:101CFC00F5D119462068FFF768FDF0E7702B0ED080
:101D0C00B3F5005FEBD1CB684A6889680068FFF7D0
:101D1C00AFFF2268936843F480439360DFE7CB689E
:101D2C004A6889680068FFF7A3FF2268936843F04C
:101D3C0077039360D3E7CA6849680068FFF732FD00
:101D4C0060212068FFF741FDC9E7CA68496800684F
:101D5C00FFF716FD40212068FFF737FDBFE7022093
:101D6C007047000090F83C30012B2CD010B40123AC
:101D7C0080F83C30022380F83D3003685A689C6838
:101D8C0022F0700C0A6842EA0C025A6003680F4A8F
:101D9C0093420AD0B3F1804F07D0A2F5943293420C
:101DAC0003D002F58062934204D124F080044A6887
:101DBC0014439C60012380F83D30002380F83C30B4
:101DCC00184610BC70470220704700BF002C014021
:101DDC00704770470268D36823F49073D36002682D
:101DEC00536923F001035361036B012B05D02023AE
:101DFC0080F83E300023036370470268D36823F0F9
:101E0C001003D360F3E790F83D30DBB2212B01D007
:101E1C00022070478368B3F5805F17D0036A5A1CA1
:101E2C0002621A7803685A60C38C9BB2013B9BB266
:101E3C00C3844BB90268D36823F08003D360026873
:101E4C00D36843F04003D360002070470369002B34
:101E5C00E4D1036A1B880268C3F308035360036A66
:101E6C0002330362E0E7000010B504460268136910
:101E7C0023F44053C1680B43136183680269134315
:101E8C0042691A430168CB6823F4B05323F00C0366
:101E9C001343CB600268536923F4407381690B438D
:101EAC0053610268134B9A4220D0FFF7C5FB0246E0
:101EBC0002EB820202EB820263689B00B2FBF3F23C
:101ECC000D48A0FB02314909642303FB11231B01BC
:101EDC003233A0FB03235B0903F0F00202EB011287
:101EEC0003F00F03216813448B6010BDFFF7B4FBA4
:101EFC000246DDE7003801401F85EB5158B310B5A1
:101F0C00044690F83D300BB3242384F83D3022680E
:101F1C00D36823F40053D3602046FFF7A5FF226853
:101F2C00136923F4904313612268536923F02A0345
:101F3C0053612268D36843F40053D36000202064BB
:101F4C00202384F83D3084F83E3010BD80F83C30BE
:101F5C00FEF724FCD8E701207047704708B50168EC
:101F6C00CA6822F04002CA60202280F83D20FFF7A8
:101F7C00F4FF002008BD7047704708B5406A002385
:101F8C00C385C384FFF7F8FF08BD704790F83E3057
:101F9C00DBB2222B60D18368B3F5805F46D0826AB6
:101FAC00B3F5805F04D0002B4DD10369002B4AD1CF
:101FBC0003685B681370836A01338362C38D9BB2C1
:101FCC00013B9BB2C385002B48D100B583B002689E
:101FDC00D36823F02003D3600268D36823F48073A2
:101FEC00D3600268536923F001035361202380F806
:101FFC003E30036B012B2CD1002303630268D368A2
:10200C0023F01003D36003681A6812F0100F06D087
:10201C00002201921A6801925B680193019B818DE9
:10202C00FFF7B3FF002003B05DF804FB0269002A40
:10203C00B5D1826A03685B68C3F308031380836AB3
:10204C0002338362BAE703685B6803F07F031370A3
:10205C00B1E7FFF790FFE5E70220704700207047DB
:10206C0030B583B0044602681368D068516913F028
:10207C000F0505D113F0200F02D010F0200F19D14D
:10208C002DB111F0010119D110F4907F16D1216BF3
:10209C00012975D013F0800F03D010F0800F40F0A1
:1020AC00D78013F0400F03D010F0400F40F0D480D5
:1020BC0003B030BD2046FFF769FFF9E713F0010FBD
:1020CC0006D010F4807F03D0226C42F0010222640F
:1020DC0013F0040F04D019B1226C42F002022264F6
:1020EC0013F0020F04D019B1226C42F004022264E6
:1020FC0013F0080F07D010F0200F00D119B1226C8B
:10210C0042F008022264226C002AD1D013F0200F76
:10211C0002D010F0200F21D123685B6903F040033B
:10212C00226C12F0080F00D123B32046FFF752FEA9
:10213C0023685A6912F0400F18D05A6922F04002F5
:10214C005A61A36B73B1464A5A63A06BFEF752FDFA
:10215C000028ADD0A06B436B9847A9E72046FFF74A
:10216C0015FFD9E72046FFF707FFA1E72046FFF749
:10217C0003FF9DE72046FFF7FFFE0023236497E74C
:10218C0013F0100F86D010F0100F83D000230193A2
:10219C001368019353680193019B536913F0400F2B
:1021AC0032D0A16B0B685B689BB2002B80D0A08DEA
:1021BC0098427FF67DAFE3858B69202B08D1A18DEA
:1021CC00E38D9BB2C91A89B22046FFF7DEFE6FE79A
:1021DC00D36823F48073D3602268536923F001031E
:1021EC0053612268536923F040035361202384F820
:1021FC003E30002323632268D36823F01003D3609E
:10220C00A06BFEF7D5FCDAE7A18DE38D9BB2C91A62
:10221C0089B2E38D9BB2002B3FF44AAF00293FF407
:10222C0047AFD36823F49073D3602268536923F0CB
:10223C0001035361202384F83E300023236322687A
:10224C00D36823F01003D3602046FFF79EFE2FE7E0
:10225C002046FFF7D8FD2BE72046FFF77FFE27E748
:10226C00871F000870B50D4E0D4D761BB61006D0AD
:10227C00002455F8043B01349847A642F9D1094E85
:10228C00094D00F0D5F8761BB61006D0002455F891
:10229C00043B01349847A642F9D170BD8424000850
:1022AC00842400088C24000884240008830730B59B
:1022BC0048D0541E002A3FD00346CAB201E0013C6C
:1022CC003AD303F8012B9D07F9D1032C2DD9CDB2AC
:1022DC0045EA05250F2C45EA054536D9A4F110022F
:1022EC0022F00F0C03F1200EE6444FEA121C03F10E
:1022FC00100242E9045542E9025510327245F8D1F8
:10230C000CF1010214F00C0F03EB021204F00F0C91
:10231C0013D0ACF1040323F003030433134442F849
:10232C00045B9342FBD10CF003042CB1CAB21C44E5
:10233C0003F8012B9C42FBD130BD64461346002CA4
:10234C00F4D1F9E703461446BFE71A46A446E0E782
:10235C00024B13B1024800F005B8704700000000B2
:10236C007D230008002301461A46184600F01AB8CF
:10237C0038B5084B084D5B1B9C1007D0043B1D4423
:10238C00013C55F804399847002CF9D1BDE8384088
:10239C0000F054B8902400088C240008704700BF4B
:1023AC00704700BF2DE9F047DFF87CA00646DAF84D
:1023BC00000098460F469146FFF7F0FF1B4B1B6839
:1023CC00D3F8484124B365681F2D26DC5EB96B1C1D
:1023DC000235DAF80000636044F82570FFF7E0FF7F
:1023EC000020BDE8F087012304EB8501C1F888903B
:1023FC00D4F88821AB401A43022EC4F88821C1F8C6
:10240C000881E4D1D4F88C211343C4F88C31DEE775
:10241C0003F5A674C3F84841D5E7DAF80000FFF7D6
:10242C00BFFF4FF0FF30DCE73804002080240008A9
:10243C00F8B500BFF8BC08BC9E467047F8B500BFA5
:08244C00F8BC08BC9E46704775
:102454000000000000000000010203040607080950
:102464000000000001020304020304050607080932
:102474000A0B0C0D0E0F10100000000010000020BD
:082484005D230008310100088E
:04248C000D01000836
:102490000024F40001000000100000000000000013
:1024A00000000000FC02002064030020CC03002098
:1024B000000000000000000000000000000000001C
:1024C000000000000000000000000000000000000C
:1024D00000000000000000000000000000000000FC
:1024E00000000000000000000000000000000000EC
:1024F00000000000000000000000000000000000DC
:1025000000000000000000000000000000000000CB
:1025100000000000000000000000000000000000BB
:1025200000000000000000000000000000000000AB
:10253000000000000000000000000000000000009B
:10254000000000000000000001000000000000008A
:102550000E33CDAB34126DE6ECDE05000B0000004F
:10256000000000000000000000000000000000006B
:10257000000000000000000000000000000000005B
:10258000000000000000000000000000000000004B
:10259000000000000000000000000000000000003B
:0C28C000000000000000000014070020D1
:040000050800097175
:00000001FF
