:020000040800F2
:1000000000500020BD2700083521000837210008D6
:10001000392100083B2100083D21000800000000B4
:100020000000000000000000000000003F21000868
:10003000412100080000000043210008452100087C
:1000400005280008052800080528000805280008DC
:1000500005280008052800080528000805280008CC
:1000600005280008052800080528000805280008BC
:100070004D2100085D21000805280008052800081A
:100080006D2100087D2100080528000805280008CA
:10009000052800080528000805280008052800088C
:1000A000052800080528000805280008052800087C
:1000B0008D2100089D210008AD21000805280008B9
:1000C000052800080528000805280008052800085C
:1000D0000528000805280008BD210008CD210008DA
:1000E0000528000805280008052800080000000071
:1000F0000000000000000000000000000000000000
:0C01000000000000000000005FF808F1A3
:1001100010B5054C237833B9044B13B10448AFF341
:1001200000800123237010BD3C040020000000006B
:100130001045000808B5034B1BB103490348AFF352
:10014000008008BD000000004004002010450008A9
:1001500081F0004102E000BF83F0004330B54FEA78
:1001600041044FEA430594EA050F08BF90EA020FE5
:100170001FBF54EA000C55EA020C7FEA645C7FEA78
:10018000655C00F0E2804FEA5454D4EB5555B8BF9B
:100190006D420CDD2C4480EA020281EA030382EA0C
:1001A000000083EA010180EA020281EA0303362D9E
:1001B00088BF30BD11F0004F4FEA01314FF4801C71
:1001C0004CEA113102D0404261EB410113F0004F83
:1001D0004FEA03334CEA133302D0524263EB43033A
:1001E00094EA050F00F0A780A4F10104D5F1200ED8
:1001F0000DDB02FA0EFC22FA05F2801841F1000133
:1002000003FA0EF2801843FA05F359410EE0A5F106
:1002100020050EF1200E012A03FA0EFC28BF4CF037
:10022000020C43FA05F3C01851EBE37101F00045ED
:1002300007D54FF0000EDCF1000C7EEB00006EEBFA
:100240000101B1F5801F1BD3B1F5001F0CD3490884
:100250005FEA30004FEA3C0C04F101044FEA4452DB
:1002600012F5800F80F09A80BCF1004F08BF5FEA62
:10027000500C50F1000041EB045141EA050130BD42
:100280005FEA4C0C404141EB0101013C28BFB1F554
:10029000801FE9D291F0000F04BF01460020B1FA9F
:1002A00081F308BF2033A3F10B03B3F120020CDA72
:1002B0000C3208DD02F1140CC2F10C0201FA0CF050
:1002C00021FA02F10CE002F11402D8BFC2F1200CB5
:1002D00001FA02F120FA0CFCDCBF41EA0C0190406B
:1002E000E41AA2BF01EB0451294330BD6FEA0404B4
:1002F0001F3C1CDA0C340EDC04F11404C4F120029F
:1003000020FA04F001FA02F340EA030021FA04F3B0
:1003100045EA030130BDC4F10C04C4F1200220FA07
:1003200002F001FA04F340EA0300294630BD21FA45
:1003300004F0294630BD94F0000F83F4801306BF0B
:1003400081F480110134013D4EE77FEA645C18BFFF
:100350007FEA655C29D094EA050F08BF90EA020F96
:1003600005D054EA000C04BF1946104630BD91EA8E
:10037000030F1EBF0021002030BD5FEA545C05D191
:100380004000494128BF41F0004130BD14F58004D0
:100390003CBF01F5801130BD01F0004545F0FE4144
:1003A00041F470014FF0000030BD7FEA645C1ABF79
:1003B000194610467FEA655C1CBF0B46024650EAB0
:1003C000013406BF52EA033591EA030F41F40021DC
:1003D00030BD00BF90F0000F04BF0021704730B562
:1003E0004FF4806404F132044FF000054FF0000137
:1003F00050E700BF90F0000F04BF0021704730B5F8
:100400004FF4806404F1320410F0004548BF4042CC
:100410004FF000013EE700BF42004FEAE2014FEA21
:1004200031014FEA02701FBF12F07F4393F07F4FFC
:1004300081F06051704732F07F4208BF704793F0FF
:100440007F4F04BF41F40021704730B54FF4607412
:1004500001F0004521F000411CE700BF50EA010215
:1004600008BF704730B54FF000050AE050EA0102BE
:1004700008BF704730B511F0004502D5404261EB2E
:1004800041014FF4806404F132045FEA915C3FF46F
:10049000D8AE4FF003025FEADC0C18BF03325FEA0C
:1004A000DC0C18BF033202EBDC02C2F1200300FABD
:1004B00003FC20FA02F001FA03FE40EA0E0021FAE2
:1004C00002F11444BDE600BF70B54FF0FF0C4CF4D0
:1004D000E06C1CEA11541DBF1CEA135594EA0C0F82
:1004E00095EA0C0F00F0DEF82C4481EA030621EABD
:1004F0004C5123EA4C5350EA013518BF52EA0335F8
:1005000041F4801143F4801338D0A0FB02CE4FF0A9
:100510000005E1FB02E506F00042E0FB03E54FF0D9
:100520000006E1FB03569CF0000F18BF4EF0010ED1
:10053000A4F1FF04B6F5007F64F5407404D25FEACD
:100540004E0E6D4146EB060642EAC62141EA555180
:100550004FEAC52040EA5E504FEACE2EB4F1FD0CC2
:1005600088BFBCF5E06F1ED8BEF1004F08BF5FEA40
:10057000500E50F1000041EB045170BD06F00046F2
:1005800046EA010140EA020081EA0301B4EB5C049F
:10059000C2BFD4EB0C0541EA045170BD41F4801197
:1005A0004FF0000E013C00F3AB8014F1360FDEBFBC
:1005B000002001F0004170BDC4F10004203C35DA98
:1005C0000C341BDC04F11404C4F1200500FA05F31B
:1005D00020FA04F001FA05F240EA020001F00042BC
:1005E00021F0004110EBD37021FA04F642EB060132
:1005F0005EEA430E08BF20EAD37070BDC4F10C045C
:10060000C4F1200500FA04F320FA05F001FA04F21F
:1006100040EA020001F0004110EBD37041F100010B
:100620005EEA430E08BF20EAD37070BDC4F1200516
:1006300000FA05F24EEA020E20FA04F301FA05F27E
:1006400043EA020321FA04F001F0004121FA04F226
:1006500020EA020000EBD3705EEA430E08BF20EAF6
:10066000D37070BD94F0000F0FD101F00046400030
:1006700041EB010111F4801F08BF013CF7D041EAB2
:10068000060195F0000F18BF704703F000465200B6
:1006900043EB030313F4801F08BF013DF7D043EA87
:1006A0000603704794EA0C0F0CEA135518BF95EA3D
:1006B0000C0F0CD050EA410618BF52EA4306D1D1C4
:1006C00081EA030101F000414FF0000070BD50EAE3
:1006D000410606BF1046194652EA430619D094EA6D
:1006E0000C0F02D150EA013613D195EA0C0F05D157
:1006F00052EA03361CBF104619460AD181EA0301AB
:1007000001F0004141F0FE4141F470014FF0000062
:1007100070BD41F0FE4141F4780170BD70B54FF0FD
:10072000FF0C4CF4E06C1CEA11541DBF1CEA13557D
:1007300094EA0C0F95EA0C0F00F0A7F8A4EB05045F
:1007400081EA030E52EA03354FEA013100F0888056
:100750004FEA03334FF0805545EA131343EA12631F
:100760004FEA022245EA111545EA10654FEA0026D4
:100770000EF000419D4208BF964244F1FD0404F58D
:10078000407402D25B084FEA3202B61A65EB0305E9
:100790005B084FEA32024FF480104FF4002CB6EBA6
:1007A000020E75EB030E22BFB61A754640EA0C0026
:1007B0005B084FEA3202B6EB020E75EB030E22BF66
:1007C000B61A754640EA5C005B084FEA3202B6EBA7
:1007D000020E75EB030E22BFB61A754640EA9C0066
:1007E0005B084FEA3202B6EB020E75EB030E22BF36
:1007F000B61A754640EADC0055EA060E18D04FEAF4
:10080000051545EA16754FEA06164FEAC30343EA93
:1008100052734FEAC2025FEA1C1CC0D111F4801F60
:100820000BD141EA00014FF000004FF0004CB6E759
:1008300011F4801F04BF01430020B4F1FD0C88BFF8
:10084000BCF5E06F3FF6AFAEB5EB030C04BFB6EB03
:10085000020C5FEA500C50F1000041EB045170BDF6
:100860000EF0004E4EEA113114EB5C04C2BFD4EB23
:100870000C0541EA045170BD41F480114FF0000EA7
:10088000013C90E645EA060E8DE60CEA135594EA23
:100890000C0F08BF95EA0C0F3FF43BAF94EA0C0F26
:1008A0000AD150EA01347FF434AF95EA0C0F7FF49B
:1008B00025AF104619462CE795EA0C0F06D152EAEF
:1008C00003353FF4FDAE1046194622E750EA4106D3
:1008D00018BF52EA43067FF4C5AE50EA41047FF4E4
:1008E0000DAF52EA43057FF4EBAE12E74FEA410247
:1008F000B2F1E04324BFB3F5001CDCF1FE5C0DD97E
:1009000001F0004C4FEAC0024CEA5070B2F1004FC7
:1009100040EB830008BF20F00100704711F0804FCA
:1009200021D113F13872BCBF01F00040704741F48F
:1009300080114FEA5252C2F11802C2F1200C10FA93
:100940000CF320FA02F018BF40F001004FEAC12377
:100950004FEAD32303FA0CFC40EA0C0023FA02F31B
:100960004FEA4303CCE77FEA625307D150EA0133F1
:100970001EBF4FF0FE4040F44000704701F00040C1
:1009800040F0FE4040F40000704700BF80F000409F
:1009900002E000BF81F0004142001FBF5FEA410357
:1009A00092EA030F7FEA226C7FEA236C6AD04FEA57
:1009B0001262D2EB1363C1BFD2184140484041409C
:1009C000B8BF5B42192B88BF704710F0004F40F44E
:1009D000000020F07F4018BF404211F0004F41F46A
:1009E000000121F07F4118BF494292EA030F3FD036
:1009F000A2F1010241FA03FC10EB0C00C3F1200349
:100A000001FA03F100F0004302D5494260EB4000D7
:100A1000B0F5000F13D3B0F1807F06D340084FEA42
:100A2000310102F10102FE2A51D2B1F1004F40EB37
:100A3000C25008BF20F0010040EA0300704749009F
:100A400040EB0000013A28BFB0F5000FEDD2B0FA3C
:100A500080FCACF1080CB2EB0C0200FA0CF0AABF5F
:100A600000EBC25052421843BCBFD04018437047FD
:100A700092F0000F81F4000106BF80F40000013203
:100A8000013BB5E74FEA41037FEA226C18BF7FEADA
:100A9000236C21D092EA030F04D092F0000F08BF1C
:100AA0000846704790EA010F1CBF0020704712F003
:100AB0007F4F04D1400028BF40F00040704712F142
:100AC00000723CBF00F50000704700F0004343F0A7
:100AD000FE4040F4000070477FEA226216BF0846DD
:100AE0007FEA23630146420206BF5FEA412390EAA0
:100AF000010F40F4800070474FF0000304E000BF96
:100B000010F0004348BF40425FEA000C08BF704746
:100B100043F0964301464FF000001CE050EA01020A
:100B200008BF70474FF000030AE000BF50EA01021F
:100B300008BF704711F0004302D5404261EB41010C
:100B40005FEA010C02BF84460146002043F0B64331
:100B500008BFA3F18053A3F50003BCFA8CF2083A56
:100B6000A3EBC25310DB01FA02FC634400FA02FC5F
:100B7000C2F12002BCF1004F20FA02F243EB020066
:100B800008BF20F00100704702F1200201FA02FCC8
:100B9000C2F1200250EA4C0021FA02F243EB0200BB
:100BA00008BF20EADC7070474FF0FF0C1CEAD052FF
:100BB0001EBF1CEAD15392EA0C0F93EA0C0F6FD0C0
:100BC0001A4480EA010C400218BF5FEA41211ED09E
:100BD0004FF0006343EA501043EA5111A0FB01318A
:100BE0000CF00040B1F5000F3EBF490041EAD3715F
:100BF0005B0040EA010062F17F02FD2A1DD8B3F1DB
:100C0000004F40EBC25008BF20F00100704790F049
:100C1000000F0CF0004C08BF49024CEA502040EA9B
:100C200051207F3AC2BFD2F1FF0340EAC250704761
:100C300040F400004FF00003013A5DDC12F1190F9F
:100C4000DCBF00F000407047C2F10002410021FA11
:100C500002F1C2F1200200FA02FC5FEA310040F129
:100C6000000053EA4C0308BF20EADC70704792F0A2
:100C7000000F00F0004C02BF400010F4000F013ADA
:100C8000F9D040EA0C0093F0000F01F0004C02BFD5
:100C9000490011F4000F013BF9D041EA0C018FE744
:100CA0000CEAD15392EA0C0F18BF93EA0C0F0AD04A
:100CB00030F0004C18BF31F0004CD8D180EA010070
:100CC00000F00040704790F0000F17BF90F0004F09
:100CD000084691F0000F91F0004F14D092EA0C0FEB
:100CE00001D142020FD193EA0C0F03D14B0218BF7E
:100CF000084608D180EA010000F0004040F0FE40C4
:100D000040F40000704740F0FE4040F4400070475F
:100D10004FF0FF0C1CEAD0521EBF1CEAD15392EADE
:100D20000C0F93EA0C0F69D0A2EB030280EA010CCE
:100D300049024FEA402037D04FF0805343EA111167
:100D400043EA10130CF000408B4238BF5B0042F1C5
:100D50007D024FF4000C8B4224BF5B1A40EA0C006A
:100D6000B3EB510F24BFA3EB510340EA5C00B3EB9C
:100D7000910F24BFA3EB910340EA9C00B3EBD10F8A
:100D800024BFA3EBD10340EADC001B0118BF5FEADC
:100D90001C1CE0D1FD2A3FF650AF8B4240EBC25005
:100DA00008BF20F0010070470CF0004C4CEA5020C6
:100DB0007F32C2BFD2F1FF0340EAC250704740F415
:100DC00000004FF00003013A37E792F0000F00F007
:100DD000004C02BF400010F4000F013AF9D040EA85
:100DE0000C0093F0000F01F0004C02BF490011F419
:100DF000000F013BF9D041EA0C0195E70CEAD15311
:100E000092EA0C0F08D142027FF47DAF93EA0C0FF7
:100E10007FF470AF084676E793EA0C0F04D14B02DB
:100E20003FF44CAF08466EE730F0004C18BF31F08D
:100E3000004CCAD130F000427FF45CAF31F0004387
:100E40007FF43CAF5FE700BF4FF0FF3C06E000BF20
:100E50004FF0010C02E000BF4FF0010C4DF804CD43
:100E60004FEA40024FEA41037FEA226C18BF7FEA53
:100E7000236C11D001B052EA530C18BF90EA010F55
:100E800058BFB2EB030088BFC81738BF6FEAE170E4
:100E900018BF40F0010070477FEA226C02D15FEA80
:100EA000402C05D17FEA236CE4D15FEA412CE1D0EC
:100EB0005DF8040B704700BF844608466146FFE7B3
:100EC0000FB5FFF7C9FF002848BF10F1000F0FBD95
:100ED0004DF808EDFFF7F4FF0CBF012000205DF88E
:100EE00008FB00BF4DF808EDFFF7EAFF34BF012013
:100EF00000205DF808FB00BF4DF808EDFFF7E0FFAC
:100F000094BF012000205DF808FB00BF4DF808EDFC
:100F1000FFF7D2FF94BF012000205DF808FB00BF5F
:100F20004DF808EDFFF7C8FF34BF012000205DF841
:100F300008FB00BF4FEA4002B2F1FE4F0FD34FF063
:100F40009E03B3EB12620DD94FEA002343F0004336
:100F500010F0004F23FA02F018BF404270474FF0E4
:100F60000000704712F1610F01D1420205D110F06B
:100F7000004008BF6FF0004070474FF0000070471E
:100F800042000ED2B2F1FE4F0BD34FF09E03B3EBF3
:100F9000126209D44FEA002343F0004323FA02F01F
:100FA00070474FF00000704712F1610F01D142020B
:100FB00002D14FF0FF3070474FF00000704700BF84
:100FC00010B5064C01220821204601F03FFF012206
:100FD0001021204601F03AFF10BD00BF000C014077
:100FE00010B5064C00220821204601F02FFF0022F8
:100FF0001021204601F02AFF10BD00BF000C014067
:10100000704700002DE9F843304D284602F008FBF8
:10101000DFF8BC900421484602F076FE2D4E0122F6
:101020004FF40041304601F011FF00224FF480419F
:10103000304601F00BFF0021284602F0F7FD264F55
:101040004FF00008C7F824802B6800245C63D9F8AF
:1010500000305C62DFF884900421484602F054FEC0
:1010600001224FF40051304601F0F0FE22464FF4C9
:101070008051304601F0EAFE0421284602F0D6FDF8
:10108000C7F824802B689C63D9F800305C62144E4A
:101090000421304602F038FEDFF8489001224FF478
:1010A0000061484601F0D2FE22464FF48061484676
:1010B00001F0CCFE0821284602F0B8FDC7F82480D4
:1010C0002B68DC6333685C62BDE8F8833C09002070
:1010D00064080020000C014000060020AC0800203D
:1010E000F40800200008014038B5022822D0032867
:1010F00039D0012805D0284B1868FFF71BFF00B234
:1011000038BD264B1D682B68C3F30013244A138097
:101110006C6A24B22046FFF7F3FC01461E4B1860B0
:10112000204B1C80204C2068FFF736FC20600023F9
:101130006B62E0E71D4B1D682B68C3F30013184A70
:1011400013806C6A24B22046FFF7DAFC0146124B8A
:101150001860174B1C80174C2068FFF71DFC20609F
:1011600000236B62C7E7144B1D682B68C3F30013A1
:101170000B4A13806C6A24B22046FFF7C1FC01467B
:10118000054B18600D4B1C800D4C2068FFF704FCCC
:10119000206000236B62AEE76C060020640800202C
:1011A000580400207C0600205C060020AC080020CB
:1011B0007E06002054060020F4080020800600204F
:1011C000580600200000000008B50949FFF7ECFCB4
:1011D000FFF722F904A3D3E90023FFF79FFAFFF7F3
:1011E00085FB08BDAFF300806766666666662A40C9
:1011F0000000704238B50C4800F076FD0B4D2846D3
:1012000000F072FD0A4800F06FFD0A4C204600F025
:101210006BFD094800F068FD084800F065FD084BCB
:10122000EB64E36438BD00BF000600200405002025
:10123000580500205C040020AC050020B00400200C
:101240000000484308B5FFF7DDFEFFF7D3FF08BDF8
:10125000F8B52F4C2F4BE3642F4D4FF080432B609C
:1012600000276F602D4BAB602D4B186800F0B8F96C
:1012700068622C4B23602C4B63602C4BA3600120D5
:10128000FFF732FFFFF73CFC294E3060FFF79CFF71
:101290003060284B1968284600F0A8FC284600F06A
:1012A000D5FCEB6963623168204600F09FFC204664
:1012B00000F0CCFC3946E069FFF714FEA0B91E4CE3
:1012C00001224FF40041204601F0C0FD00224FF4FE
:1012D0008041204601F0BAFD184B1C680C4BD869C0
:1012E000FFF74EFE6063F8BD134C00224FF400413F
:1012F000204601F0ABFD01224FF48041204601F071
:10130000A5FD034AD36903F10043D361E4E700BFBD
:10131000000600200000E143040500209A99993E50
:101320006806002000004040AE47E13DCDCC4C3D7A
:10133000780600205C060020000C01403C090020DB
:10134000F8B52F4C2F4B23602F4B63602F4BA360BE
:101350002F4BE3642F4D4FF080432B6000276F60CD
:101360002D4BAB602D4B186800F03AF968620220F3
:10137000FFF7BAFEFFF7C4FB294E3060FFF724FFEA
:101380003060284B1968284600F030FC284600F0F1
:101390005DFCEB6963623168204600F027FC204663
:1013A00000F054FC3946E069FFF79CFDA0B91E4CE3
:1013B00000224FF40051204601F048FD01224FF475
:1013C0008051204601F042FD184B1C680C4BD86937
:1013D000FFF7D6FDA063F8BD134C01224FF4005176
:1013E000204601F033FD00224FF48051204601F0E9
:1013F0002DFD034AD36903F10043D361E4E700BF45
:101400005805002066664640B81E053ECDCC4C3DD2
:101410000000E1435C0400209A99993E6006002098
:101420007006002054060020000C01403C090020FA
:10143000F8B52F4C2F4B23602F4B63602F4BA360CD
:101440002F4BE3642F4D4FF080432B6000276F60DC
:101450002D4BAB602D4B186800F0C2F8686203207A
:10146000FFF742FEFFF74CFB294E3060FFF7ACFE62
:101470003060284B1968284600F0B8FB284600F079
:10148000E5FBEB6963623168204600F0AFFB204664
:1014900000F0DCFB3946E069FFF724FDA0B91E4CE3
:1014A00000224FF40061204601F0D0FC01224FF4ED
:1014B0008061204601F0CAFC184B1C680C4BD869AF
:1014C000FFF75EFDE063F8BD134C01224FF40061AD
:1014D000204601F0BBFC00224FF48061204601F061
:1014E000B5FC034AD36903F10043D361E4E700BFCD
:1014F000AC05002066664640B81E053ECDCC4C3D8E
:101500000000E143B00400209A99993E640600204F
:101510007406002058060020000801403C09002005
:1015200008B5054B834200D008BDFFF791FEFFF7D9
:1015300007FFFFF77DFFF7E73C09002070B50023A8
:10154000154A1370154A1370002215490A6015498F
:101550000B6015490B7015490B6015490B60154957
:101560000A60154A1370154A1370154A1370154A0C
:101570001360154E304600F0B7FB144C204600F0C7
:10158000B3FB134D284600F0AFFB124BF364124B34
:10159000EB64E36470BD00BF4A07002048070020E9
:1015A00044070020900600208806002094060020B2
:1015B0008C06002084060020490700204B070020ED
:1015C0004C07002098060020F0060020500700205D
:1015D0009C0600200000A041000020410000000007
:1015E00008B50B49FFF7E0FA0A49FFF791FBFEF750
:1015F00013FF05A3D3E90023FFF790F8FFF776F96F
:1016000008BD00BFAFF300806F1283C0CA2109403C
:101610000000A5440000E04038B504460C4D0146EA
:101620002868FFF7B9F928600A4D21462868FFF7B6
:10163000B1F92860084D21462868FFF7ADF9286008
:10164000064B074AD364074AD364074AD36438BDBC
:101650006806002064060020600600200000A0410B
:10166000040500205C040020B004002038B50446C6
:101670000E4D00212868FFF78FF928600C4920469D
:10168000FFF792FA04460B4D01462868FFF784F9EC
:101690002860094D21462868FFF77EF92860074B2E
:1016A000074AD364074AD36438BD00BF68060020E8
:1016B0002DB25D3F600600206406002066E601430F
:1016C0005C040020B004002038B50446124D0146E9
:1016D0002868FFF761F9286004F100404FF07C5161
:1016E000FFF762FA01460D4D2868FFF755F92860AB
:1016F0004FF07C512046FFF757FA0146084C20680E
:10170000FFF74AF92060074B074ADA64074B084A9B
:10171000D364084AD36438BD680600206006002000
:1017200064060020040500200000164300009642D5
:101730005C040020B004002038B5734B1B78002BEC
:101740006AD0724B1B78002B5BD0714B1B68322B1D
:1017500003D8704A1278002A63D0322B04D96D4B1B
:101760001B78002B00F083806A4B1B78002B53D032
:10177000694B1B68322B4FD8684C694B23600023A0
:101780006360A360674B6362674BB3F90000FFF7C8
:10179000B7F90146204600F029FA204600F056FA33
:1017A000E06900F10040FFF761FF322001F076F8B8
:1017B0005E4DE1692868FFF7EFF82860564B1B681B
:1017C000312B04D8584BB3F900300F2B24DC002305
:1017D000504A13704C4A13705548FFF747FF40F6C4
:1017E000B83001F05BF8FFF7EBFBFFF709FC514B5A
:1017F00001221A7041F2883001F050F8FFF7F0FB37
:101800000AE04D48FFF708FF4FF47A7001F046F800
:101810004A4A136801331360464B1B78012B2ED0C4
:1018200038BD474C474B236000236360A36063626D
:10183000454BB3F90000FFF763F90146204600F07D
:10184000D5F9204600F002FA404BE364322001F063
:1018500025F8E069FFF7E0FE3D4DE1692868FFF7F4
:101860009BF828602A4A136801331360D4E7294B98
:1018700001221A704FF4967001F010F8CCE7354849
:10188000FFF7F4FE4FF4FA6001F008F82849274BFF
:101890001868FFF781F8FFF7E9FE40F6B83000F06E
:1018A000FDFF2B4B186800F10040FEF7B5FD044624
:1018B0000D46224B1868FEF78DFD11A3D3E90023D6
:1018C000FEF702FE0022244BFEF728FF02460B46DD
:1018D00020462946FEF740FCFFF708F8FFF79CFE7C
:1018E0001E48FFF799FE41F2883000F0D7FF012330
:1018F0001B4A13701B4A13700E4B00221A708FE79D
:10190000B81E85EB51384F40480700204A07002099
:1019100090060020880600208C0600209C060020EF
:10192000CDCCCC3D00007041BC07002084060020D7
:101930000000A04149070020D9CEC74094060020EE
:10194000F00600200AD7A33BBE0700200000A040FD
:10195000440700200000A0C1000024408FC2F941CC
:101960004B0700204C0700202B4B1B78002B52D03C
:1019700010B52A4B1B78002B3FD0294B1B783BB965
:10198000284B1B68322B0ED9244B00221A7041E0E1
:101990002548FFF76BFE40F6B83000F07FFF204B84
:1019A00000221A7036E0214C214B23600023636033
:1019B000A360204B6362204B1868FFF79DF8014637
:1019C000204600F013F9204600F040F9154B1B6843
:1019D000192B0AD9182B0CD8144BD869FFF774FEB1
:1019E000104A13680133136014E0C82000F056FF5A
:1019F000F2E7322000F052FFEEE7642000F04EFFE5
:101A00000E48FFF733FE41F2883000F047FF024BEB
:101A100000221A7010BD70474B0700204C070020B1
:101A2000000000209806002000001443500700200A
:101A30000AD7233C0000AF435C08002000001EC30F
:101A400008B501220249034802F05FFC08BD00BF4F
:101A5000C5070020940A0020424B1B780BB92C28A4
:101A60000BD0012B14D0022B1FD0032B52D00023FC
:101A70003C4A13703C4A137071E03A4B01221A70D1
:101A8000394A1378591C1170384A22F813007047EC
:101A90001228E8D1334B02221A70334A1378591CAA
:101AA0001170324A22F8130070472F490A78531CEC
:101AB000DBB20B702D4921F81200092B02D85B28EC
:101AC00000D0704710B4274A03211170284A012121
:101AD0001170591F254A12F911C0264981F800C01A
:101AE000191F12F9110024490870D91E12F911109A
:101AF000224C2170023B12F91330214A1370214A03
:101B0000A2F800C0204A1080204A1170204A1370A9
:101B100010BC7047144B1B78013B144A32F9133048
:101B20005B2B05D000230F4A13700F4A13700DE092
:101B300000230F4A13700C4A13700A4A137070473F
:101B40000A4A002122F813100133DBB2092BF7D91E
:101B50007047064A002122F813100133DBB2092B2B
:101B6000F7D97047BA070020B8070020A407002063
:101B7000B9070020C2070020C3070020C1070020CA
:101B8000C0070020BE070020BC0700204A07002035
:101B9000C407002010B5044602680E4B9A420ED0CE
:101BA00001220D490D4802F0B0FB22680C4B9A420D
:101BB0000BD001220B490C4802F0A7FB10BD064BCD
:101BC00093F90000FFF748FFEAE7064B187800F0AA
:101BD000C3F8EEE700440040C5070020940A002047
:101BE0000048004060080020D80A002070B5044674
:101BF000816203694361C3680361406AFEF7CAFEFC
:101C00000546E060666C3146FFF76CF938B106F1C5
:101C100000412846FFF784F908B10023E360A16979
:101C2000E068FEF7B9FE0546A061A66C3146FFF7F5
:101C300077F908B1A66170BD06F100463146284625
:101C4000FFF750F90028F6D0A661F4E7F8B504468E
:101C5000C66831460068FEF7A7FF0546A7682169F8
:101C60003046FEF797FE01463846FEF79DFF0146D7
:101C70002846FEF791FE0546E0616168A069FEF71F
:101C800093FF01462846FEF787FEE061E56C294692
:101C9000FFF73CF900B1E56105F100452946E0692F
:101CA000FFF72AF900B1E561256A2946E069FEF7E8
:101CB00071FE266D3146FFF733F920B131462846D3
:101CC000FEF76AFEE0612946E069FEF763FE06F171
:101CD0000041FFF707F920B131462846FEF75AFECA
:101CE000E061E0692062F8BD002303604360836027
:101CF000C360036143618361C361036243628362C2
:101D0000012280F82C20036343634FF07E518163EE
:101D10000749C16380F84020002280F841204364D5
:101D2000044B8364044BC364044B0365704700BFDA
:101D30000000704100803B4500401F460080474541
:101D400008B501220249034802F0DFFA08BD00BFCE
:101D5000D8070020D80A0020594B1B780BB96428FB
:101D600009D0012B12D0022B1DD00023544A13702E
:101D7000544A13709FE0524B01221A70514A137853
:101D8000591C1170504A22F8130070473A28EAD1C2
:101D90004B4B02221A704B4A1378591C11704A4A55
:101DA00022F81300704747490A78531CDBB20B70C6
:101DB000454921F81200072B07D0072B7ED90023B5
:101DC0003F4A13703F4A13706CE02028F5D110B4DD
:101DD000591F3D4A12F811C03C4981F800C0191F33
:101DE00012F811003A490870D91E12F81110394C36
:101DF0002170023B12F81330374A1370BCF12F0FD9
:101E000038D8324A4FF0000C82F800C02F2837D85B
:101E10002F4A002010702F2936D82E4A0021117029
:101E20002F2B35D82C4B00221A700023254A137013
:101E3000234A1370254B1A78254B1B78642101FB2C
:101E400003F34FF47A7101FB0233224A127802EB5A
:101E5000820203EB4203204A127813441F4A1360A4
:101E6000A3F5AA73142B03D813464FF4AF721A606C
:101E700010BC7047ACF1300C144A82F800C0C5E7C2
:101E80003038134A1070C6E73039124A1170C7E76C
:101E9000303B114A1370C8E70B4A002122F8131097
:101EA0000133DBB2062BF7D97047074A002122F82D
:101EB00013100133DBB2062BF7D97047704700BF10
:101EC000D7070020D6070020C807002059080020A7
:101ED0005A0800205B080020580800205C080020F9
:101EE00000B583B0164B5A6942F001025A615B6932
:101EF00003F001030193019B002211460C2000F026
:101F0000F3FC0C2000F028FD002211460D2000F00B
:101F1000EBFC0D2000F020FD00221146102000F007
:101F2000E3FC102000F018FD00221146112000F003
:101F3000DBFC112000F010FD03B05DF804FB00BFD6
:101F4000001002402DE9F04389B000240494059468
:101F5000069407942F4B9A6942F010029A619A698D
:101F600002F010020092009A9A6942F020029A61EF
:101F70009A6902F020020192019A9A6942F00402E1
:101F80009A619A6902F004020292029A9A6942F0F6
:101F900008029A619B6903F008030393039BDFF82F
:101FA000789022464FF40051484600F04FFFDFF88A
:101FB0006C8022464FF21801404600F047FF184F50
:101FC00022464FF44061384600F040FF4FF4005382
:101FD00004930126059606940225079504A9484610
:101FE00000F022FE4FF2180304930596069407951D
:101FF00004A9404600F018FE4FF440630493059690
:102000000694079504A9384600F00EFE09B0BDE815
:10201000F08300BF0010024000100140000C01409E
:102020000008014072B6FEE700B591B028220021F9
:1020300006A802F0ABF900230193029303930493E3
:102040000593012206924FF4803307930A920222ED
:102050000D920E934FF4E0130F9306A800F012FFB9
:1020600080B90F23019302210291002303934FF4BF
:1020700080620492059301A801F044F920B911B0DF
:102080005DF804FBFFF7CEFFFFF7CCFF08B500F0CB
:10209000E1FBFFF7C9FFFFF755FFFFF721FF00F056
:1020A0009FF800F0D1F800F001F900F0F7F900F026
:1020B0006DFA00F085FA0C4801F0B2FAFFF7C2F8A9
:1020C000FEF7A0FFFFF7BCFCFFF73AFE4FF4FA6003
:1020D00000F0E4FBFFF732FA044B01221A70FFF71D
:1020E0002BFBFFF741FCFAE73C09002048070020E2
:1020F00082B00E4B9A6942F001029A619A6902F02D
:1021000001020092009ADA6942F08052DA61DB69DA
:1021100003F080530193019B054A536823F0E06369
:1021200043F00073536002B0704700BF00100240DC
:1021300000000140FEE7FEE7FEE7FEE7FEE770472E
:102140007047704708B500F097FB08BD08B5024816
:1021500000F0C8FC08BD00BF500A002008B50248C6
:1021600000F0C0FC08BD00BF0C0A002008B5024802
:1021700000F0B8FC08BD00BF8409002008B5024883
:1021800000F0B0FC08BD00BFC809002008B5024837
:1021900001F07FFA08BD00BFAC08002008B5024876
:1021A00001F077FA08BD00BFF408002008B5024826
:1021B00001F06FFA08BD00BF3C09002008B50248D5
:1021C00001F086FF08BD00BF940A002008B5024850
:1021D00001F07EFF08BD00BFD80A00207047000054
:1021E00000B58DB02422002103A802F0CFF800230F
:1021F000019302931248134A0260436083604FF6D2
:10220000FF72C260036143618023836103230393F0
:1022100001230593099303A901F08AFB50B9002318
:102220000193029301A9064801F0D4FD28B90DB02D
:102230005DF804FBFFF7F6FEF1E7FFF7F3FEF6E7C4
:1022400064080020002C014000B58DB0242200213C
:1022500003A802F09BF800230193029312484FF069
:1022600080420260436083604FF6FF72C260036188
:10227000802383610323039301230593099303A917
:1022800001F056FB50B900230193029301A90648BF
:1022900001F0A0FD28B90DB05DF804FBFFF7C2FE08
:1022A000F1E7FFF7BFFEF6E7AC08002000B58DB000
:1022B0002422002103A802F069F80023019302936D
:1022C0001248134A0260436083604FF6FF72C26097
:1022D00003618023836103230393012305930993FF
:1022E00003A901F025FB50B900230193029301A932
:1022F000064801F06FFD28B90DB05DF804FBFFF74B
:1023000091FEF1E7FFF78EFEF6E700BFF40800202C
:102310000004004000B58BB0002306930793089398
:1023200009930368354A934208D0B3F1804F20D017
:10233000334A934240D00BB05DF804FB314B9A69AD
:1023400042F400629A619A6902F400620092009A73
:102350009A6942F004029A619B6903F004030193B5
:10236000019B4FF44073069306A9274800F05CFCDC
:10237000E1E703F50433DA6942F00102DA61DA6970
:1023800002F001020292029A9A6942F004029A61F2
:102390009B6903F004030393039B0323069306A99D
:1023A000194800F041FC002211461C2000F09CFA64
:1023B0001C2000F0D1FABEE7124BDA6942F00202AB
:1023C000DA61DA6902F002020492049A9A6942F030
:1023D00004029A619B6903F004030593059BC023E3
:1023E000069306A9084800F01FFC002211461D2094
:1023F00000F07AFA1D2000F0AFFA9CE7002C0140B3
:1024000000040040001002400008014002680E4B2A
:102410009A4200D0704700B583B003F50233DA6901
:1024200042F00402DA61DB6903F004030193019BCB
:10243000002201211E2000F057FA1E2000F08CFA25
:1024400003B05DF804FB00BF0008004000B587B092
:102450000023029303930493059302680D4B9A4261
:1024600002D007B05DF804FB03F502339A6942F02D
:1024700008029A619B6903F008030193019B4FF4E2
:102480007073029302230393059302A9024800F09C
:10249000CBFBE6E700080040000C014000B58FB020
:1024A00000230A930B930C930D93089309930193C4
:1024B0000293039304930593069307933148324A9A
:1024C000026040F29F524260836040F2F312C260A9
:1024D00003618023836101F0D3F9002839D14FF4DF
:1024E00080530A930AA9274801F024FB002833D11E
:1024F000244801F0F1F9002831D100230893099311
:1025000008A9204801F066FC60BB6023019300220B
:1025100002920392059201A91A4801F097FA20BB92
:1025200004220DEB0201174801F090FA00BB0822CB
:1025300001A9144801F08AFAE8B90C2201A911484E
:1025400001F084FAD0B90F48FFF780FF0FB05DF8B3
:1025500004FBFFF767FDC2E7FFF764FDC8E7FFF77D
:1025600061FDCAE7FFF75EFDCFE7FFF75BFDD7E749
:10257000FFF758FDDBE7FFF755FDDEE7FFF752FDFC
:10258000E1E700BF3C0900200008004008B50A4808
:102590000A4B03604FF4E133436000238360C36060
:1025A00003610C2242618361C36101F0DFFC00B969
:1025B00008BDFFF737FDFBE7940A00200044004008
:1025C00008B50A480A4B03604FF4E1334360002327
:1025D0008360C36003610C2242618361C36101F0C7
:1025E000C5FC00B908BDFFF71DFDFBE7D80A0020B8
:1025F0000048004070B588B004460023049305935A
:10260000069307930368604A934204D05F4A93425B
:102610005CD008B070BD5E4BDA6942F40032DA611A
:10262000DA6902F400320092009A9A6942F00402D8
:102630009A619B6903F004030193019B04230493B3
:102640000223059303230793524E04A9304600F05A
:10265000EBFA0823049300250595069504A9304656
:1026600000F0E2FA4C484D4B0360456085608023E2
:10267000C3600561456120238361C56100F08EF967
:10268000F0B9454BA3635C624548464B0360102399
:102690004360002383608022C260036143618361E1
:1026A000C36100F07BF970B93D4B63635C6200224B
:1026B0001146262000F018F9262000F04DF9A8E771
:1026C000FFF7B0FCDDE7FFF7ADFCEDE7304BDA6973
:1026D00042F48022DA61DA6902F480220292029ADC
:1026E0009A6942F008029A619B6903F00803039318
:1026F000039B4FF480630493022305930323079302
:10270000294E04A9304600F08FFA4FF40063049379
:1027100000250595069504A9304600F085FA234862
:10272000234B0360456085608023C360056145617C
:1027300020238361C56100F031F9F0B91B4BA3631D
:102740005C621C481C4B03601023436000238360C1
:102750008022C260036143618361C36100F01EF99E
:1027600070B9144B63635C6200221146272000F0AD
:10277000BBF8272000F0F0F84BE7FFF753FCDDE74C
:10278000FFF750FCEDE700BF004400400048004068
:102790000010024000080140840900206C00024043
:1027A000C809002080000240000C01400C0A0020F3
:1027B00030000240500A00201C0002400C480D4925
:1027C0000D4A002302E0D458C4500433C4188C428C
:1027D000F9D30A4A0A4C002301E013600432A242F2
:1027E000FBD3FFF7FBFC01F0ADFDFFF74FFC70479B
:1027F000000000203C040020644500083C04002048
:10280000240B0020FEE7000010B504460E4B18789C
:102810004FF47A73B3FBF0F30C4A1068B0FBF3F09B
:1028200000F0A8F868B90F2C01D901200AE00022B5
:1028300021464FF0FF3000F057F8054B1C60002098
:1028400000E0012010BD00BF0800002004000020AF
:102850000C00002008B5074A136843F0100313600A
:10286000032000F02FF80F20FFF7CEFFFFF740FC0A
:10287000002008BD00200240034A1168034B1B786A
:102880000B441360704700BF1C0B002008000020A1
:10289000014B1868704700BF1C0B002038B5044678
:1028A000FFF7F6FF0546B4F1FF3F02D0044B1B785B
:1028B0001C44FFF7EDFF401BA042FAD338BD00BF18
:1028C00008000020074AD36823F4E0631B041B0CB4
:1028D000000200F4E060034343F0BF6343F40033BD
:1028E000D360704700ED00E000B5194BDB68C3F31F
:1028F0000223C3F1070CBCF1040F28BF4FF0040CF6
:1029000003F1040EBEF1060F18D9033B4FF0FF3E52
:102910000EFA0CFC21EA0C0199400EFA03F322EAAC
:102920000303194300280BDB0901C9B200F1604021
:1029300000F5614080F800135DF804FB0023E5E733
:1029400000F00F000901C9B2024B1954F4E700BFAF
:1029500000ED00E014ED00E0002807DB00F01F02AE
:10296000400901239340024A42F82030704700BFDB
:1029700000E100E00138B0F1807F0BD24FF0E0239E
:102980005861054AF02182F823100020986107223F
:102990001A6170470120704700ED00E060B310B489
:1029A00002460168154B0B441548A0FB03031B09A5
:1029B0009B001364134BD363022382F82130086811
:1029C00020F47F5020F03000536894682343D4688B
:1029D0002343146923435469234394692343D469EB
:1029E000234303430B6000209063012382F82130CE
:1029F00082F8200010BC704701207047F8FFFDBF2F
:102A0000CDCCCCCC0000024090F82130022B06D077
:102A100004238363002380F820300120704702687C
:102A2000136823F00E0313600268136823F0010398
:102A30001360036CC16B012202FA03F34B6080F850
:102A40002120002380F820301846704708B590F800
:102A50002130022B03D004238363012008BD0268C8
:102A6000136823F00E0313600268136823F0010358
:102A700013600368194A934214D0143293421FD052
:102A8000143293421ED0143293421ED01432934219
:102A90001ED01432934202D04FF0807203E04FF404
:102AA000801200E001220E4B5A60012380F8213091
:102AB000002380F82030436B6BB198470020CDE7AE
:102AC0001022F0E74FF48072EDE74FF48052EAE70E
:102AD0004FF48032E7E70020C0E700BF0800024063
:102AE0000000024038B5C36B1A6804682568016CA1
:102AF00004238B40134235D015F0040F32D02368E5
:102B000013F0200F03D1236823F00403236003682C
:102B1000434A934214D01432934218D01432934251
:102B200017D01432934217D01432934217D0143274
:102B3000934202D04FF0806203E04FF4800200E045
:102B40000422384B5A60C36A03B1984738BD40220B
:102B5000F7E74FF48062F4E74FF48042F1E74FF477
:102B60008022EEE702238B4013423CD015F0020F87
:102B700039D0236813F0200F06D1236823F00A030D
:102B80002360012380F821300368254A934214D042
:102B9000143293421CD0143293421BD0143293420D
:102BA0001BD0143293421BD01432934202D04FF008
:102BB000007203E04FF4001200E00222194B5A6049
:102BC000002380F82030836A002BBFD09847BDE7F0
:102BD0002022F3E74FF40072F0E74FF40052EDE7E4
:102BE0004FF40032EAE7082303FA01F11142ADD0B5
:102BF00015F0080FAAD0236823F00E032360026C9F
:102C0000C16B012303FA02F24A60836380F821302A
:102C1000002380F82030036B002B97D0984795E76E
:102C2000080002400000024070B582B00024A446B3
:102C3000A6E0804DAA4210D007D97F4DAA420CD001
:102C400005F58035AA4208D013E0A5F58015AA4203
:102C500003D005F57025AA4207D18A68002A58D00A
:102C6000012A51D04361082403E0A5F58015AA424A
:102C7000F3D0BEF1FF0F4ED80646BEF1FF0F4CD881
:102C80004FEA8C0233680F25954023EA050304FAC6
:102C900002F2134333604B6813F0805F6ED0674BD2
:102CA0009A6942F001029A619B6903F00103019362
:102CB000019B4FEA9C02951C614B53F825600CF078
:102CC00003039D000F23AB4026EA03065D4B9842A9
:102CD00029D003F58063984200F08E8003F580636D
:102CE000984200F08B8003F58063984219D004234A
:102CF0001AE0CC68BDE7CC680434BAE7CC68083485
:102D0000B7E7CC680C34B4E703610824B1E70024CA
:102D1000AFE70424ADE7061DAFE7ACF1080292006F
:102D2000B0E7032300E00023AB4033430232444DBD
:102D300045F822304B6813F4803F61D0424A136853
:102D400043EA0E0313604B6813F4003F5ED03E4A23
:102D5000536843EA0E0353604B6813F4801F5BD043
:102D6000394A936843EA0E0393604B6813F4001FDB
:102D700058D0354AD36843EA0E03D3600CF1010CF6
:102D80000A6832FA0CF353D0012303FA0CF302EA77
:102D9000030E33EA0202F1D14A68122A3FF649AF24
:102DA000122A3FF666AF01A555F822F05B2C000809
:102DB000F32C0008FD2C00080F2D0008732C0008D0
:102DC000732C0008732C0008732C0008732C000867
:102DD000732C0008732C0008732C0008732C000857
:102DE000732C0008732C0008732C0008732C000847
:102DF000F72C0008032D0008012395E7022393E731
:102E0000114A136823EA0E0313609CE70E4A5368C5
:102E100023EA0E0353609FE70B4A936823EA0E03ED
:102E20009360A2E7084AD36823EA0E03D360A5E7BC
:102E300002B070BD000022100000311000100240EE
:102E40000000014000080140000401400AB1016196
:102E5000704709040161704782B0084B1B68084A3B
:102E6000A2FB03235B0A00FB03F3019300BF019B5A
:102E70005A1E0192002BF9D102B0704704000020C5
:102E8000D34D6210002800F0F18170B582B0044685
:102E9000036813F0010F2CD0994B5B6803F00C030F
:102EA000042B1DD0964B5B6803F00C03082B12D04B
:102EB0006368B3F5803F41D0002B55D103F18043C7
:102EC00003F504331A6822F480321A601A6822F477
:102ED00080221A6037E08A4B5B6813F4803FE7D0AA
:102EE000874B1B6813F4003F03D06368002B00F08E
:102EF000BF81236813F0020F75D0814B5B6813F01C
:102F00000C0F5FD07E4B5B6803F00C03082B54D092
:102F10002369002B00F08A807A4B01221A60FFF7A8
:102F2000B7FC0546764B1B6813F0020F75D1FFF70F
:102F3000AFFC401B0228F5D903209EE1704A1368BC
:102F400043F480331360636843B3FFF7A1FC054685
:102F50006B4B1B6813F4003FCBD1FFF799FC401B70
:102F60006428F5D9032088E1B3F5A02F09D0644B7C
:102F70001A6822F480321A601A6822F480221A60D9
:102F8000E1E703F18043A3F53C331A6842F4802261
:102F90001A601A6842F480321A60D4E7FFF778FCAE
:102FA0000546574B1B6813F4003FA2D0FFF770FC97
:102FB000401B6428F5D903205FE1514B5B6813F493
:102FC000803FA5D14E4B1B6813F0020F03D023693D
:102FD000012B40F04F814A4A136823F0F8036169DE
:102FE00043EAC1031360236813F0080F33D0A369C9
:102FF000002B5CD0434B0122C3F88024FFF748FC30
:1030000005463F4B5B6A13F0020F21D1FFF740FCEE
:10301000401B0228F5D903202FE1394A136823F019
:10302000F803616943EAC1031360DCE7354B002212
:103030001A60FFF72DFC0546314B1B6813F0020F99
:10304000D1D0FFF725FC401B0228F5D9032014E15D
:103050000120FFF701FF236813F0040F00F09680B2
:10306000274BDB6913F0805F34D1254BDA6942F0DE
:103070008052DA61DB6903F080530193019B0125E3
:10308000214B1B6813F4807F26D0E368012B3DD0D1
:10309000002B53D103F1804303F504331A6A22F065
:1030A00001021A621A6A22F004021A6233E0154B16
:1030B0000022C3F88024FFF7EBFB0546104B5B6A48
:1030C00013F0020FC7D0FFF7E3FB401B0228F5D92E
:1030D0000320D2E00025D3E70B4A136843F4807342
:1030E0001360FFF7D5FB0646074B1B6813F4807F80
:1030F000CBD1FFF7CDFB801B6428F5D90320BCE0C2
:103100000010024000004242007000405F4A136A13
:1031100043F001031362E36833B3FFF7B9FB0646DC
:103120005A4B1B6A13F0020F2FD1FFF7B1FB801B24
:1031300041F288339842F3D903209EE0052B09D051
:10314000524B1A6A22F001021A621A6A22F0040231
:103150001A62E0E74D4B1A6A42F004021A621A6AD8
:1031600042F001021A62D6E7FFF792FB0646474B90
:103170001B6A13F0020F08D0FFF78AFB801B41F295
:1031800088339842F3D9032077E0E5B9E369002B4F
:1031900072D03E4A526802F00C02082A56D0022B26
:1031A00017D03B4B00221A66FFF772FB0446374BE1
:1031B0001B6813F0007F47D0FFF76AFB001B022853
:1031C000F5D9032059E0314AD36923F08053D36104
:1031D000DCE72F4B00221A66FFF75AFB05462B4B04
:1031E0001B6813F0007F06D0FFF752FB401B02283C
:1031F000F5D9032041E0236AB3F5803F1AD0234973
:103200004B6823F47413226A606A024313434B60D1
:103210001F4B01221A66FFF73BFB04461B4B1B6842
:1032200013F0007F0ED1FFF733FB001B0228F5D906
:10323000032022E0154A536823F40033A1680B43AE
:103240005360DCE7002018E0002016E0012B16D0C8
:103250000E4B5B6803F48031226A914211D103F472
:103260007013626A93420ED1002006E0012070477D
:10327000012002E0012000E0002002B070BD01202A
:10328000FBE70120F9E70120F7E700BF001002404B
:103290000000424286B0174B0FCB0DF1180C0CE921
:1032A0000F0040F20123ADF80430134B5B6803F0CC
:1032B0000C02082A02D0114806B07047C3F38342BB
:1032C00018326A4412F8100C13F4803F0DD00A4BE8
:1032D0005B68C3F3404318336B4413F8143C074A4C
:1032E00002FB00F0B0FBF3F0E6E7054B03FB00F058
:1032F000E2E700BF404500080010024000127A00DB
:1033000000093D00002800F0A08070B50D4604467D
:10331000524B1B6803F007038B420BD24F4A1368D2
:1033200023F007030B431360136803F007038B427A
:1033300040F08D80236813F0020F17D013F0040FB4
:1033400004D0474A536843F4E0635360236813F0A2
:10335000080F04D0424A536843F460535360404A14
:10336000536823F0F003A1680B435360236813F004
:10337000010F31D06368012B20D0022B25D0384AB1
:10338000126812F0020F64D035494A6822F0030235
:1033900013434B60FFF77CFA0646314B5B6803F042
:1033A0000C036268B3EB820F16D0FFF771FA801B33
:1033B00041F288339842F0D9032045E0284A126848
:1033C00012F4003FE0D101203EE0254A126812F0DD
:1033D000007FD9D1012037E0204B1B6803F00703A1
:1033E000AB420AD91D4A136823F007032B4313602D
:1033F000136803F00703AB422DD1236813F0040FC9
:1034000006D0174A536823F4E063E1680B43536026
:10341000236813F0080F07D0114A536823F4605350
:10342000216943EAC1035360FFF734FF0C4B5B682B
:10343000C3F303130B4AD35CD8400B4B18600B4B00
:103440001868FFF7E1F9002070BD012070470120E6
:10345000FAE70120F8E70120F6E700BF002002406C
:103460000010024028450008040000200C00002045
:10347000014B1868704700BF0400002008B5FFF733
:10348000F7FF044B5B68C3F30223034AD35CD840C5
:1034900008BD00BF001002403845000808B5FFF71E
:1034A000E7FF044B5B68C3F3C223034AD35CD840F5
:1034B00008BD00BF001002403845000870B4036A20
:1034C00023F001030362036A4668826922F07302F3
:1034D0000C6844EA020523F002028B6813430D4C8A
:1034E000A04209D00B4CA0420DD0466085614A68CD
:1034F0004263036270BC704723F00803CA68134339
:1035000023F00403EEE726F440764A6932438E69DD
:103510001643EAE7002C014030B4036A23F48073B9
:103520000362036A4568C26922F073020C68224391
:1035300023F400738C6843EA04230F4CA04209D0A3
:103540000D4CA0420ED04560C2614A68C26303625E
:1035500030BC704723F40063CC6843EA042323F4AF
:103560008063EDE725F440554C6945EA04158C6904
:1035700045EA0415E7E700BF002C014030B4036AB8
:1035800023F480530362036A4468C26922F4E6426A
:103590000D6842EA052223F400538D6843EA05339F
:1035A000074DA84206D04460C2614A6802640362C3
:1035B00030BC704724F480444D6944EA8514F2E736
:1035C000002C014010B4036A046A24F00104046270
:1035D000846924F0F00C4CEA021223F00A030B4336
:1035E0008261036210BC704710B4046A24F01004B6
:1035F00004628469036A24F4704C4CEA023223F0BA
:10360000A00343EA01138261036210BC7047836820
:1036100023F070030B4343F00703836070470000FF
:1036200090F83D30DBB2012B27D1022380F83D30EA
:103630000268D36843F00103D3600368114A9342E0
:1036400010D0B3F1804F0DD0A2F59432934209D03F
:1036500002F58062934205D01A6842F001021A60B6
:10366000002070479A6802F00702062A07D01A68FD
:1036700042F001021A6000207047012070470020CC
:10368000704700BF002C014070477047704770477B
:10369000704710B5044603681A6912F0020F11D082
:1036A000DA6812F0020F0DD06FF002021A610123E6
:1036B000037703689B6913F0030F70D0FFF7E6FFF1
:1036C0000023237723681A6912F0040F12D0DA68F6
:1036D00012F0040F0ED06FF004021A610223237758
:1036E00023689B6913F4407F5FD02046FFF7CEFF2D
:1036F0000023237723681A6912F0080F12D0DA68C2
:1037000012F0080F0ED06FF008021A61042323771D
:103710002368DB6913F0030F4ED02046FFF7B6FF96
:103720000023237723681A6912F0100F12D0DA6889
:1037300012F0100F0ED06FF010021A6108232377D9
:103740002368DB6913F4407F3DD02046FFF79EFFDE
:103750000023237723681A6912F0010F03D0DA6877
:1037600012F0010F36D123681A6912F0800F03D0CE
:10377000DA6812F0800F34D123681A6912F0400F12
:1037800003D0DA6812F0400F32D123681A6912F0C0
:10379000200F03D0DA6812F0200F30D110BDFFF7F0
:1037A00074FF2046FFF773FF8AE72046FFF76DFF9F
:1037B0002046FFF76CFF9BE72046FFF766FF204699
:1037C000FFF765FFACE72046FFF75FFF2046FFF7F6
:1037D0005EFFBDE76FF001021A612046FDF7A0FE13
:1037E000C1E76FF080021A61204600F02AFBC3E7B0
:1037F0006FF040021A612046FFF74AFFC5E76FF0FD
:1038000020021A61204600F01BFBC7E703681B4A31
:1038100090420AD0B0F1804F07D0A2F59432904286
:1038200003D002F58062904203D123F070034A680E
:103830001343124A90420AD0B0F1804F07D0A2F54C
:103840009432904203D002F58062904203D123F477
:103850004073CA68134323F080034A69134303602B
:103860008B68C3620B688362044B984202D00123C9
:10387000436170470B690363F9E700BF002C014007
:1038800040B310B5044690F83D30F3B1022384F8FC
:103890003D30214651F8040BFFF7B8FF012384F8AF
:1038A000463084F83E3084F83F3084F8403084F865
:1038B000413084F8423084F8433084F8443084F84E
:1038C000453084F83D30002010BD80F83C30FEF7D4
:1038D0009DFDDBE70120704740B310B5044690F82A
:1038E0003D30F3B1022384F83D30214651F8040BFA
:1038F000FFF78CFF012384F8463084F83E3084F8CB
:103900003F3084F8403084F8413084F8423084F805
:10391000433084F8443084F8453084F83D3000204A
:1039200010BD80F83C30FFF7AFFEDBE701207047A9
:10393000002857D070B50D46044690F83D30002B56
:103940004BD0022384F83D302268936823F48043EF
:1039500023F007039360214651F8040BFFF756FF4D
:1039600021688A688B690E6A2868104323F4407CBA
:103970002CF0030CAA68AB6942EA032343EA0C0368
:1039800023F47C4323F0FC03EA69D5F80CC04CEA2D
:10399000022C4CEA030C2A6A13032A6943EA021335
:1039A00043EA0C0326F022066A686D6942EA0512B2
:1039B0003243886021688B6123681A62012384F88E
:1039C000463084F83E3084F83F3084F8423084F842
:1039D000433084F83D30002070BD80F83C30FEF765
:1039E00099FCAEE70120704730B4036A23F010035E
:1039F0000362036A4468826922F4E6420D6842EA7F
:103A0000052223F020038D6843EA05130E4DA842DA
:103A100009D00D4DA8420ED0446082614A6882638D
:103A2000036230BC704723F08003CD6843EA05137E
:103A300023F04003EDE724F440644D6944EA850433
:103A40008D6944EA8504E7E7002C014038B590F819
:103A50003C30012B60D004460D46012380F83C30F9
:103A60000C2A1AD8DFE802F0071919191D191919BB
:103A70003119191944000068FFF720FD2268936985
:103A800043F0080393612268936923F00403936170
:103A90002268936929690B439361002084F83C00F4
:103AA00038BD0068FFF7A0FF2268936943F4006304
:103AB00093612268936923F4806393612268936918
:103AC000296943EA01239361E7E70068FFF724FDD2
:103AD0002268D36943F00803D3612268D36923F0D5
:103AE0000403D3612268D36929690B43D361D4E706
:103AF0000068FFF743FD2268D36943F40063D36194
:103B00002268D36923F48063D3612268D369296969
:103B100043EA0123D361C0E70220C1E710B48468FF
:103B200024F47F4C42EA03220A4342EA0C028260F8
:103B300010BC704790F83C30012B66D010B504469D
:103B4000012380F83C30022380F83D3002689368FE
:103B500023F47F4323F0770393600B68602B40D0FE
:103B600022D8402B47D00BD9502B0ED1CA684968B8
:103B70000068FFF727FD50212068FFF748FD04E0AB
:103B8000202B0CD008D9302B09D0012384F83D30EC
:103B9000002084F83C0010BD0BB1102BF5D1194664
:103BA0002068FFF734FDF0E7702B0ED0B3F5005F0F
:103BB000EBD1CB684A6889680068FFF7AFFF2268DD
:103BC000936843F480439360DFE7CB684A68896871
:103BD0000068FFF7A3FF2268936843F077039360C0
:103BE000D3E7CA6849680068FFF7FEFC60212068D7
:103BF000FFF70DFDC9E7CA6849680068FFF7E2FCF6
:103C000040212068FFF703FDBFE70220704701F065
:103C10001F01012303FA01FC036A23EA0C03036278
:103C2000036A02FA01F10B430362704710B50446C0
:103C3000084651BB94F83E30DBB2013B18BF01236C
:103C4000002B5BD1002839D1022384F83E300122B9
:103C500001462068FFF7DBFF23682A4A93423DD0E4
:103C60002368284A93423ED0B3F1804F3BD0A2F55F
:103C70009432934237D002F58062934233D01A686F
:103C800042F001021A60002039E0042908D0082916
:103C90000DD094F84130DBB2013B18BF0123CFE7D0
:103CA00094F83F30DBB2013B18BF0123C8E794F81A
:103CB0004030DBB2013B18BF0123C1E7042805D027
:103CC000082807D0022384F84130C0E7022384F893
:103CD0003F30BCE7022384F84030B8E75A6C42F426
:103CE00000425A64BCE79A6802F00702062A07D02D
:103CF0001A6842F001021A60002000E0012010BDA5
:103D00000020FCE7002C014038B5044690F83E0046
:103D1000C0B294F83F3094F84220D2B294F843C035
:103D20000D46B1B9012849D1012A48D1022384F8AE
:103D30003E3084F842307DB3042D39D00122002179
:103D40002068FFF764FF012204212068FFF75FFF6E
:103D500027E0DBB25FFA8CFC042912D0012833D1B2
:103D6000012B2CD1012A31D1BCF1010F30D102231A
:103D700084F83E3084F83F3084F8423084F8433091
:103D8000D9E7012B1CD1BCF1010F1BD1022384F810
:103D90003F3084F84330CEE7012200212068FFF74E
:103DA00036FF2268136843F001031360002006E029
:103DB000012204212068FFF72AFFF2E7012038BD25
:103DC0000120FCE71846FAE70120F8E71846F6E775
:103DD0001046F4E790F83C30012B2CD010B40123AE
:103DE00080F83C30022380F83D3003685A689C68B4
:103DF00022F0700C0A6842EA0C025A6003680F4A0B
:103E000093420AD0B3F1804F07D0A2F59432934287
:103E100003D002F58062934204D124F080044A6802
:103E200014439C60012380F83D30002380F83C302F
:103E3000184610BC70470220704700BF002C01409C
:103E4000704770470268D36823F49073D3600268A8
:103E5000536923F001035361036B012B05D0202329
:103E600080F83E300023036370470268D36823F074
:103E70001003D360F3E790F83D30DBB2212B01D083
:103E8000022070478368B3F5805F17D0036A5A1C1D
:103E900002621A7803685A60C38C9BB2013B9BB2E2
:103EA000C3844BB90268D36823F08003D3600268EF
:103EB000D36843F04003D360002070470369002BB0
:103EC000E4D1036A1B880268C3F308035360036AE2
:103ED00002330362E0E7000010B50446026813698C
:103EE00023F44053C1680B43136183680269134391
:103EF00042691A430168CB6823F4B05323F00C03E2
:103F00001343CB600268536923F4407381690B4308
:103F100053610268134B9A4220D0FFF7AFFA024672
:103F200002EB820202EB820263689B00B2FBF3F2B7
:103F30000D48A0FB02314909642303FB11231B0137
:103F40003233A0FB03235B0903F0F00202EB011202
:103F500003F00F03216813448B6010BDFFF79EFA36
:103F60000246DDE7003801401F85EB5158B310B51C
:103F7000044690F83D300BB3242384F83D3022688A
:103F8000D36823F40053D3602046FFF7A5FF2268CF
:103F9000136923F4904313612268536923F02A03C1
:103FA00053612268D36843F40053D3600020206437
:103FB000202384F83D3084F83E3010BD80F83C303A
:103FC000FEF718FBD8E701207047704708B5016875
:103FD000CA6822F04002CA60202280F83D20FFF724
:103FE000F4FF002008BD704708B5406A0023C38570
:103FF000C384FFF7F8FF08BD704790F83E30DBB28E
:10400000222B60D18368B3F5805F46D0826AB3F516
:10401000805F04D0002B4DD10369002B4AD1036887
:104020005B681370836A01338362C38D9BB2013B6B
:104030009BB2C385002B48D100B583B00268D3681A
:1040400023F02003D3600268D36823F48073D36025
:104050000268536923F001035361202380F83E3046
:10406000036B012B2CD1002303630268D36823F078
:104070001003D36003681A6812F0100F06D00022F4
:1040800001921A6801925B680193019B818DFFF791
:10409000B3FF002003B05DF804FB0269002AB5D12C
:1040A000826A03685B68C3F308031380836A023380
:1040B0008362BAE703685B6803F07F031370B1E7BC
:1040C000FDF768FDE5E7022070470020704700001B
:1040D00030B583B0044602681368D068516913F0A4
:1040E0000F0505D113F0200F02D010F0200F19D1C9
:1040F0002DB111F0010119D110F4907F16D1216B6F
:10410000012975D013F0800F03D010F0800F40F01C
:10411000D78013F0400F03D010F0400F40F0D48050
:1041200003B030BD2046FFF768FFF9E713F0010F39
:1041300006D010F4807F03D0226C42F0010222648A
:1041400013F0040F04D019B1226C42F00202226471
:1041500013F0020F04D019B1226C42F00402226461
:1041600013F0080F07D010F0200F00D119B1226C06
:1041700042F008022264226C002AD1D013F0200FF2
:1041800002D010F0200F21D123685B6903F04003B7
:10419000226C12F0080F00D123B32046FFF752FE25
:1041A00023685A6912F0400F18D05A6922F0400271
:1041B0005A61A36B73B1464A5A63A06BFEF746FC83
:1041C0000028ADD0A06B436B9847A9E72046FFF7C6
:1041D00014FFD9E72046FFF706FFA1E72046FFF7C7
:1041E00002FF9DE72046FFF7FEFE0023236497E7CA
:1041F00013F0100F86D010F0100F83D0002301931E
:104200001368019353680193019B536913F0400FA6
:1042100032D0A16B0B685B689BB2002B80D0A08D65
:1042200098427FF67DAFE3858B69202B08D1A18D65
:10423000E38D9BB2C91A89B22046FFF7DDFE6FE716
:10424000D36823F48073D3602268536923F0010399
:1042500053612268536923F040035361202384F89B
:104260003E30002323632268D36823F01003D36019
:10427000A06BFEF7C9FBDAE7A18DE38D9BB2C91AEB
:1042800089B2E38D9BB2002B3FF44AAF00293FF483
:1042900047AFD36823F49073D3602268536923F047
:1042A00001035361202384F83E30002323632268F6
:1042B000D36823F01003D3602046FFF79DFE2FE75D
:1042C0002046FFF7D8FD2BE72046FFF77FFE27E7C4
:1042D000E93F0008034681628285C2850020186498
:1042E000222283F83E2083F83C001968CA6842F411
:1042F0008072CA6019684A6942F001024A611A680C
:10430000D36843F02003D360704708B590F83E307F
:10431000DBB2202B0DD171B17AB190F83C30012B7A
:104320000DD0012380F83C3000230363FFF7D2FF58
:1043300000E0022008BD0120FCE70120FAE702208E
:10434000F8E7000070B50D4E0D4D761BB61006D087
:10435000002455F8043B01349847A642F9D1094E90
:10436000094D00F0D5F8761BB61006D0002455F89C
:10437000043B01349847A642F9D170BD5845000866
:10438000584500086045000858450008830730B5C7
:1043900048D0541E002A3FD00346CAB201E0013C77
:1043A0003AD303F8012B9D07F9D1032C2DD9CDB2B7
:1043B00045EA05250F2C45EA054536D9A4F110023A
:1043C00022F00F0C03F1200EE6444FEA121C03F119
:1043D000100242E9045542E9025510327245F8D103
:1043E0000CF1010214F00C0F03EB021204F00F0C9D
:1043F00013D0ACF1040323F003030433134442F855
:10440000045B9342FBD10CF003042CB1CAB21C44F0
:1044100003F8012B9C42FBD130BD64461346002CAF
:10442000F4D1F9E703461446BFE71A46A446E0E78D
:10443000024B13B1024800F005B8704700000000BD
:1044400051440008002301461A46184600F01AB8E5
:1044500038B5084B084D5B1B9C1007D0043B1D442E
:10446000013C55F804399847002CF9D1BDE8384093
:1044700000F054B86445000860450008704700BF6C
:10448000704700BF2DE9F047DFF87CA00646DAF858
:10449000000098460F469146FFF7F0FF1B4B1B6844
:1044A000D3F8484124B365681F2D26DC5EB96B1C28
:1044B0000235DAF80000636044F82570FFF7E0FF8A
:1044C0000020BDE8F087012304EB8501C1F8889046
:1044D000D4F88821AB401A43022EC4F88821C1F8D1
:1044E0000881E4D1D4F88C211343C4F88C31DEE781
:1044F00003F5A674C3F84841D5E7DAF80000FFF7E2
:10450000BFFF4FF0FF30DCE73804002054450008BF
:10451000F8B500BFF8BC08BC9E467047F8B500BFB0
:08452000F8BC08BC9E46704780
:10452800000000000000000001020304060708095B
:10453800000000000102030402030405060708093D
:104548000A0B0C0D0E0F10100000000010000020C8
:084558003144000835010008A0
:04456000110100083D
:10456400010000000024F40001000000100000001D
:1045740000000000FC02002064030020CC030020A3
:104584000000000000000000000000000000000027
:104594000000000000000000000000000000000017
:1045A4000000000000000000000000000000000007
:1045B40000000000000000000000000000000000F7
:1045C40000000000000000000000000000000000E7
:1045D40000000000000000000000000000000000D7
:1045E40000000000000000000000000000000000C7
:1045F40000000000000000000000000000000000B7
:1046040000000000000000000000000000000000A6
:104614000000000000000000010000000000000095
:104624000E33CDAB34126DE6ECDE05000B0000005A
:104634000000000000000000000000000000000076
:104644000000000000000000000000000000000066
:104654000000000000000000000000000000000056
:104664000000000000000000000000000000000046
:0C4994000000000000000000200B0020CC
:04000005080027BD0B
:00000001FF
